:020000040800F2
:10000000585D0020DD0100087F1800087F160008F9
:100010007D18000849020008111E000800000000B9
:100020000000000000000000000000004501000882
:100030009B0200080000000089010008A9180008C0
:10004000F7010008F7010008F7010008F7010008B0
:10005000F7010008F7010008F7010008F7010008A0
:10006000F7010008F7010008F7010008F701000890
:10007000F70100084D020008F701000859020008C6
:1000800065020008F7010008F7010008F701000801
:10009000F7010008F7010008F7010008F701000860
:1000A000F7010008F7010008F7010008F701000850
:1000B000F7010008F7010008F7010008F701000840
:1000C000F7010008F7010008F7010008F701000830
:1000D000F70100082D1D0008791D0008C51D000846
:1000E000F7010008F7010008F7010008F701000810
:1000F0005D190008F7010008F7010008F701000882
:10010000F7010008F7010008F7010008F7010008EF
:10011000F7010008F7010008F7010008F7010008DF
:10012000F7010008F7010008F7010008F7010008CF
:10013000DFF80CD000F076F8004800477D1E00087C
:10014000585D0020224B19680868B0E8F00F80F372
:100150000988BFF36F8F4FF0000080F311884EF0D5
:100160000D0E70470000000006480068006880F32C
:10017000088862B661B6BFF34F8FBFF36F8F00DFA1
:1001800000BF00BF08ED00E0EFF30980BFF36F8F01
:100190000F4B1A6820E9F00F106008B54FF05000BF
:1001A00080F31188BFF34F8FBFF36F8F02F0B6FB60
:1001B0004FF0000080F31188BDE808401968086816
:1001C000B0E8F00F80F30988BFF36F8F704700BF6E
:1001D00050000020EFF3058070470000064880477C
:1001E00006480047FEE7FEE7FEE7FEE7FEE7FEE71C
:1001F000FEE7FEE7FEE7FEE71519000831010008FB
:1002000040EA01039B0703D009E008C9121F08C098
:10021000042AFAD203E011F8013B00F8013B521E18
:10022000F9D27047064C074D06E0E06840F0010344
:1002300094E8070098471034AC42F6D3FFF77CFFF0
:100240000833000828330008FEE70000014800F0EA
:10025000D5B80000D4010020014800F0CFB800005C
:100260004C010020014800F0C9B8000090010020B6
:1002700030B590F840500124AC40C56B6C60046808
:1002800063604368102B036803D099600068C26004
:1002900030BD9A600068C16030BD704701680A686F
:1002A00022F00E020A6001680A6822F001020A6068
:1002B00090F84020C36B012101FA02F25A6080F8E5
:1002C0002110002180F82010084670472DE9F05FCA
:1002D00090F821100024022903D004218163012415
:1002E00085E001680A6822F00E020A6001680A6867
:1002F00022F001020A603F4E3E4FB215DFF8F4C013
:10030000DFF8F090DFF8ECA0DFF8E8B0DFF8E4E029
:100310000168783F13011502ACF1640CA9F1500992
:10032000AAF13C0AABF1280BAEF1140E4FF4801881
:10033000B14227D9B9420ED0614512D049451DD0EE
:10034000514518D0594518D0714501D1424615E0A4
:10035000294EB14201D1012210E0274E1436B1429C
:1003600001D110220AE0244E2836B14206D0224A9A
:100370003C32914201D11A4600E02A461E49091F2B
:100380000A602BE0B94213D0614517D0494522D00D
:1003900051451DD059451DD0714501D142461AE045
:1003A000B14202D14FF0807215E0134EB14201D13B
:1003B000012210E0104E1436B14201D110220AE0A1
:1003C0000D4E2836B14206D00B4A3C32914201D143
:1003D0001A4600E02A46074980394A60012180F820
:1003E0002110002180F82010416B01B18847204680
:1003F000BDE8F09F80000240080402402DE9F05F54
:10040000C16B0A6801680B68046C4FF0040808FAB5
:1004100004F8844D844E854FDFF814C2DFF814923F
:10042000DFF814A2DFF814B2DFF814E218EA020FC2
:1004300065D05FEA437862D50A68920603D40A68F9
:1004400022F004020A60DFF8F0814FF48062016854
:1004500008F1140813011402414524D9A9420DD012
:10046000B1420FD0B9421AD0614515D0494515D0D7
:10047000514501D1120312E0594501D104220EE089
:10048000714501D140220AE06D4D1435A94206D0D4
:100490006B4A2832914201D11A4600E02246674950
:1004A000091F0A6029E0A94213D0B14215D0B94210
:1004B00020D061451BD049451BD0514502D14FF496
:1004C000800217E0414502D14FF0806212E05945A9
:1004D00001D104220EE0714501D140220AE0584DBD
:1004E0001435A94206D0564A2832914201D11A4603
:1004F00000E022464B4908394A60C16A71E04FF07A
:10050000020808FA04F818EA020F70D05FEA83784C
:100510006DD50A68920606D40A6822F00A020A60BB
:10052000012180F82110DFF810814FF4007201687A
:1005300008F1140813011402414524D9A9420DD031
:10054000B1420FD0B9421AD0614515D0494515D0F6
:10055000514501D1120312E0594501D102220EE0AA
:10056000714501D120220AE0354D1435A94206D04B
:10057000334A2832914201D11A4600E022462F49DF
:10058000091F0A6029E0A94213D0B14215D0B9422F
:1005900020D061451BD049451BD0514502D14FF4B5
:1005A000001217E0414502D14FF0007212E05945A8
:1005B00001D102220EE0714501D120220AE0204D36
:1005C0001435A94206D01E4A2832914201D11A465A
:1005D00000E02246134908394A60002180F82010C3
:1005E000816A00291CD0BDE8F05F0847FFE70825B5
:1005F000A540154214D01A0712D50A6822F00E023F
:100600000A6090F84020C36B012101FA02F25A609F
:10061000816380F82110002180F82010016BE0E751
:10062000BDE8F09F080002401C000240300002407C
:1006300044000240580002406C000240080402409E
:100640001C04024030B560B11C4A03681421934277
:1006500009D21B4A1A44B2FBF1F18900016419491D
:100660000AE0012030BD154A52421A44B2FBF1F1B2
:100670008900016411490839C163022180F8211001
:100680001A6843F6F0718A43F0E901142143D0E976
:1006900002452C4321430469214344692143846971
:1006A000214311431960002141628162C1620163EB
:1006B0004163012242770177084630BD08040240B9
:1006C000F8FFFDBF0000024070B5044690F820001E
:1006D000002501280CD0012084F8200094F8216026
:1006E0000020012E06D084F820000225284670BD87
:1006F000022070BD022684F82160A063206806688D
:1007000026F0010606602046FFF7B2FDE06A0028E9
:100710002068016802D041F00E0106E021F00401DA
:1007200001602068016841F00A01016020680168E9
:1007300041F001010160D9E72DE9F84FDFF8B8A1D8
:1007400000220AF1040B144601274FF00F090BF1A8
:10075000040E00BF0B6807FA04F52B40AB4274D1BE
:10076000DFF898C14E68A6EB0C0866452BD00DDC6F
:10077000032E34D005DC36B3012E19D0022E2FD132
:100780001BE0112E16D0122E2AD119E0B8F5881FC1
:1007900019D006DCB8F5803F15D0B8F5801F1FD101
:1007A00011E0B8F5001F0ED0B8F5041F18D10AE00B
:1007B000CA6815E0CA68121D12E0CA6808320FE064
:1007C000CA680C320CE08A682AB1012A4FF008028C
:1007D00003D0456104E0042202E0056100E000224C
:1007E000FF2B01D8064601E000F104064FEA84051C
:1007F00001D9A5F12005D6F800C009FA05F82CEAC0
:10080000080C02FA05F54CEA050CC6F800C04D6864
:10081000ED006AD53A4DAE6946F00106AE61AD69AC
:1008200024F0030605F001050095364D06EB050C96
:10083000DCF80850A6074FEA167809FA08F6B5431F
:10084000314EB04202D100261AE04EE02F4EB042A7
:1008500001D1012614E02E4EB04201D102260FE054
:100860002C4EB04201D103260AE02B4EB04201D1FA
:10087000042605E0294EB04201D1052600E00626F7
:1008800006FA08F62E43CCF808604D68DAF80060E6
:10089000ED03554601D51E4300E09E432E604D6892
:1008A000AD0305D5DBF800601E43CBF8006004E023
:1008B000DBF800509D43CBF800504D68DEF8006037
:1008C000ED02754601D51E4300E09E432E604D6843
:1008D000AD0205D5084D0C352E681E432E6004E090
:1008E000054E0C3635689D433560641C102CFFF4B2
:1008F00031AFBDE8F88F0000000401400000111086
:10090000001002400000014000080140000C0140BE
:10091000001001400014014000180140001C01407B
:10092000014880687047000000000020024881688C
:10093000027811448160704700000020074810B51C
:10094000016841F010010160032000F0B5F80020BB
:1009500000F006F800F03EF8002010BD0020024034
:1009600000B5014687B000222C2000F085F82C202D
:1009700000F076F81348816941F400518161806983
:1009800005A900F400500690684600F051F900F007
:1009900085F90D490D4AB0FBF1F10D48491E026081
:1009A000416040F2E7320021C0E90321816000F09C
:1009B0005FFB10B1012007B000BD054800F074FBDB
:1009C000F9E700000010024040420F0000340140EF
:1009D00018020020204808B5816941F001018161B9
:1009E000816901F001010091C16941F08051C1614B
:1009F000C06900F080500090032000F05DF80022F4
:100A000011466FF00B0000F037F8002211466FF02E
:100A10000A0000F031F8002211466FF0090000F0E2
:100A20002BF800221146501F00F026F80022114634
:100A3000101F00F021F800220F21901E00F01CF87A
:100A400000220F21501E00F017F80448416821F0E1
:100A5000E061416008BD000000100240000001405C
:100A600000F01F02012191404009800000F1E020C8
:100A7000C0F8001170470000F0B40E4B1B680C4624
:100A8000C3F30223C3F10705042D00D90425191D62
:100A9000072901D2002300E0DB1E012606FA05F13A
:100AA000491E214099409E40761E16403143F0BCBD
:100AB00000F0E6BE0CED00E0064900F00702086811
:100AC0004FF6FF03184040EA0220034A1043086033
:100AD000704700000CED00E00000FA052DE9F0473A
:100AE000DFF83C8105460E46D8F8000000F007000C
:100AF000B0420CD2D8F8001021F007013143C8F8F9
:100B00000010D8F8000000F00700B04263D1287848
:100B1000444C800705D56068A96820F0F0000843C0
:100B200060602878C00745D06868012816D0216821
:100B3000022816D0890700294DDA616821F00301E7
:100B400001436160FFF7ECFE6968074641F28830B7
:100B500001290FD00229814619D027E02168890395
:100B6000E9E78901E7E700BFFFF7DAFEC11B494566
:100B700001D918E081466068C0F381000128F3D1F3
:100B800018E000BFFFF7CCFEC11B49450BD86068D9
:100B9000C0F381000228F5D10CE000BFFFF7C0FED2
:100BA000C11B494502D90320BDE8F087606810F0F9
:100BB0000C0FF3D1D8F80010404601F00701B14204
:100BC0000BD9016821F0070131430160006800F092
:100BD0000700B04201D00120E6E72878400705D59C
:100BE0006068E96820F4E0600843606028780007E6
:100BF00006D56068296920F4605040EAC100606051
:100C000000F05CF86168084AC1F30311515CC84008
:100C1000064908600020FFF7A3FE0020C4E700009B
:100C20000020024000100240B432000828000020DA
:100C30000F2202600C4A536803F0030343605368B9
:100C400003F0F0038360536803F4E063C360526809
:100C50004FF4E06303EAD20202610448006800F046
:100C600007000860704700000010024000200240AA
:100C7000014800687047000028000020044805492A
:100C800000684968044AC1F30221515CC8407047BA
:100C90002800002000100240C43200080448054922
:100CA00000684968044AC1F3C221515CC8407047DA
:100CB0002800002000100240C432000812A185B0B4
:100CC0000FC98DE80F0014A0144A00680490516801
:100CD000134801F00C03042B10D0082B0ED1C1F3E4
:100CE0008343C9031DF803000AD5516804AAC1F360
:100CF0004041515C0A4A5043B0FBF1F005B07047E7
:100D000008494843FAE700000203040506070809FA
:100D10000A0B0C0D0E0F1010010200000010024013
:100D200000127A0000093D002DE9F84F04460078D2
:100D3000B94DC00748D06868C0F38100012807D0CA
:100D40006868C0F38100022809D16868C00306D52D
:100D50002868800338D5606800286FD034E0606868
:100D6000B0F5803F0BD010B1B0F5A02F11D028689E
:100D700020F480302860286820F4802002E0286871
:100D800040F480302860606888B1FFF7C9FD0646EE
:100D900009E0286840F480202860F0E7FFF7C0FDF4
:100DA000801B642875D828688003F7D50CE0FFF70E
:100DB000B7FD064605E000BFFFF7B2FD801B6428C3
:100DC000F0D828688003F7D42078944E80074FF03D
:100DD00001094FF000083BD5686810F00C0F07D0F0
:100DE0006868C0F38100022809D16868C00306D48E
:100DF0002868800714D5206901281FD110E02069D8
:100E0000B0B1C6F80090FFF78BFD074605E000BFC4
:100E1000FFF786FDC01B0228C4D828688007F7D5D5
:100E20002868616920F0F80040EAC10028600FE0FE
:100E3000C6F80080FFF774FD074606E0E9E000BF52
:100E4000FFF76EFDC01B022823D828688007F7D45F
:100E5000207800072CD57248A169D9B1C0F800905C
:100E6000FFF75EFD074604E0FFF75AFDC01B0228AE
:100E70000FD8686A8007F7D56A484FF4FA510068BE
:100E8000B0FBF1F0009000BF0098411E0091FAD233
:100E90000EE080E0C0F80080FFF742FD074604E066
:100EA000FFF73EFDC01B022875D8686A8007F7D49B
:100EB0002078400760D5E8690027C00008D4E869B9
:100EC00040F08050E861E869012700F08050009010
:100ED00055480168C90513D40168834641F48071FF
:100EE0000160FFF71DFD824606E000BFFFF718FD19
:100EF000A0EB0A0064284ED8DBF80000C005F5D549
:100F0000E06801280AD008B1052813D0286A20F02B
:100F100001002862286A20F0040002E0286A40F0FC
:100F200001002862E06841F2883B98B1FFF7F8FCC5
:100F300082460BE0286A40F004002862EEE700BF1A
:100F4000FFF7EEFCA0EB0A0159455AD8286A800742
:100F5000F6D50CE0FFF7E4FC824605E0FFF7E0FC85
:100F6000A0EB0A0159454CD8286A8007F6D41FB176
:100F7000E86920F08050E861E06988B36968C1F3EE
:100F80008101022945D00228C6F8608004D0FFF70D
:100F9000C7FC044638E034E0FFF7C2FC074604E033
:100FA000FFF7BEFCC01B02282BD828688001F7D4AD
:100FB000206AB0F5803F05D16868A16820F4003050
:100FC00008436860D4E908010843696821F4741192
:100FD00008436860C6F86090FFF7A2FC044606E08C
:100FE00015E000BFFFF79CFC001B022809D8286809
:100FF0008001F7D50BE000BFFFF792FC001B022831
:1010000002D90320BDE8F88F28688001F4D40020BD
:10101000F8E70120F6E7000000100240000042421D
:101020008004424228000020007000404FF0E02180
:101030000428086903D020F004000861704740F0DC
:101040000400FAE710B5401EB0F1807F01D3012003
:1010500010BD4FF0E02460610F21601700F010FC1C
:101060000020A06107202061002010BD704770475C
:1010700010B5040003D094F83D0010B107E0012042
:1010800010BD002084F83C00204600F00CF802203F
:1010900084F83D00211D206800F066FC012084F8E2
:1010A0003D00002010BD70470168CA6842F001028F
:1010B000CA600068016841F00101016000207047CA
:1010C000704770B50446006801694FF00005C943D8
:1010D000890715D4C168C943890711D4E91E016184
:1010E00001202077206880698007204602D0FFF722
:1010F000E7FF04E000F098F8204600F096F8257726
:1011000020680169C943490717D4C168C943490721
:1011100013D46FF0040101610220207720688069F8
:1011200010F4407F204602D0FFF7CAFF04E000F031
:101130007BF8204600F079F8257720680169C943DB
:10114000090716D4C168C943090712D46FF0080112
:101150000161042020772068C0698007204602D002
:10116000FFF7AEFF04E000F05FF8204600F05DF806
:10117000257720680169C943C90617D4C168C943E6
:10118000C90613D46FF01001016108202077206890
:10119000C06910F4407F204602D0FFF791FF04E0C1
:1011A00000F042F8204600F040F8257720680169F9
:1011B000C943C90708D1C168C943C90704D1891EF9
:1011C0000161204600F032F820680169C943090630
:1011D00009D4C168C943090605D46FF080010161D3
:1011E0002046FFF743FF20680169C943490609D437
:1011F000C168C943490605D46FF04001016120462A
:1012000000F01EF820680169C94389060BD4C16843
:10121000C943890607D46FF0200101612046BDE86B
:101220007040FFF724BF70BD7047704700680349E6
:10123000884201D1FFF77ABB7047000000340140BB
:10124000704710B504460068416994F83920C1F32D
:10125000C011212A0BD151B1416921F080014161B6
:10126000206B08B1FFF71AF8204600F021FC206837
:10127000416994F83A20C1F38011222A0BD151B16F
:10128000416921F040014161606B08B1FFF706F848
:10129000204600F0FFFB002010BD704770B50268CB
:1012A00004461068D168536910F00F0F50D003F056
:1012B000010501F4907635435DD0C20705D0CA051B
:1012C00003D5E26B42F00102E263420705D5DA077B
:1012D00003D0E26B42F00202E263820705D5DA072F
:1012E00003D0E26B42F00402E263020705D5DA079D
:1012F00003D0E26B42F00802E263E26B002A33D0D3
:10130000800604D5880602D5204600F0DAFB206866
:101310004069E16BC0F38010090700D428B3204670
:1013200000F0B8FB2068416949061AD5416921F0EF
:1013300040014161606BA0B11B494163606BFEF7E6
:10134000C5FF002810D0606B416BBDE870400847B6
:10135000830610D58B060ED52046BDE8704000F000
:10136000B0BB2046FFF799FF70BD2046FFF795FF01
:101370000020E06370BD030606D50B0604D52046A9
:10138000BDE8704000F0A0BC4006F3D54806F1D59A
:10139000D168204621F04001D160202184F8391025
:1013A00000F06CF970BD0000F519000870B504007C
:1013B00004D094F83900002510B106E0012070BD7A
:1013C00084F83850204600F023F8242084F83900AF
:1013D0002068C16821F40051C160204600F0BCFBC8
:1013E0002068016921F4904101612068416921F080
:1013F0002A0141612068C16841F40051C160E56380
:10140000202084F8390084F83A00002070BD0000E4
:101410002DE9F0430546654F036800246448022126
:101420000322802685B04FF40078BB4232D1836915
:1014300043F4804383618069CDE9008100F48040FA
:10144000CDE903205B4F69463846FFF775F9F00098
:10145000CDE90004694638460294FFF76DF9574F0D
:101460005548C7E90004C7E902463C617C61BC619C
:101470003846FC61FFF7E6F818B1A32150A000F050
:10148000E6FC6F630022052125207D62FFF7F4FA58
:10149000252042E0DFF838C14E4FDFF83C9163452C
:1014A00040D1C36943F40033C361C069039200F4BF
:1014B000003004902020CDE9000169463846FFF74E
:1014C0003BF94020CDE90004694638460294FFF715
:1014D00033F9D9F8041041F0E06141F00801C9F88E
:1014E0000410364F344844371430C7E90004C7E9C4
:1014F00002463C617C61BC613846FC61FFF7A2F8A2
:1015000018B1D3212EA000F0A2FC6F6300220521A8
:1015100026207D62FFF7B0FA2620FFF7A1FA05B07A
:10152000BDE8F083DFF8B4C06345F8D1C36943F484
:101530008023C361C069039200F4802004904FF4BB
:101540008070CDE9000169463846FFF7F5F8CDE92E
:101550000084694638460294FFF7EEF8D9F8041083
:1015600021F0300141F0E06141F03001C9F8041090
:10157000124F114888372838C7E90004C7E90246E6
:101580003C617C61BC613846FC61FFF75BF820B1CF
:1015900040F203110AA000F05AFC6F6300220521FB
:1015A00027207D62FFF768FA2720B6E70038014060
:1015B0000010024000080140580002404C01002089
:1015C0002E2E2F5372632F75736172742E63000079
:1015D0000044004000140140000001400048004069
:1015E000F8B5044690F83A0020283CD1C1B3BAB30C
:1015F00094F83800012836D0012084F83800A16220
:10160000A2850025E563222084F83A00636B174821
:101610009862636B1648D862636B16481863606BF8
:10162000134645630846666B216802463046091D2D
:10163000FFF74AF8206801684168009184F8385043
:10164000C16841F48071C1602068416941F00101C5
:1016500041612068416941F0400141610020F8BDCD
:10166000FFE70120FBE70220F9E700004F1A00081E
:101670008B1A0008051A0008704770477047FEE78C
:10168000114808B5416941F00101416140690022FA
:1016900000F00100009005210D20FFF7EDF90D206D
:1016A000FFF7DEF9002205210F20FFF7E5F90F20F3
:1016B000FFF7D6F9002205211020FFF7DDF9BDE87C
:1016C00008401020FFF7CCB90010024030B597B0A9
:1016D0000025012114A8149500F024FC1D4C0121C3
:1016E000206115A8159500F01DFC6061012116A868
:1016F000169500F017FCA061142217496846FEF702
:101700007FFD0021684600F087FC13492060142209
:10171000143105A8FEF774FD002105A800F07CFC3B
:101720000D496060142228310AA8FEF769FD0021E6
:101730000AA800F071FC0849A06014223C310FA8EF
:10174000FEF75EFD00210FA800F066FCE06017B018
:1017500030BD00000C000020643200080D4808B5C0
:10176000816941F020018161816901F020010091CE
:10177000816941F004018161816901F004010091F6
:10178000816941F008018161806900F008000090E2
:1017900008BD0000001002400D4810B50B49016063
:1017A0004FF4E1314160002181600C22C160C0E949
:1017B00004128161C161FFF7F9FD002805D0BDE881
:1017C0001040522103A000F042BB10BD0038014080
:1017D0008C0000202E2E2F5372632F75736172744C
:1017E0002E6300000D4810B50B4901604FF4E13144
:1017F0004160002181600C22C160C0E90412816156
:10180000C161FFF7D3FD002805D0BDE81040652178
:1018100003A000F01CBB10BD00440040CC00002021
:101820002E2E2F5372632F75736172742E63000016
:101830000D4810B50B4901604FF4E13141600021C2
:1018400081600C22C160C0E904128161C161FFF7AF
:10185000ADFD002805D0BDE81040782103A000F0C0
:10186000F6BA10BD004800400C0100202E2E2F5368
:1018700072632F75736172742E630000FEE7704708
:101880000907090E002806DA00F00F0000F1E02039
:1018900080F8141D704700F1E02080F800147047B4
:1018A000012000F033FBFBE700F0ACBB30B58FB09C
:1018B00001210804CDE900100024029402250491BE
:1018C000CDE907504FF4E01009906846FFF72CFA75
:1018D00000B1FEE70F20CDE90A054FF48060CDE9A5
:1018E0000C4002210AA80E94FFF7F8F800B1FEE7B9
:1018F000FFF7BEF94FF47A71B0FBF1F0FFF7A2FBEE
:101900000420FFF793FB00220F21501EFFF7B4F8CD
:101910000FB030BD0D48016841F001010160416820
:101920000B4A1140416001680A4A11400160016898
:1019300021F480210160416821F4FE0141604FF4EF
:101940001F0181600449C003086070470010024015
:101950000000FFF8FFFFF6FE08ED00E00148FFF78A
:10196000B0BB000018020020F0B502681C4B1D4DF2
:101970001D4E1E4F1E4C4FF0804C984209D0A04285
:1019800007D0604505D0A84203D0B04201D0B8428C
:1019900004D122F0700E4A6842EA0E02984209D041
:1019A000A04207D0604505D0A84203D0B04201D084
:1019B000B84203D122F44075CA682A4322F0800558
:1019C0004A692A4302608A68C2620A68826298424F
:1019D00001D0A04201D10969016301214161F0BD3B
:1019E000002C01400004004000080040000C0040B2
:1019F0000034014010B5406A0021C185C184FFF761
:101A00004CFC10BD70B5446A2068406994F83910E8
:101A1000C0F3C0100025212904D118B1E584204667
:101A200000F046F82068406994F83A10C0F380103E
:101A3000222904D118B1E585204600F02BF8E06B8F
:101A400040F01000E0632046FFF727FC70BD10B5A2
:101A50000146406A09680968890613D40021C185D6
:101A60000168CA6822F48072CA6001684A6922F07B
:101A700001024A6101684A6922F040024A6120215C
:101A800080F83A10FFF7F8FD10BD10B5406AFFF777
:101A9000F4FD10BD0168CA6822F49072CA60016842
:101AA0004A6922F001024A61202180F83A10704709
:101AB0000168CA6822F0C002CA60202180F839108B
:101AC000704710B590F83A10222901D0022010BDBD
:101AD0008168B1F5805F11D00169002901681FD0CC
:101AE000496801F07F03816A4A1C82620B70C18DD4
:101AF000491E0904090CC18518D02BE00269816ACE
:101B0000002A0268526805D0D2B20A80816A491C54
:101B10008162ECE7C2F308020A80816A891CF7E758
:101B20004A68816A4B1C83620A70E0E70168CA68F0
:101B300022F02002CA600168CA6822F48072CA607A
:101B400001684A6922F001024A61202180F83A10B6
:101B5000FFF792FD002010BD2DE9F041044600681A
:101B60000169E26821F44051114301612169A068D3
:101B70000843616908432168CA6841F20C639A43CB
:101B80000243CA6020684169A26921F4407111438F
:101B900041614C4920686425322688423CD1FFF7D8
:101BA0007DF800EBC00101EB001061688900B0FB1B
:101BB000F1F7FFF773F800EBC00101EB001061686B
:101BC000B0468900B0FBF1F0B0FBF5F06FF0180102
:101BD000484307EB800106EB0110B0FBF5F000F085
:101BE000F006FFF75BF800EBC00101EB0010616845
:101BF0008900B0FBF1F0B0FBF5F006EB0016FFF743
:101C00004DF800EBC00101EB001061688900B0FBEA
:101C1000F1F7FFF743F83BE0FFF730F800EBC001C6
:101C200001EB001061688900B0FBF1F7FFF726F8BF
:101C300000EBC00101EB00106168B0468900B0FB09
:101C4000F1F0B0FBF5F06FF01801484307EB8001AD
:101C500006EB0110B0FBF5F000F0F006FFF70EF810
:101C600000EBC00101EB001061688900B0FBF1F0EE
:101C7000B0FBF5F006EB0016FFF700F800EBC00133
:101C800001EB001061688900B0FBF1F7FEF7F6FF89
:101C900000EBC00101EB001061688900B0FBF1F0BE
:101CA000B0FBF5F06FF01801484307EB800108EB3B
:101CB0000110B0FBF5F0216800F00F00304488609F
:101CC000BDE8F0810038014090F83910212901D099
:101CD000022070478168B1F5805F016A0BD04A1C11
:101CE0000262026809785160C18C491E0904090C1E
:101CF000C1840ED017E009880268C1F30801516061
:101D000001690029016A02D0491C0162ECE7891CC3
:101D1000FBE70168CA6822F08002CA600068C168F7
:101D200041F04001C16000207047000010B5064935
:101D3000064800F06EF80648006800F007F9BDE8B4
:101D400010400248FFF7AABA485300208C00002038
:101D50001C000020064D074C4FF0FF370026394687
:101D6000286900F01BF92078C007F8D02670F6E744
:101D70000C0000204853002010B50649064800F02A
:101D800048F80648006800F0E1F8BDE81040024855
:101D9000FFF784BA4C550020CC0000202000002022
:101DA000064D074C4FF0FF3700263946686900F0B2
:101DB000F5F82078C007F8D02670F6E70C00002070
:101DC0004C55002010B50649064800F022F8064898
:101DD000006800F0BBF8BDE810400248FFF75EBAAB
:101DE000505700200C01002024000020064D074C15
:101DF0004FF0FF3700263946A86900F0CFF8207869
:101E0000C007F8D02670F6E70C00002050570020DD
:101E1000FEE738B5054600680C460168C943C906A7
:101E200014D40168406800902846FFF70AFA686BEE
:101E300000684068C0F50070608001204202207098
:101E4000211D2846BDE83840FFF7CABB38BDFEE774
:101E500002E008C8121F08C1002AFAD17047704773
:101E6000002001E001C1121F002AFBD17047EFF3EF
:101E70000580002800D0012070470000FEF75EFDBD
:101E8000FFF714FDFFF76AFCFFF7FAFBFFF784FC8E
:101E9000FFF7A8FCFFF7CCFC4FF400742246124970
:101EA0001248FFF79DFB11480068C16841F010011E
:101EB000C16022460E490F48FFF792FB0D480068AB
:101EC000C16841F01001C16022460B490B48FFF781
:101ED00087FB0A480068C16841F01001C160FFF744
:101EE000F5FB00F01AF8FEE74C5300208C000020B0
:101EF00050550020CC000020545700200C01002039
:101F000001460020842900D0C81C704710B500B9D4
:101F1000012000F02FFC002010BD10B500F0C2FC25
:101F2000002010BD10B5012901D0002010BD0322F2
:101F30000021012000F070FD040004D000231A46A7
:101F4000194600F087FE204610BD000038B5002479
:101F500005460094FFF78BFF90B16946284600F0D4
:101F600029FF012801D0FF2038BD009888B10A4917
:101F70004FF080500860BFF34F8FBFF36F8F08E0C2
:101F800000231A461946284600F064FE012800D0B6
:101F9000FF24204638BD000004ED00E038B5050000
:101FA0004FF0000000900FD00024481C0ED001B16B
:101FB0000C46FFF75CFFB8B16A460021284600F0E6
:101FC00047FF012818D104E0802038BD4FF0FF34CE
:101FD000EFE7009890B10A494FF080500860BFF3D6
:101FE0004F8FBFF36F8F09E0002322461946284622
:101FF00000F036FD012801D0FF2038BD002038BD9B
:1020000004ED00E010B500F0D3FF012803D0BDE8D7
:10201000104000F0EBBC10BD3EB504460D46B0F9D3
:102020000800FFF76DFF02A9CDE90001208A2B46C9
:1020300082B2D4E9001000F08FFF012801D0002007
:102040003EBD02983EBD00002DE9F041184C0F4600
:102050000546E6682068001D00F0ACFA38B9206833
:1020600090F82C1001208840216981432161681C6F
:1020700007D137B12168BDE8F0410E48091D00F0D5
:10208000D1BA20683544B5424560216805D2A06BBD
:10209000BDE8F041091D00F0ADBA606B091D00F00C
:1020A000A9FAA06A854200D2A562BDE8F0810000CD
:1020B00050000020345300202DE9F041054600F087
:1020C000BDFA2E4CA068401CA06020682C4F10B1B7
:1020D000606940B32DE02560A068012829D1002661
:1020E00006EB860007EB800000F076FA761C072EE0
:1020F000F6D323488C3000F06FFA2148A03000F06E
:102100006BFA1F48B43000F067FA1D48C83000F081
:1021100063FA1B48DC3000F05FFA19488C306063CA
:102120001430A06305E02068E96AC06A884200D8DC
:102130002560606A401C6062E96A0120226988406B
:102140001043206101EB810007EB8000291D00F0A6
:1021500069FA00F093FA606900280CD02068E96AF7
:10216000C06A884207D207494FF080500860BFF329
:102170004F8FBFF36F8FBDE8F0810000500000204B
:102180005852002004ED00E070B5114E114C17E0DC
:1021900000F0BCFB3068B8B101F002F800F04EFA74
:1021A000F068C568281D00F005FAA068401EA06010
:1021B0006068401E606000F061FA284600F055F843
:1021C00060680028E4D170BD00F0EAFFF8E7000085
:1021D000205300205000002030B4026C0B46002A2F
:1021E0000BD0C1681144C1604468A14201D30168A9
:1021F000C16030BC1846FEF703B830BC70472DE90B
:10220000F041856B174604460026026C82B1C7B1C7
:10221000E068FDF7F5FFE168206C091AE1602268CB
:10222000914202D26168081AE060022F16D017E0CE
:102230002068A8B9606800F02DFF064600206060A5
:102240000EE0A068FDF7DCFF216CA0680844A060E8
:102250006168884204D32068A06001E005B16D1E6A
:102260006D1CA5633046BDE8F08110B50446006BD7
:1022700000F018FA2046BDE8104000F013BA000044
:1022800010484FF4A041420706D0C01D0D4920F070
:102290000700411AC1F5A0410B4A00230144C2E9DD
:1022A00000030839103A21F0070111604B600B6000
:1022B0000B1AC0E9001393604FF000405360D060E8
:1022C00070470000580200203C000020074C4FF0EF
:1022D0008056074DFFF758FF20680128FAD92E6075
:1022E000BFF34F8FBFF36F8FF4E700005852002009
:1022F00004ED00E02DE9F0479A46DDE909848146C6
:102300006FF00303206B03EB82021044089D20F062
:102310000706700707D0502080F31188BFF34F8F56
:10232000BFF36F8FFEE723180A5C83F834200A5C42
:1023300012B1401C1028F6D3002784F84370072DF3
:1023400000D30625E562C4E91157201D00F04FF9BE
:1023500004F1180000F04BF92461C5F10700646234
:10236000A061E76484F8507052464946304600F058
:102370000FF92060B8F1000F01D0C8F80040BDE8A7
:10238000F087000030B5114900E011460A6882422A
:10239000FBD34B685C18844203D140681844486002
:1023A000084643681C18944209D1084C103C246824
:1023B000A24209D052681A4442600A681268026058
:1023C000814200D0086030BD0460F9E73C00002085
:1023D00010B5044600F032F9A06B28B15FF000049C
:1023E00000F04CF9204610BD0124F9E70648416B86
:1023F000096829B1416BC968C96849688162704739
:102400004FF0FF31FAE70000500000200848406814
:10241000401C4FF0500080F3118804D0BFF34F8F61
:10242000BFF36F8FFEE7BFF34F8FBFF36F8FFEE7F2
:10243000440000202DE9F041044600F0FFF894F933
:10244000455004F1240609E0606A48B1304600F0C6
:102450006DFE08B100F0B4F96D1E6DB2002DF3DC15
:102460004FF0FF3684F8456000F008F900F0E6F818
:1024700094F9445004F1100709E0206948B1384646
:1024800000F054FE08B100F09BF96D1E6DB2002DF6
:10249000F3DC84F84460BDE8F04100F0EFB80000E0
:1024A0002DE9F0410546002700F030FA314E306842
:1024B00008B9FFF7E5FEF06805424BD1C5B3083512
:1024C00068070ED005F00700C0F108000544680752
:1024D00007D0502080F31188BFF34F8FBFF36F8F69
:1024E000FEE72DB37068854234D82248103001468B
:1024F0000C6801E020460C466168A94202D22168BE
:102500000029F7D131688C4224D007682168016026
:1025100060680837411B10290FD96019420708D09D
:10252000502080F31188BFF34F8FBFF36F8FFEE70A
:1025300010E041606560FFF725FF61687068401A30
:102540007060B268904200D2B060F0680143002031
:10255000C4E9000100F024FE780707D0502080F382
:102560001188BFF34F8FBFF36F8FFEE73846BDE88A
:10257000F08100002C0000200449086818B10868A8
:10258000826C521C82640868704700005000002072
:1025900010B5031F4FF080741C601B1F21F0010158
:1025A0001960191F024B0B60143940380A6010BDC6
:1025B0000D240008D0E9013201699A60D0E90123B5
:1025C0005A604A68824201D182684A6000220261F0
:1025D0000868401E0860704700F108014FF0FF32A4
:1025E000C0E90112C1600161002101607047002152
:1025F0000161704730B50B685A1C02D000F1080227
:1026000002E0026904E02246546825689D42FAD936
:1026100053684B6099608A60516008610168491C89
:10262000016030BD42684A6093688B60936859606E
:10263000916008610168491C01607047502080F377
:102640001188BFF34F8FBFF36F8F0A494868401C52
:10265000486001280CD10848006810F0FF0F07D02F
:10266000502080F31188BFF34F8FBFF36F8FFEE7C9
:10267000704700004400002004ED00E0084948686D
:1026800028B1401E486001D180F311887047502066
:1026900080F31188BFF34F8FBFF36F8FFEE7000009
:1026A0004400002070B5002827D0144DA0F1080484
:1026B0006168E868014207D1502080F31188BFF3B8
:1026C0004F8FBFF36F8FFEE722683AB1502080F33F
:1026D0001188BFF34F8FBFF36F8FFEE781436160B7
:1026E00000F014F960686968084468602046FFF7E4
:1026F00049FEBDE8704000F053BD70BD2C000020C5
:1027000006484FF47A710068B0FBF1F14FF0E02019
:10271000491E416107210161704700002800002027
:1027200010B5FDF757FD114910280ED300F1E02038
:1027300090F8F0030A78904207D2502080F3118875
:10274000BFF34F8FBFF36F8FFEE7094800688968BA
:1027500000F4E060884207D9502080F31188BFF36D
:102760004F8FBFF36F8FFEE710BD000044000020C5
:102770000CED00E010B5020014D00F48006B38B12A
:10278000502080F31188BFF34F8FBFF36F8FFEE7A8
:1027900000F0BCF800211046FFF756FC00F000FDE9
:1027A000002807D105494FF080500860BFF34F8FD4
:1027B000BFF36F8F10BD00005000002004ED00E05B
:1027C00001490120C86170475000002010B50C4637
:1027D00050B1094909681831FFF70CFF2046BDE8E0
:1027E00010400121FFF730BC502080F31188BFF367
:1027F0004F8FBFF36F8FFEE75000002070B50400CD
:1028000039D01D4DE06A2968C96A884233D2A0696F
:10281000002804DB2868C06AC0F10700A061E16AF3
:10282000164E01EB8101606906EB810188421FD1E0
:10283000201DFFF7BFFE012150B9E06A00EB8002C6
:1028400056F8222022B92A6901FA00F082432A614F
:102850002868C06AE0622A6981401143296100EB5F
:10286000800006EB8000211DBDE87040FFF7DABE56
:102870002868C06AE06270BD5000002058520020F5
:1028800028B107490A6A0260C96841607047502050
:1028900080F31188BFF34F8FBFF36F8FFEE7000007
:1028A000500000201CB515480024CDE90040234607
:1028B000802213A1144800F04FFB012809D0401CCE
:1028C0001AD1502080F31188BFF34F8FBFF36F8F61
:1028D000FEE7502080F31188BFF34F8FBFF36F8F57
:1028E00006484FF0FF312C38816201214161C460FC
:1028F000BDE81C4000F040B81CBD00007C0000207A
:1029000049444C4500000000CD2200080248016BFC
:10291000491C016370470000500000201448016BFF
:1029200011B10121C16170470021C1610169B1FA92
:1029300081F1C1F11F0101EB81020E4951F82230F2
:102940006BB101EB820101F108034A6852684A60E9
:102950009A4201D152684A60D168016070475020A4
:1029600080F31188BFF34F8FBFF36F8FFEE7000036
:1029700050000020585200201CB5194908780190D9
:10298000FF20087008788DF800009DF80000154AB7
:1029900000F0500010700720906005E09DF80030B6
:1029A0005B008DF80030401E9DF800301B06F5D40A
:1029B000000200F4E0609060019808700A48016825
:1029C00041F470010160016841F070410160FFF75E
:1029D00097FE00205060FDF7C7FB00201CBD0000E3
:1029E00000E400E04400002020ED00E010B550209D
:1029F00080F31188BFF34F8FBFF36F8F00F0E6FABB
:102A000018B104494FF080500860002080F311880D
:102A100010BD000004ED00E070B50E46050013D0B7
:102A2000D6B105FB06F04830FFF73AFD040009D0A7
:102A300004F1480120468EB10160C0E90F56012122
:102A400000F0C4F8204670BD502080F31188BFF319
:102A50004F8FBFF36F8FFEE70020E4E70060ECE7E5
:102A60002DE9FF4F002683B09B468A46040003D021
:102A7000BAF1000F08D011E0502080F31188BFF3A5
:102A80004F8FBFF36F8FFEE7206C38B1502080F37B
:102A90001188BFF34F8FBFF36F8FFEE700F088FA06
:102AA000DFF824814FF000094FF0805748B90598AE
:102AB00038B1502080F31188BFF34F8FBFF36F8F71
:102AC000FEE7FFF7BBFDA56B45B351462046E66820
:102AD000FFF782FBBBF1000F13D0E660606A50B1D4
:102AE00004F1240000F022FB28B1C8F80070BFF305
:102AF0004F8FBFF36F8FFFF7C1FD012007B0BDE817
:102B0000F08F6D1EA563206810B9FFF735FD60607A
:102B100020690028EFD004F11000E3E7059808B120
:102B20001EB106E0FFF7AAFD27E06846FFF7A8FE02
:102B30000126FFF7A3FDFFF7E9FEFFF77FFD94F9FC
:102B40004400401C01D184F8449094F94500401C95
:102B500001D184F84590FFF791FD05A9684600F082
:102B6000C5F9002820460AD0FFF764FC00F018FBE6
:102B70002046FFF72DFC0028A3D00020BEE7FFF77A
:102B800027FCD8B1206830B9FFF758FD6068FFF71F
:102B900035FEFFF773FD04F124000599FFF716FEDB
:102BA0002046FFF747FC00F0FBFA002889D1C8F85F
:102BB0000070BFF34F8FBFF36F8F82E72046FFF7A0
:102BC00039FC00F0EDFA7CE704ED00E070B50D464D
:102BD000040025D0FFF732FDD4E90F20216802FB65
:102BE000001161600021A1632168A1600A46D4E957
:102BF0000F01401E00FB0121E16021464FF0FF3034
:102C000001F8440F487004F110008DB1FFF7E4FCA7
:102C100004F12400FFF7E0FCFFF730FD012070BD58
:102C2000502080F31188BFF34F8FBFF36F8FFEE703
:102C300021690029F0D000F079FA0028ECD004498D
:102C40004FF080500860BFF34F8FBFF36F8FE3E703
:102C500004ED00E02DE9FF4782B01D468A464FF0A3
:102C60000008040003D0BAF1000F08D011E0502092
:102C700080F31188BFF34F8FBFF36F8FFEE7206C97
:102C800038B1502080F31188BFF34F8FBFF36F8F9F
:102C9000FEE7022D0AD1E06B012807D0502080F317
:102CA0001188BFF34F8FBFF36F8FFEE700F080F9FD
:102CB0003F4F4FF000094FF0805648B9049838B1A3
:102CC000502080F31188BFF34F8FBFF36F8FFEE763
:102CD000FFF7B4FCA06BE16B884207D3022D05D04F
:102CE0000498D0B1B8F1000F1AD01EE02A46514620
:102CF0002046FFF784FA616A19B104F1240000F05C
:102D000015FA20B13E60BFF34F8FBFF36F8FFFF70F
:102D1000B5FC012006B0BDE8F087FFF7AFFC22E06C
:102D20006846FFF7ADFD4FF00108FFF7A7FCFFF77E
:102D3000EDFDFFF783FC94F94400401C01D184F8B9
:102D4000449094F94500401C01D184F84590FFF768
:102D500095FC04A9684600F0C9F830B12046FFF799
:102D600069FB00F01DFA0020D4E7FFF767FCA06BB9
:102D7000E16B884213D1FFF781FC04F11000049944
:102D8000FFF724FD2046FFF755FB00F009FA002865
:102D90009ED13E60BFF34F8FBFF36F8F98E7FFF771
:102DA0006DFC2046FFF746FB00F0FAF990E70000C3
:102DB00004ED00E070B50E46040009D0206C78B137
:102DC000502080F31188BFF34F8FBFF36F8FFEE762
:102DD000502080F31188BFF34F8FBFF36F8FFEE752
:102DE000206848B9606838B1502080F31188BFF37B
:102DF0004F8FBFF36F8FFEE7FFF792FC5020EFF38A
:102E0000118580F31188BFF34F8FBFF36F8FA16BD4
:102E1000E06B884218D994F94500491CA163411C14
:102E200004D0401C84F8450001200EE0606A0028B0
:102E3000FAD004F1240000F079F90028F4D0002E33
:102E4000F2D001203060EFE7002085F3118870BDDB
:102E50002DE9F04790468946040003D0B9F1000FF0
:102E600008D011E0502080F31188BFF34F8FBFF3DB
:102E70006F8FFEE7206C38B1502080F31188BFF3CC
:102E80004F8FBFF36F8FFEE7FFF74AFC5020EFF341
:102E9000118680F31188BFF34F8FBFF36F8FA76B3D
:102EA000F7B194F9445049462046FFF795F97F1E43
:102EB000A763681C04D06D1C84F84450012010E006
:102EC00020690028FAD004F1100000F02FF9002842
:102ED000F4D0B8F1000FF1D00121C8F80010EDE7EF
:102EE000002086F31188BDE8F087000070B50D461C
:102EF000040019D005B3FFF7A1FB164AD168286872
:102F0000431C0FD02368126A934202D062688A423F
:102F10001AD96268891A814216D2401A286020465E
:102F2000FFF7AEFC002410E0502080F31188BFF3BF
:102F30004F8FBFF36F8FFEE7502080F31188BFF3F0
:102F40004F8FBFF36F8FFEE70124FFF797FB2046FB
:102F500070BD0000500000202DE9FF5F8346DDE9D1
:102F60000E87994616468A469000FFF799FA0500A3
:102F70001AD05420FFF794FA040012D025630021E0
:102F8000CDE90241CDE900874B46324651465846CD
:102F9000FFF7B0F92046FFF78FF8012004B0BDE835
:102FA000F09F2846FFF77EFB4FF0FF30F6E700006A
:102FB0000548416919B1006B18B100207047012024
:102FC0007047022070470000500000202DE9F041BA
:102FD0002E4C0027206B40B1A069401CA061E06925
:102FE00000B101273846BDE8F081E668761CE6604E
:102FF00013D1606B006838B1502080F31188BFF3A3
:103000004F8FBFF36F8FFEE7606BA16B6163A063AF
:10301000206A401C2062FFF7E9F9A06ADFF870809F
:10302000864209D3606B006880B1606BC068C56878
:10303000686886420DD2A0622068C06A00EB8001F9
:1030400058F821000128CAD90127C8E74FF0FF30FE
:10305000F1E7281DFFF7AEFAA86A18B105F11800CC
:10306000FFF7A8FAE86A0121226981401143216132
:1030700000EB800108EB8100291DFFF7D3FAE86A15
:103080002168C96A8842CDD30127CBE750000020D0
:103090005852002070B504004FF0000140D0214D7F
:1030A0002868844207D0502080F31188BFF34F8FE7
:1030B000BFF36F8FFEE7A06C38B1401EA064636C55
:1030C000E26A9A422CD040B12AE0502080F3118865
:1030D000BFF34F8FBFF36F8FFEE7201DFFF76AFA34
:1030E000114A012150B9E06A00EB800352F8233005
:1030F00023B92B6901FA00F083432B61606CE06215
:10310000C0F10700A061E06A2B6981401943296181
:1031100000EB800002EB8000211DFFF783FA012104
:10312000084670BD50000020585200202DE9F041A3
:10313000C068C468ACB104F118000746FFF73AFA5A
:10314000154D286B0126A0B139461448FFF76AFADD
:10315000E06A2968C96A88421CD90120EE61BDE88D
:10316000F081502080F31188BFF34F8FBFF36F8F32
:10317000FEE7201DFFF71EFAE16A2A6906FA01F050
:103180001043286101EB81000449B43901EB800050
:10319000211DDBE70020E2E7500000200C53002057
:1031A0002DE9F0472C4D00242746286B38B1FFF756
:1031B00045FA286B401E2863286B40B146E050203A
:1031C00080F31188BFF34F8FBFF36F8FFEE7A968BD
:1031D000224E0120D1B3A6F1B40980463068E8B18F
:1031E000F068C46804F11800FFF7E4F9201DFFF748
:1031F000E1F9E06A2A6908FA00F11143296100EB5C
:10320000800109EB8100211DFFF70CFAE06A2968B3
:10321000C96A8842E2D3C5F81C80DFE70CB1FFF72A
:10322000E5F8AC6944B14646FFF7D0FE00B1EE6167
:10323000641EF9D10020A861E86938B10849012766
:1032400038070860BFF34F8FBFF36F8FFFF716FA91
:103250003846BDE8F0870000500000200C530020E5
:1032600004ED00E0FC320008A11800080000000096
:103270000000000080000000CC320008551D00084E
:10328000030000000000000080000000DC320008A5
:10329000A11D0008030000000000000080000000E5
:1032A000EC320008ED1D00080300000000000000E3
:1032B0008000000000000000000000000102030484
:1032C000060708090000000001020304555341529B
:1032D00054315F53657276650000000055534152CA
:1032E00054325F53657276650000000055534152B9
:1032F00054335F5365727665000000006465666153
:10330000756C745461736B00283300080000002052
:103310008C000000501E0008B43300088C00002010
:10332000CC5C0000601E00080100000010000000DE
:10333000000000000000000000000000000000008D
:10334000000000000000000000000000000000007D
:1033500000A24A040000000000000000000000007D
:10336000000000000000000000000000000000005D
:10337000AAAAAAAA000000000000000000000000A5
:10338000000000000000000000000000000000003D
:10339000000000000000000000000000000000002D
:1033A000000000000000000000000000000000001D
:0433B0000000000019
:0400000508000131BD
:00000001FF
