:020000040800F2
:1000000028770020DD010008F1320008C928000827
:10001000312E000877080008254000080000000085
:100020000000000000000000000000004501000882
:10003000F509000800000000890100087537000874
:10004000F7010008F7010008F7010008F7010008B0
:10005000F7010008F7010008F7010008F7010008A0
:10006000F7010008F7010008F7010008F701000890
:10007000F701000899090008F7010008A90900081C
:10008000B9090008F7010008F7010008F7010008A6
:10009000F7010008F7010008F7010008F701000860
:1000A000F7010008F7010008F7010008F701000850
:1000B000F7010008F7010008F7010008F701000840
:1000C000F7010008F7010008F7010008F701000830
:1000D000F7010008253E0008B53E0008953F0008DE
:1000E000F7010008F7010008F7010008F701000810
:1000F00065380008F7010008F7010008F70100085B
:10010000F7010008F7010008F7010008F7010008EF
:10011000F7010008F7010008F7010008F7010008DF
:10012000F7010008F7010008F7010008F7010008CF
:10013000DFF80CD000F048FB00480047E942000817
:1001400028770020224B19680868B0E8F00F80F388
:100150000988BFF36F8F4FF0000080F311884EF0D5
:100160000D0E70470000000006480068006880F32C
:10017000088862B661B6BFF34F8FBFF36F8F00DFA1
:1001800000BF00BF08ED00E0EFF30980BFF36F8F01
:100190000F4B1A6820E9F00F106008B54FF05000BF
:1001A00080F31188BFF34F8FBFF36F8F06F0CEF847
:1001B0004FF0000080F31188BDE808401968086816
:1001C000B0E8F00F80F30988BFF36F8F704700BF6E
:1001D00084000020EFF30580704700000648804748
:1001E00006480047FEE7FEE7FEE7FEE7FEE7FEE71C
:1001F000FEE7FEE7FEE7FEE70D38000831010008E4
:10020000202A04DB203A21FA02F00021704721FA6B
:1002100002F3D040C2F120029140084319467047D2
:1002200040EA01039B0703D009E008C9121F08C078
:10023000042AFAD203E011F8013B00F8013B521EF8
:10024000F9D27047D2B201E000F8012B491EFBD26F
:1002500070470022F6E710B513460A4604461946D1
:10026000FFF7F0FF204610BD034611F8012B00F800
:10027000012B002AF9D118467047F0B480EA010238
:10028000D40F4200B2EB410F02D20246084611469B
:100290004A0042D0C30DDDB2C1F3C752AD1A202DC2
:1002A00035DAC1F3160141F4000204B15242C5F13E
:1002B000200602FA06F12A411044B3EBD05F23D0A6
:1002C000C4B1012DA0EBC35009DCF0BC4FF00042DB
:1002D00002EAC352DBB200F5000000F0E9B94000C9
:1002E00000F1807000EBC350A0F1807040EAD17043
:1002F000490009E0490841EAC071A0EBC35000F58C
:100300000000400800EBC350F0BC00F0C8B96142E7
:10031000012202EB4101001BF6E7F0BC704781F0BF
:100320000041AAE780F00040A7E72DE9FE4F804694
:1003300081EA0300C00F0C46009021F0004123F039
:100340000045B8EB0200A94105D24046214690463F
:100350001C460B46024623F00040104347D0270DB1
:10036000C7F30A00C3F30A510290401A01904028D3
:100370006BDAC3F3130040F4801B0098924620B15F
:100380000023D2EB030A63EB0B0B01985946C0F133
:100390004002504600F062F906460D465046594666
:1003A000019A00F06AF910EB08006141002487EA25
:1003B000115284EAE7731A4340D0009A62B3019A5B
:1003C000012A4FEA075215DC001B61EB02014FF0D6
:1003D000004202EA0752CDE90042001C41F58011BB
:1003E00032462B4600F0A1F903B0BDE8F08F40463D
:1003F0002146F9E7001B61EB0201001C41F5801367
:1004000000185B412018A2F5001747EB030140EAF2
:10041000D570B6196D4111E06D084FEA360645EA10
:10042000C0754FEA0752001B61EB0201001C41F549
:10043000801149084FEA30000019514132462B46DD
:1004400003B0BDE8F04F00F061B900980122400010
:100450000023D0EB020263EBE073009821464FEAE1
:10046000E074B8EB000061EB0401E9E783F00043BE
:100470005BE781F0004158E72DE9FE4F81EA030474
:1004800004F0004421F0004100944FF0000B23F0F1
:10049000004350EA01045ED052EA03045BD0C3F388
:1004A0000A54C1F30A552C44A4F2F3340194A0FB7E
:1004B0000254C1F3130141F48011C3F3130343F455
:1004C000801301FB024400FB034E840A970A44EAAE
:1004D000815447EA8357A4FB076802958D0A05FB00
:1004E00007854FEA932C04FB0C542705029D4FEA25
:1004F000065847EA1637B5EB08056EEB070C870E72
:10050000920E47EA811742EA8312A7FB0201B6EB7B
:100510000B0164EB00042B0D43EA0C335E1844EB33
:100520001C50DA465146E7FB0201C5F313044FEABB
:100530000B3343EA14534FEA0432019C43EA0603A7
:10054000A4F10C040294009CCDE900B400F0EDF895
:1005500003B0BDE8F08F00200146F9E796230022A2
:10056000114600F0A5B80EB5C10F80EAE07008444E
:10057000CA07002140F233438DE80E000A460B46BD
:1005800000F0D3F803B000BD0EB540F23341029144
:100590000021CDE900110A460B4600F0C6F803B071
:1005A00000BD00F0004220F00040C10DC0F3160075
:1005B00040F400007F2901DA00207047962903DC0F
:1005C000C1F19601C84001E096398840002AF4D074
:1005D0004042704720F00040C10DC0F3160040F4C7
:1005E00000007F2901DA00207047962903DCC1F161
:1005F0009601C840704796398840704701F0004323
:1006000030B421F0004150EA010206D00A0DA2F5F3
:100610006072C1F31301002A02DC30BC0020704775
:10062000440F44EAC104C100E01830BC00EBC250E2
:1006300000F035B8002801DBC0F10040002901DBE3
:10064000C1F1004181427047002801DBC0F1004048
:10065000002901DBC1F1004188427047202A04DBF8
:10066000203A00FA02F1002070479140C2F12003C5
:1006700020FA03F3194390407047202A06DBCB177A
:10068000203A41FA02F043EAE07306E041FA02F34D
:10069000D040C2F12002914008431946704700291A
:1006A000A8BF7047401C490008BF20F001007047F8
:1006B00010B4B0FA80FC00FA0CF050EA010404BF58
:1006C00010BC704749B1CCF1200421FA04F411FAAE
:1006D0000CF118BF012121430843A3EB0C01CB1DF2
:1006E0004FEA00614FEA102042BF002010BC704763
:1006F00000EBC35010440029A4BF10BC7047401C3D
:10070000490008BF20F0010010BC704710B5141E4E
:1007100073F1000408DA401C41F1000192185B41BA
:100720001A4301D120F0010010BD2DE9F04D924691
:100730009B4611B1B1FA81F202E0B0FA80F22032A8
:100740009046FFF78BFF04460F4640EA0A0041EA55
:100750000B0153465A46084313D0114653EA010091
:1007600019D0C8F140025046FFF74AFD05460E4633
:10077000504659464246FFF771FF084305D0012015
:1007800004E020463946BDE8F08D0020054346EAE6
:10079000E0762C4337430A986305E40AA0EB08008F
:1007A0000022FD0A44EA47540A3002D500200146DF
:1007B000E9E7010510196941DDE9084500196941BA
:1007C000BDE8F04DA2E70000064C074D06E0E068EA
:1007D00040F0010394E8070098471034AC42F6D388
:1007E000FFF7AAFCB47B0008D47B000870B58C1816
:1007F00010F8015B15F0070301D110F8013B2A1135
:1008000006D110F8012B03E010F8016B01F8016B21
:100810005B1EF9D12B0705D40023521E0DD401F81D
:10082000013BFAE710F8013BCB1A921C03E013F8E6
:10083000015B01F8015B521EF9D5A142D8D300201B
:1008400070BD30B5A1B005460C46802101A8FFF768
:1008500000FD2246294601A8FFF7E2FC002006E041
:10086000611E091A01AA515C2954411CC8B2A04258
:10087000F6DB21B030BD00BFFEE700002DE9F05FE0
:100880004FF0000AD3463E498888FFF767FE0446CA
:100890003C4801682046FFF745FD82464FF0804105
:1008A0005046FFF7D1FE0FD2032240F2E73101207C
:1008B00002F022FC642003F074FD0C2240F241415E
:1008C000012002F019FC58E051460020FFF7B2FE6B
:1008D00024D24FF07E515046FFF7ACFE1ED228497D
:1008E000898CA1F6B830FFF73EFE8046264A274B9A
:1008F000FFF7C2FD06460022254BFFF7B7FD044671
:10090000FFF77CFE83465846FFF74BFE04B22246B3
:1009100040F24141012002F0EFFB2EE05146002061
:10092000FFF792FE1ED21B495046FFF78DFE19D2EB
:100930001349898CA1F6B830FFF715FE0646124A16
:10094000124BFFF799FD0446FFF758FE83465846C1
:10095000FFF727FE04B2224640F24141012002F097
:10096000CBFB0AE051460B48FFF76EFE05D2002292
:1009700040F2E731012002F0BFFBBDE8F09F00002C
:1009800070060020480000207B14AE47E17A843FC7
:100990000000F03F000080BF10B5024800F068FA88
:1009A00010BD0000E002002010B5024800F060FA1F
:1009B00010BD00005802002010B5024800F058FA9F
:1009C00010BD00009C02002030B590F8405001247A
:1009D000AC40C56B6C60046863604468102C04D143
:1009E0000468A2600468E16003E00468A160046830
:1009F000E26030BD704700001CB50020019000246B
:100A000000260027002532A00068009000BF314971
:100A100000235A1E086801A905F036FE01980079E6
:100A200055284ED101984079AA284AD10198807959
:100A3000022846D10198817BC07B01EB002084B263
:100A40000198001D04F10C01425C0198001D491C35
:100A5000405C02EB002086B2C91E0198801D03F0A5
:100A60001FFCB0422DD1601EC11700EB9171C1F384
:100A7000870700201FE081000D31019A121D535C91
:100A800081000E31019A121D515C03EB01218DB2E0
:100A90000A2D0EDC81000F31019A121D535C81007A
:100AA0001031019A121D515C03EB01210A4A22F810
:100AB0001510411CC8B2B842DDDB0221684603F0C4
:100AC0004BFA019805F0C6F9002001909FE700005D
:100AD000800200003C0000207006002008B50020C5
:100AE000009000BF4FF0FF313148006803F0A8FCD0
:100AF0001C2240F2AF41012002F09CF92D49002355
:100B00004FF4FA720868694605F0BEFD132241F2FF
:100B1000EF31012002F08EF9009802F0CBF9009835
:100B200005F098F900200090224900234FF4FA7252
:100B30000868694605F0A8FD1E2003F032FC10226B
:100B400051023F2002F076F9009802F0B3F90098C4
:100B500005F080F900200090164900234FF4FA7246
:100B60000868694605F090FD022251033F2002F01B
:100B700061F9009802F09EF9009805F06BF90020E9
:100B800000900C4900234FF4FA720868694605F09A
:100B90007BFD009802F08EF9009805F05BF90020CB
:100BA000009005480178054800F00AF89AE700002F
:100BB0002C000020400000203400002035000020E0
:100BC000F0B5A1B005460E46802101A8FFF741FB14
:100BD0000024AA208DF8040055208DF8050002207D
:100BE0008DF80600002005E02A5CC11C01AB5A54B8
:100BF000411CC8B20628F7DB8DF80D604D208DF83A
:100C00000E0000208DF80F0001208DF8100000204C
:100C10008DF811008DF8120000BF17E01A4A32F863
:100C20001010CA1701EB12621212A1EB0222D3B20A
:100C300042000F3201AFBB54134931F810100A12B1
:100C40004100103101AB5A54411CC8B22528E5DBE4
:100C500057210DF1060003F023FB04462046E1175F
:100C600004EB11610912A4EB0121C9B28DF85D10EA
:100C700020128DF85E003A208DF85F005C2101A8FB
:100C800003F06AF921B0F0BD700600200146002093
:100C90000A68126822F00E020B681A600A6812686D
:100CA00022F001020B681A6091F8403001229A404C
:100CB000CB6B5A60012281F8212000BF002281F80D
:100CC000202000BF7047000070B50446002594F84E
:100CD0002100022803D00420A0630125C1E0206880
:100CE000006820F00E00216808602068006820F08D
:100CF0000100216808605C492068884252D95A493D
:100D000078392068884201D1012047E0564964398A
:100D10002068884201D1102040E0534950392068B2
:100D2000884201D1801539E04F493C39206888421A
:100D300001D1801432E04C4928392068884202D120
:100D40004FF480302AE0484914392068884202D1A3
:100D50004FF4801022E044492068884201D14004C9
:100D60001CE042492068884201D1012016E03F4939
:100D700014312068884201D110200FE03B4928310E
:100D80002068884201D1801508E038493C3120684C
:100D9000884201D1801401E04FF480303349091FAB
:100DA000086051E0304978392068884201D101203B
:100DB00047E02D4964392068884201D1102040E085
:100DC000294950392068884201D1801539E02649E7
:100DD0003C392068884201D1801432E02249283908
:100DE0002068884202D14FF480302AE01E4914392D
:100DF0002068884202D14FF4801022E01A4920680E
:100E0000884201D140041CE018492068884201D181
:100E1000012016E0154914312068884201D11020C4
:100E20000FE0124928312068884201D1801508E07E
:100E30000E493C312068884201D1801401E04FF412
:100E40008030094980394860012084F8210000BFC2
:100E5000002084F8200000BF606B10B12046616B59
:100E60008847284670BD0000800002400804024008
:100E700070B50446E06B05682068066894F8401079
:100E8000042088402840002875D006F0040000287F
:100E9000FAD02068006800F0200028B920680068B7
:100EA00020F0040021680860D5492068884254D9A0
:100EB000D34978392068884201D1042049E0D049DB
:100EC00064392068884201D1402042E0CC49503941
:100ED0002068884201D100153BE0C9493C392068AF
:100EE000884202D14FF4804033E0C5492839206858
:100EF000884202D14FF480202BE0C1491439206888
:100F0000884202D14FF4800023E0BD492068884226
:100F100001D1C0041DE0BB492068884201D10420F2
:100F200017E0B84914312068884201D1402010E010
:100F3000B44928312068884201D1001509E0B1493F
:100F40003C312068884202D14FF4804001E04FF4E8
:100F50008020AC49091F086054E0A949783920680D
:100F6000884201D104204AE0A549643920688842BA
:100F700002D1402043E04CE0A1495039206888422A
:100F800001D100153BE09E493C392068884202D1DE
:100F90004FF4804033E09A4928392068884202D1D2
:100FA0004FF480202BE0964914392068884202D102
:100FB0004FF4800023E092492068884201D1C004A8
:100FC0001DE090492068884201D1042017E08D4936
:100FD00014312068884201D1402010E0894928312D
:100FE0002068884201D1001509E086493C3120681B
:100FF000884202D14FF4804001E04FF480208049C4
:1010000080394860E06A002802D02046E16A8847BB
:10101000F4E094F84010022088402840002871D065
:1010200006F002000028FAD02068006800F02000D6
:1010300040B92068006820F00A002168086001209B
:1010400084F821006E492068884254D96C49783967
:101050002068884201D1022049E06949643920684A
:10106000884201D1202042E06549503920688842F9
:1010700001D140153BE062493C392068884202D1E9
:101080004FF4005033E05E4928392068884202D18D
:101090004FF400302BE05A4914392068884202D1BD
:1010A0004FF4001023E056492068884201D18004A3
:1010B0001DE054492068884201D1022017E05149BF
:1010C00014312068884201D1202010E04D49283198
:1010D0002068884201D1401509E04A493C31206826
:1010E000884202D14FF4005001E04FF400304549EE
:1010F000091F086054E0424978392068884202D1CB
:1011000002204AE057E03E4964392068884201D114
:10111000202042E03A4950392068884201D14015E8
:101120003BE037493C392068884202D14FF40050F7
:1011300033E0334928392068884202D14FF4003027
:101140002BE02F4914392068884202D14FF4001057
:1011500023E02B492068884201D180041DE0294901
:101160002068884201D1022017E026491431206806
:10117000884201D1202010E022492831206888428D
:1011800001D1401509E01F493C312068884202D155
:101190004FF4005001E04FF40030194980394860A5
:1011A00000BF002084F8200000BFA06A30B32046B2
:1011B000A16A884722E094F840100820884028401F
:1011C000E0B106F00800C8B12068006820F00E0009
:1011D0002168086094F8401001208840E16B486065
:1011E0000120A06384F8210000BF002084F82000C3
:1011F00000BF206B10B12046216B884770BD0000F6
:1012000080000240080402400146002209B9012082
:101210007047204B086898420BD21F4B0868C01AD1
:101220001423B0FBF3F0800008641B480838C8633F
:101230000AE0184B0868C01A1423B0FBF3F08000D2
:10124000086414480838C863022081F8210008683F
:10125000026843F6F0708243D1E901031843CB687A
:1012600018430B6918434B6918438B691843CB69C2
:10127000184302430868026000208862C86208635D
:1012800048638863012081F82100002081F8200054
:1012900000BFBDE708040240080002402DE9F0410C
:1012A00004460D4616461F464FF0000800BF94F84E
:1012B0002000012802D10220BDE8F081012084F83D
:1012C000200000BF94F8210001282CD1022084F8CE
:1012D00021000020A0632068006820F00100216840
:1012E00008603B46324629462046FFF76DFBE06A20
:1012F00030B12068006840F00E00216808600BE003
:101300002068006820F004002168086020680068F8
:1013100040F00A00216808602068006840F0010081
:101320002168086006E000BF002084F8200000BFAC
:101330004FF002084046BFE72DE9F8470246002477
:10134000002000258446002700237BE14FF00108A0
:1013500008FA03F4D1F8008008EA0400A0427DD125
:10136000DFF8ECA2D1F80480A8EB0A09D0453AD006
:1013700014DCB8F1030F50D009DCB8F1000F31D004
:10138000B8F1010F1CD0B8F1020F49D120E0B8F13B
:10139000110F18D0B8F1120F42D11EE0B9F5881F15
:1013A00025D006DCB9F5803F20D0B9F5801F37D1B4
:1013B0001AE0B9F5001F18D0B9F5041F30D117E0B5
:1013C000D1F80CC02DE0D1F80C8008F1040C28E015
:1013D000D1F80C8008F1080C23E0D1F80C8008F15A
:1013E0000C0C1EE000BF00BF00BF00BF00BF00BF6D
:1013F000D1F80880B8F1000F02D14FF0040C0BE0D7
:10140000D1F80880B8F1010F03D14FF0080C146136
:1014100002E04FF0080C546103E04FF0000C00E0D4
:1014200000BF00BFFF2801D8904601E002F1040888
:101430004646FF2802D84FEA830803E0A3F10808D4
:101440004FEA88084746D6F800804FF00F0909FA9E
:1014500007F928EA09080CFA07F900E07AE048EAF7
:101460000908C6F80080D1F8048008F08058B8F167
:10147000805F6FD100BFDFF8DC81D8F8188048F0BA
:101480000108DFF8D091C9F81880C846D8F818804C
:1014900008F00108CDF8008000BF00BF4FEAB9385E
:1014A0004FEA930958F829504FEA83784FEA1879A0
:1014B0004FF00F0808FA09F825EA0805DFF89881C7
:1014C000424502D14FF0000824E0DFF89081424508
:1014D00002D14FF001081DE0DFF88481424502D1BE
:1014E0004FF0020816E0DFF87C81424502D14FF050
:1014F00003080FE0DFF87081424502D14FF0040885
:1015000008E0DFF86881424502D14FF0050801E0AC
:101510004FF006084FEA83794FEA197908FA09F87B
:1015200048EA0505DFF848814FEA930948F8295051
:10153000D1F8048008F48038B8F5803F0BD1DFF88B
:101540003481D8F8008048EA0008DFF82891C9F80B
:1015500000800AE075E0DFF81C81D8F8008028EAF6
:101560000008DFF81091C9F80080D1F8048008F471
:101570000038B8F5003F0ED1DFF8F88008F1040814
:10158000D8F8008048EA0008DFF8E89009F104097B
:10159000C9F800800DE0DFF8DC8008F10408D8F815
:1015A000008028EA0008DFF8CC9009F10409C9F8A6
:1015B0000080D1F8048008F48018B8F5801F0ED19F
:1015C000DFF8B08008F10808D8F8008048EA000881
:1015D000DFF8A09009F10809C9F800800DE0DFF8F4
:1015E000948008F10808D8F8008028EA0008DFF89D
:1015F000849009F10809C9F80080D1F8048008F442
:101600000018B8F5001F0ED1DFF8688008F10C084B
:10161000D8F8008048EA0008DFF8589009F10C0972
:10162000C9F800800DE0DFF84C8008F10C08D8F80C
:10163000008028EA0008DFF83C9009F10C09C9F89D
:1016400000805B1C102BFFF481AEBDE8F887000022
:10165000000011100010024000080140000C014081
:10166000001001400014014000180140001C01401E
:101670000800014000040140024693680B400BB192
:10168000012000E0002070470AB1016101E00B0475
:101690000361704701480068704700005000002057
:1016A0000348006803490978084401490860704705
:1016B000500000205800002010B50848006840F095
:1016C000100006490860032000F0ECF8002000F04C
:1016D00007F800F049F8002010BD0000002002408B
:1016E00070B588B0044600250026002221462C2033
:1016F00000F099F82C2000F089F800BF16488069A6
:1017000040F40050144988610846806900F4005094
:10171000019000BF00BF02A903A800F0A9F900F0E2
:10172000DFF905460D48B5FBF0F0461E0C480D49A3
:10173000086040F2E7310B48C1604660002101615A
:10174000816000F0A8FC20B9064800F0D7FC08B082
:1017500070BD0120FBE700000010024040420F0076
:10176000003401402403002008B500BF25488069EB
:1017700040F00100234988610846806900F00100BB
:10178000009000BF00BF00BF0846C06940F0805015
:10179000C8610846C06900F08050009000BF00BFDB
:1017A000032000F07FF8002211466FF00B0000F0DC
:1017B0003AF8002211466FF00A0000F034F80022D7
:1017C00011466FF0090000F02EF800221146501F5C
:1017D00000F029F800221146101F00F024F8002222
:1017E0000F21901E00F01FF800220F21501E00F064
:1017F0001AF800BF0449486820F0E06000BF486064
:1018000000BF08BD001002400000014000BF00F012
:101810001F02012191404209920002F1E022C2F828
:10182000001100BF70472DE9F05F80460D46164657
:10183000002701F05FFD074639462A46334601F08E
:101840000700C0F1070ABAF1040F02D94FF0040AE9
:1018500001E0C0F1070AD14600F1040ABAF1070F0E
:1018600002D24FF0000A01E0A0F1030AD4464FF083
:10187000010A0AFA09FAAAF1010A0AEA020A0AFAAC
:101880000CFA4FF0010B0BFA0CFBABF1010B0BEA5E
:10189000030B4AEA0B042146404601F033FDBDE844
:1018A000F09F000000BF00F00702064B19684FF6DA
:1018B000FF031940044B0B4343EA0221014B19601B
:1018C00000BF70470CED00E00000FA0570B504465B
:1018D0000D4600266248006800F00700A8420ED2BC
:1018E0005F48006820F0070028435D49086008460B
:1018F000006800F00700A84201D0012070BD2078E8
:1019000000F00200022807D15648406820F0F0009D
:10191000A168084353494860207800F0010000287E
:101920005DD06068012806D14E48006800F40030A0
:1019300090B90120E2E76068022806D149480068B2
:1019400000F0007040B90120D8E74648006800F078
:10195000020008B90120D1E74248406820F00300A6
:10196000616808433F494860FFF794FE0646606897
:10197000012810D108E0FFF78DFE801B41F288316D
:10198000884201D90320B9E73648406800F00C00CE
:101990000428F0D123E06068022810D108E0FFF7A6
:1019A00079FE801B41F28831884201D90320A5E7E6
:1019B0002C48406800F00C000828F0D10FE008E047
:1019C000FFF768FE801B41F28831884201D903206D
:1019D00094E72448406800F00C000028F0D120482B
:1019E000006800F00700A8420ED91D48006820F0EA
:1019F000070028431A4908600846006800F00700FD
:101A0000A84201D0012079E7207800F004000428E2
:101A100007D11448406820F4E060E16808431149A8
:101A20004860207800F00800082808D10D48406878
:101A300020F46050216940EAC1000A49486000F082
:101A40005FF808494968C1F30311074A515CC8406F
:101A5000064908600020FFF743FE00204EE7000023
:101A60000020024000100240407B00085C00002083
:101A70000F2202600D4A526802F0030242600B4AD4
:101A8000526802F0F0028260084A526802F4E06292
:101A9000C260064A526802F46052D2080261044AE7
:101AA000126802F007020A6070470000001002404E
:101AB0000020024001480068704700005C000020E0
:101AC00000B5FFF7F7FF04494968C1F30221034A53
:101AD000515CC84000BD000000100240507B00086F
:101AE00000B5FFF7E7FF04494968C1F3C221034A83
:101AF000515CC84000BD000000100240507B00084F
:101B0000F0B585B00FF26C0C9CE8E01001A8A0E8DD
:101B1000E0101CA52D680095002100220023002460
:101B20000020194D696801F00C05F5B1042D02D0B3
:101B3000082D19D101E0154819E001ADC1F3834624
:101B4000AC5D01F4803555B10F4D6D68C5F340456E
:101B50001DF805200D4D6543B5FBF2F302E00C4D79
:101B600004FB05F3184602E000BF084800BF00BFB1
:101B700005B0F0BD02030405060708090A0B0C0DA9
:101B80000E0F1010010200000010024000127A0037
:101B900000093D00F8B504460025207800F001005A
:101BA000002878D0F848406800F00C0004280CD0D9
:101BB000F548406800F00C00082811D1F248406850
:101BC00000F48030B0F5803F0AD1EF48006800F49F
:101BD000003000285FD0606800285CD10120F8BD8B
:101BE00000BF6068B0F5803F06D1E748006840F468
:101BF0008030E549086028E0606858B9E24800682C
:101C000020F48030E04908600846006820F4802015
:101C100008601AE06068B0F5A02F0BD1DA480068C0
:101C200040F48020D84908600846006840F48030BD
:101C300008600AE0D448006820F48030D249086087
:101C40000846006820F48020086000BF606888B102
:101C5000FFF720FD054606E0FFF71CFD401B64284A
:101C600001D90320BBE7C848006800F40030002811
:101C7000F2D010E0FFF70EFD054606E0FFF70AFD83
:101C8000401B642801D90320A9E7BF48006800F47D
:101C900000300028F2D1207800F00200022857D14D
:101CA000B948406800F00C0050B1B748406800F0F7
:101CB0000C00082818D1B448406800F4803098B966
:101CC000B148006800F0020020B12069012801D06D
:101CD000012084E7AC48006820F0F800616940EA20
:101CE000C100A949086033E02069E8B10120A74993
:101CF0000860FFF7CFFC054606E0FFF7CBFC401B72
:101D0000022801D903206AE79F48006800F002001A
:101D10000028F2D09C48006820F0F800616940EA91
:101D2000C1009949086013E0002098490860FFF756
:101D3000B1FC054606E0FFF7ADFC401B022801D9C7
:101D400003204CE79048006800F002000028F2D120
:101D5000207800F0080008282DD1A069B8B1012032
:101D60008B490860FFF796FC054606E0FFF792FCFA
:101D7000401B022801D9032031E78348406A00F064
:101D800002000028F2D0012001F0D0FA13E0002078
:101D90007F490860FFF77EFC054606E0FFF77AFC06
:101DA000401B022801D9032019E77748406A00F058
:101DB00002000028F2D1207800F00400042873D13A
:101DC00000267148C06900F0805070B900BF6E48AD
:101DD000C06940F080506C49C8610846C06900F095
:101DE0008050009000BF00BF01266A48006800F4E0
:101DF0008070B0B96748006840F480706549086039
:101E0000FFF748FC054606E0FFF744FC401B64284A
:101E100001D90320E3E65F48006800F480700028E1
:101E2000F2D000BFE068012806D15748006A40F0B0
:101E300001005549086227E0E06858B95248006A35
:101E400020F00100504908620846006A20F00400B2
:101E5000086219E0E06805280BD14B48006A40F0A1
:101E60000400494908620846006A40F0010008621F
:101E70000AE04548006A20F001004349086208462C
:101E8000006A20F00400086200BFE068A0B1FFF71C
:101E900001FC054609E0FFF7FDFB401B41F28831DC
:101EA000884202D903209AE622E03748006A00F00F
:101EB00002000028EFD012E0FFF7ECFB054608E037
:101EC000FFF7E8FB401B41F28831884201D903202B
:101ED00085E62D48006A00F002000028F0D1012EAE
:101EE00005D12948C06920F080502749C86100BF4A
:101EF000E069C8B32448406800F00C00082860D0AE
:101F0000E069022848D1002020490866FFF7C2FB9B
:101F1000054606E0FFF7BEFB401B022801D903205F
:101F20005DE61948006800F000700028F2D1206AD0
:101F3000B0F5803F07D11448406820F40030A16814
:101F4000084311494860D4E9080108430E4949682B
:101F500021F4741108430C49486001200B490866BC
:101F6000FFF798FB054607E02DE0FFF793FB401BCA
:101F7000022801D9032032E60348006800F000700F
:101F80000028F2D01FE00000001002400000424292
:101F9000800442420070004000200C490866FFF7B0
:101FA00079FB054606E0FFF775FB401B022801D9C7
:101FB000032014E60648006800F000700028F2D103
:101FC00001E001200BE6002009E60000000042428B
:101FD00000100240042808D14FF0E021096941F0C7
:101FE00004014FF0E022116107E04FF0E0210969A0
:101FF00021F004014FF0E0221161704770B50446F2
:102000002546681EB0F1807F01D301200FE0681ED5
:102010004FF0E02148610F214FF0FF3001F072F9DD
:1020200000204FF0E021886107200861002070BD8A
:1020300070477047024600BF92F83C00012801D16A
:1020400002207047012082F83C0000BF022082F885
:102050003D001068406820F07000136858601068F8
:1020600040680B681843136858601068806820F057
:10207000800013689860106880684B681843136884
:102080009860012082F83D0000BF002082F83C00EB
:1020900000BF00BFD5E710B504460CB9012010BD44
:1020A00094F83D0028B9002084F83C00204600F058
:1020B0000DF8022084F83D00211D206801F0DAFBB4
:1020C000012084F83D000020E9E7000008B5094A36
:1020D000016891420DD100BF0749C96941F0200153
:1020E000054AD1611146C96901F02001009100BF84
:1020F00000BF08BD001400400010024001460868FF
:10210000C06840F001000A68D0600868006840F0CC
:1021100001000A68106000207047704710B504463F
:1021200020680069C0F34000D8B12068C068C0F3DF
:102130004000B0B16FF002002168086101202077F3
:102140002068806900F0030018B12046FFF7E5FF22
:1021500005E0204600F0ADF8204600F0ABF8002086
:10216000207720680069C0F38000D8B12068C0687B
:10217000C0F38000B0B16FF0040021680861022054
:1021800020772068806900F4407018B12046FFF77E
:10219000C4FF05E0204600F08CF8204600F08AF8E5
:1021A0000020207720680069C0F3C000D8B1206803
:1021B000C068C0F3C000B0B16FF0080021680861CA
:1021C000042020772068C06900F0030018B1204681
:1021D000FFF7A3FF05E0204600F06BF8204600F073
:1021E00069F80020207720680069C0F30010D8B19A
:1021F0002068C068C0F30010B0B16FF01000216813
:102200000861082020772068C06900F4407018B188
:102210002046FFF782FF05E0204600F04AF82046FE
:1022200000F048F8002020772068006900F00100E5
:1022300058B12068C06800F0010030B16FF00100B3
:1022400021680861204600F037F820680069C0F373
:10225000C01058B12068C068C0F3C01030B16FF032
:102260008000216808612046FFF7E2FE20680069CF
:10227000C0F3801058B12068C068C0F3801030B13E
:102280006FF0400021680861204600F021F82068C6
:102290000069C0F3401058B12068C068C0F3401016
:1022A00030B16FF02000216808612046FFF7C1FEC1
:1022B00010BD70477047000010B504460349206800
:1022C000884201D1FFF7ECF910BD00000034014055
:1022D000704770B50446002520684069C0F3C015FA
:1022E00094F8390021280ED16DB12068406920F0A2
:1022F000800021684861206B10B1206BFEF7C6FC9E
:10230000204601F0E3FB20684069C0F3801594F893
:102310003A0022280ED16DB12068406920F04000BB
:1023200021684861606B10B1606BFEF7AFFC20461E
:1023300001F0ACFB002070BD704700002DE9F047B4
:102340000446206805682068C668206847694FF021
:102350000008C14605F00F08B8F1000F0AD105F0DA
:10236000200038B106F0200020B1204601F0B8FB73
:10237000BDE8F087B8F1000F6DD007F0010018B983
:1023800006F49070002866D005F0010030B106F424
:10239000807018B1E06B40F00100E06305F00400CC
:1023A00030B107F0010018B1E06B40F00200E063CB
:1023B00005F0020030B107F0010018B1E06B40F009
:1023C0000400E06305F0080030B107F0010018B127
:1023D000E06B40F00800E063E06B68B305F02000BC
:1023E00028B106F0200010B1204601F079FB2068EA
:1023F0004069C0F38019E06B00F0080010B9B9F132
:10240000000F22D0204601F041FB2068406900F017
:102410004000B0B12068406920F040002168486168
:10242000606B50B11748616B4863606BFEF74CFC02
:1024300010B1606B416B88470CE02046FFF77CFFD2
:1024400008E02046FFF778FF04E02046FFF774FF1E
:102450000020E0638CE705F0800030B106F08000DA
:1024600018B1204601F074FC82E705F0400030B15D
:1024700006F0400018B1204601F018FB78E700BFD5
:1024800076E70000D539000810B504460CB90120E4
:1024900010BDA06900B100E000BF94F8390028B970
:1024A000002084F83800204600F028F8242084F822
:1024B00039002068C06820F400502168C8602046B8
:1024C00001F062FB2068006920F4904021680861F7
:1024D0002068406920F02A00216848612068C068AF
:1024E00040F400502168C8600020E063202084F898
:1024F000390084F83A000020CAE7000010B586B021
:1025000004467A492068884245D100BF78488069EE
:1025100040F48040764988610846806900F4804034
:10252000019000BF00BF48150290022003900320D5
:10253000059002A96F48FEF7FFFE4FF480600290FD
:1025400000200390049002A96A48FEF7F5FE6A484D
:102550006A49086000204860002168488160802145
:10256000C1600021016141618161C161FEF74CFEE2
:1025700018B1A32162A001F0DFFD00BF5F486063D6
:10258000446200BF002205212520FFF74CF92520D9
:10259000FFF73CF9A8E05E49206888424ED100BFB1
:1025A0005348C06940F400305149C8610846C069C9
:1025B00000F40030019000BF00BF202002900220F4
:1025C00003900320059002A95248FEF7B5FE402073
:1025D000029000200390049002A94E48FEF7ACFE42
:1025E00000BF4D49486840F0E06040F00800486096
:1025F00000BF41481430494908600020486000216C
:10260000464881608021C160002101614161816192
:10261000C161FEF7F9FD18B1D32139A001F08CFD9D
:1026200000BF3E486063446200BF002205212620AF
:10263000FFF7F9F82620FFF7E9F855E03849206858
:10264000884251D100BF2A48C06940F480202849FF
:10265000C8610846C06900F48020019000BF00BF37
:1026600088150290022003900320059002A92948B2
:10267000FEF762FE4FF40070029000200390049079
:1026800002A92448FEF758FE00BF2349486820F0FD
:10269000300040F0E06040F03000486000BF164875
:1026A0002838204908600020486000211D488160CA
:1026B0008021C1600021016141618161C161FEF73A
:1026C000A3FD20B140F203110DA001F035FD00BFC4
:1026D00014486063446200BF002205212720FFF7F1
:1026E000A2F82720FFF792F806B010BD003801408D
:1026F000001002400008014058000240580200202B
:102700002E2E2F5372632F75736172742E63000027
:102710000044004000140140000001409C020020E1
:1027200000480040E002002077B581B0044615461D
:1027300094F83A00202850D1029800B115B9012030
:1027400004B070BD00BF94F83800012801D1022008
:10275000F6E7012084F8380000BF0298A062A58542
:102760000020E063222084F83A001D48616B8862F3
:102770001C48616BC8621C48616B08630020616B78
:10278000486302AE32682368191D2B46606BFEF762
:1027900085FD00BF00200090206800680090206840
:1027A0004068009000BF00BF00BF002084F83800E0
:1027B00000BF2068C06840F480702168C86020684D
:1027C000406940F00100216848612068406940F09C
:1027D0004000216848610020B2E70220B0E7000015
:1027E000393A00087F3A0008E93900087047704715
:1027F0002DE9F84304460D4616461F464FF00009E2
:1028000094F8390020285CD105B116B90120BDE843
:10281000F88300BF94F83800012801D10220F6E7C0
:10282000012084F8380000BF0020E063212084F8F4
:102830003900FEF72FFF8146A684E6842BE0E08C6A
:10284000401EE084A068B0F5805F16D14B460022A0
:1028500080212046009701F0AFFA08B10320D6E7A7
:10286000A846B8F80000C0F3080021684860206955
:1028700008B9AD1C0FE06D1C0DE04B460022802115
:102880002046009701F098FA08B10320BFE715F839
:10289000010B21684860E08C0028D0D14B46002213
:1028A00040212046009701F087FA08B10320AEE7E7
:1028B000202084F8390000BF002084F8380000BFD1
:1028C000A5E70220A3E7704700BFFEE72DE9F05F10
:1028D0004FF0000AD3463E498888FDF73FFE044684
:1028E0003C4801682046FDF71DFD82464FF04041FF
:1028F0005046FDF79FFE0FD2022240F2E731012041
:1029000000F0FAFB642001F04CFD372240F2234135
:10291000012000F0F1FB59E051462F48FDF78AFEF7
:1029200023D200215046FDF785FE1ED22849898D0D
:10293000A1F6B830FDF717FE8046284A284BFDF770
:102940009BFD06460022274BFDF7EFFC0446FDF7F2
:1029500055FE83465846FDF724FE04B2224640F257
:102960002341012000F0C8FB30E051460020FDF774
:1029700061FE1FD24FF07E515046FDF75BFE19D22B
:102980001349898DA1F6B830FDF7EDFD0646134ACF
:10299000134BFDF771FD0446FDF730FE83465846A4
:1029A000FDF7FFFD04B2224640F22341012000F072
:1029B000A3FB0BE051464FF07E50FDF73BFE05D2E6
:1029C000002240F2E731012000F096FBBDE8F09FC5
:1029D0007006002048000020000080BF7B14AE4736
:1029E000E17A843F0000F03F10B5002401229102FB
:1029F0001348FEF749FE482001F022FC00224FF464
:102A000080610F48FEF740FE4FF4347001F018FC6F
:102A1000012291020A48FEF737FE2D2001F010FC3A
:102A2000012291020648FEF72FFE4FF48061044810
:102A3000FEF722FE044600BFB42001F001FC10BDE9
:102A40000014014008B500BF1248406940F0010081
:102A5000104948610846406900F00100009000BF3D
:102A600000BF002205210D20FEF7DDFE0D20FEF740
:102A7000CDFE002205210F20FEF7D5FE0F20FEF728
:102A8000C5FE002205211020FEF7CDFE1020FEF726
:102A9000BDFE08BD0010024000B5A5B00020249086
:102AA000012124A801F08EFC4D49086000202390EC
:102AB000012123A801F086FC4A49086000202290E9
:102AC000012122A801F07EFC4749086000202190E6
:102AD000012121A801F076FC4449086000202090E3
:102AE000012120A801F06EFC4149086041480068BE
:102AF0001F90002201211FA801F0F8FC3E49086048
:102B00003C48001D00681E90002201211EA801F013
:102B1000EDFC3A49086041F288313748006801F01D
:102B2000F9FC4FF47A713548006801F0F3FC142287
:102B30003049083119A8FDF773FB002119A801F0ED
:102B4000BDFC2F49086014222A491C3114A8FDF746
:102B500067FB002114A801F0B1FC2A490860142287
:102B6000244930310FA8FDF75BFB00210FA801F0CD
:102B7000A5FC2549086014221E4944310AA8FDF726
:102B80004FFB00210AA801F099FC2049086014229B
:102B90001849583105A8FDF743FB002105A801F0AD
:102BA0008DFC1B490860142212496C316846FDF700
:102BB00037FB0021684601F081FC164908600022BD
:102BC0000421052003F034FD13490860002204218C
:102BD000142003F02DFD1149086025B000BD000050
:102BE0002000002024000020280000202C000020CD
:102BF00030000020C07A0008180000201C000020CF
:102C00000000002004000020080000200C0000202C
:102C100010000020140000203C0000204000002094
:102C200000B585B000BF2E48806940F020002C49D7
:102C300088610846806900F02000009000BF00BF56
:102C400000BF0846806940F004008861084680693A
:102C500000F00400009000BF00BF00BF084680697C
:102C600040F0080088610846806900F00800009084
:102C700000BF00BF012209151A48FEF705FD00221A
:102C80004FF480711848FEF7FFFC00221021154810
:102C9000FEF7FAFC4FF480600190112002900120B1
:102CA00003900320049001A90E48FEF745FB4FF462
:102CB000807001900120029003900320049001A9EC
:102CC0000948FEF739FB1020019001200290039083
:102CD0000320049001A90348FEF72EFB05B000BDB8
:102CE0000010024000140140000801401CB51048CB
:102CF000104908600020486000210E4881604FF6AE
:102D0000FF71C16080218161FFF7C5F918B14721CA
:102D100009A001F011FA00200090019069460548D1
:102D2000FFF788F918B14E2103A001F005FA1CBD88
:102D300000140040580100202E2E2F5372632F7470
:102D4000696D2E630000000010B50C480C49086046
:102D50004FF4E1304860002109488160C1600161A1
:102D60000C21416100218161C161FFF78DFB18B128
:102D7000522104A001F0E0F910BD0000003801402C
:102D8000980100202E2E2F5372632F757361727479
:102D90002E63000010B50D480D4908604FF4165021
:102DA000486000210A4881604FF40051C160002151
:102DB00001610C21416100218161C161FFF764FB68
:102DC00018B1652103A001F0B7F910BD004400401F
:102DD000D80100202E2E2F5372632F7573617274E9
:102DE0002E63000010B50C480C4908604FF4E13028
:102DF0004860002109488160C16001610C21416186
:102E000000218161C161FFF73FFB18B1782104A067
:102E100001F092F910BD00000048004018020020A7
:102E20002E2E2F5372632F75736172742E63000000
:102E300000BFFEE72DE9FC4107460C461546002081
:102E40000090019000268DF8007003208DF801009D
:102E500020128DF802002046E11704EB11610912DF
:102E6000A4EB0121C9B28DF8031028128DF80400DB
:102E70002846E91705EB11610912A5EB0121C9B23A
:102E80008DF805100621684601F00AFA064630461C
:102E9000F11706EB11610912A6EB0121C9B28DF8F9
:102EA000061030128DF807000821684600F0E4FF94
:102EB000BDE8FC81F8B50446002500260027002067
:102EC000009020793F2865D16079032800D002273F
:102ED000A579201DE91C425C291D405C02EB002005
:102EE00086B2E91C201D01F0DBF9B04200D00127B9
:102EF000042D02D0202D4AD10CE0D4F80700009018
:102F000004216846FDF79DFC0098FDF763FB7949B5
:102F100008843EE0D4F80700009004216846FDF7DD
:102F200090FC0098FDF756FB7249C882D4F80B005C
:102F3000009004216846FDF784FC0098FDF74AFBE9
:102F40006C490883D4F80F00009004216846FDF70F
:102F500078FC0098FDF73EFB66494883D4F81B00D7
:102F6000009004216846FDF76CFC0098FDF732FBE9
:102F700060498883D4F82300009004216846FDF757
:102F800060FC0098FDF726FB5A49C88301E003273F
:102F900000BFACE020790128FBD16079032800D084
:102FA0000227A579201DE91C425C291D405C02EB2B
:102FB000002086B2E91C201D01F072F9B04200D059
:102FC0000127262D38D0382D7ED1217AE07901EBEA
:102FD000002048494884217BE07A01EB00204549E4
:102FE0008884A17B607B01EB00204249C884217C5E
:102FF000E07B01EB00203F490885A17C607C01EB70
:1030000000203C494885217DE07C01EB00203949C6
:10301000888594F83C1094F83B0001EB002035497A
:10302000A1F8400094F83E1094F83D0001EB002018
:103030003049A1F8420059E0217AE07901EB002003
:103040002C49C885217BE07A01EB002029490886BC
:10305000A17B607B01EB002026494886217CE07B38
:1030600001EB002023498886217EE07D01EB0020D2
:103070002049C886A17E607E01EB00201D4908879B
:10308000217FE07E01EB00201A4948872220015D64
:103090002120005D01EB00201649888794F8241058
:1030A0002320005D01EB00201249C88794F8281006
:1030B00094F8270001EB00200E49A1F8440094F891
:1030C0002A1094F8290000E00EE001EB00200949E5
:1030D000A1F8460094F82C1094F82B0001EB002086
:1030E0000449A1F8440001E0032700BF00BF3846AF
:1030F000F8BD000070060020FEB507460C461546D8
:10310000002000900190029000268DF800700620AB
:103110008DF8010020128DF802002046E11704EB23
:1031200011610912A4EB0121C9B28DF80310280A1C
:103130008DF804002846E91705EB11610912A5EB8B
:103140000121C9B28DF805100621684601F0A8F8E2
:1031500006463046F11706EB11610912A6EB012174
:10316000C9B28DF8061030128DF8070008216846A4
:1031700000F082FEFEBD00002DE9F05F06460F461E
:103180009046344654B900BF502080F31188BFF3F5
:103190004F8FBFF36F8F00BF00BFFEE7206C08B9F1
:1031A000012000E0002050B900BF502080F31188BA
:1031B000BFF34F8FBFF36F8F00BF00BFFEE72068E4
:1031C00008B9606808B9012000E0002050B900BFCC
:1031D000502080F31188BFF34F8FBFF36F8F00BF74
:1031E00000BFFEE702F0ACFE00BF5021EFF31180FC
:1031F00081F31188BFF34F8FBFF36F8F00BF054678
:10320000D4F838A0E06B504543D994F945B0204636
:1032100001F0E0FF354909880840E8B194F84C0016
:1032200020B1022810D0032815D10CE0A16B4A1C54
:10323000B8F1000F01D1592100E0C3210846214611
:1032400002F05EF907E000BFA06B421C21465A2045
:1032500002F056F900BF00BF0AF10100A0630BF1B4
:10326000010070B9606A08B9012000E0002068B967
:1032700004F1240004F068F940B13FB10120386046
:1032800004E00BF1010040B284F845004FF0010961
:1032900024E0204601F09EFF144909880840D8B177
:1032A00094F84C0020B102280FD0032813D10BE072
:1032B000A26BB8F1000F01D15C2100E0C4210846E7
:1032C000214602F01DF906E000BFA26B21465D20F9
:1032D00002F016F900BF00BF4FF0000900BF85F3F0
:1032E000118800BF4846BDE8F09F0000440100205F
:1032F0007047000002480068C0F3022070470000D9
:103300000CED00E010B5002807DA0A07140E054A94
:1033100000F00F031B1FD45403E00A07130E024AE8
:10332000135410BD18ED00E000E400E008B50849B2
:103330000968C9084FF47A72B1FBF2F14143009178
:1033400000BF00BF00994A1E00920029F9D108BDB4
:103350005C00002070B500250024082525E001222E
:1033600091021448FEF790F9092000F069FF00224D
:103370004FF480610F48FEF787F964100122910233
:103380000C48FEF781F9012291020A48FEF77CF908
:103390004FF480610748FEF76FF908B144F08004EC
:1033A000242000F04DFF681EC5B2002DD7DC20465A
:1033B00070BD0000001401402DE9FC474FF0000AE9
:1033C00002F000FDFFF710FBCC2000F051FE44207E
:1033D00000F04EFE02F020FD40F2EE2000F0E1FF92
:1033E00002F0F0FCFFF700FBCC2000F041FEBE2015
:1033F00000F03EFEFFF7AEFF1F490870FFF7AAFF7F
:103400001E49087002F008FD1C4800787F280DDD79
:1034100019480078C0431849087018480078C0431C
:10342000401C1649087000201549087012480078A1
:10343000FDF7AAF806460022124BFDF71DF80446D8
:103440000D460E4909780801FDF78DF880462246A1
:103450002B46FCF76AFFCDE90001FDF7CFF8824665
:103460000748007800B101E08AF0004A01200449D1
:1034700008705046BDE8FC8744000020450000204D
:103480004C0000200000B03F2DE9F04704460E46F6
:1034900017469846DDF8209000BF2448007808B908
:1034A00000F014FE00BF21484069A04239D9EFF373
:1034B00011810846202181F3118800BF00BF0CB3A1
:1034C00004EB44021949603141F8326004EB4402D4
:1034D00001EBC2014F6004EB44021449603101EB7F
:1034E000C201C1F80880002204EB44030F49603197
:1034F00001EBC3010A6104EB44030C49603101EBA9
:10350000C301CA6004EB44020849603101EBC20107
:10351000C1F81490C1B281F3118800BF00BF00252B
:1035200001E04FF0FF352846BDE8F0872C720020FF
:103530002DE9F04704460E4617469846DDF82090E0
:1035400000BF2448007808B900F0C0FD00BF214842
:103550000069A04239D9EFF311810846202181F397
:10356000118800BF00BF0CB304EB440219491831A5
:1035700041F8326004EB440201EBC2014F6004EBFE
:1035800044021449183101EBC201C1F8088000223D
:1035900004EB44030F49183101EBC3010A6104EB4A
:1035A00044030C49183101EBC301CA6004EB440227
:1035B0000849183101EBC201C1F81490C1B281F37E
:1035C000118800BF00BF002501E04FF0FF352846FD
:1035D000BDE8F0872C7200202DE9F04104460D462D
:1035E0001646EFF311808046202080F3118800BF3B
:1035F00000BF32462946204600F00AF8074608F088
:10360000FF0080F3118800BF00BF3846BDE8F0819D
:103610002DE9F74F8346174600BF2248007808B9C6
:1036200000F054FD00BF0BEB4B011E48603000EB77
:10363000C106DDF804903569D6F80CA04FF00008FB
:10364000554515D9B068441BBC4201D2204600E064
:10365000384604467068411922464846FCF7E0FDAA
:10366000A044A1443F1B2544B068A84200D10025D6
:10367000AAEB0504BC4201D2204600E038460446CD
:103680004CB17068411922464846FCF7C9FDA04478
:10369000A1443F1B2544B8F1000F00D035614046DE
:1036A000BDE8FE8F2C7200202DE9F04104460D4646
:1036B000164600BF0D48007808B900F007FD00BFAE
:1036C000EFF311800746202080F3118800BF00BF70
:1036D00032462946204600F00BF88046F8B280F3C7
:1036E000118800BF00BF4046BDE8F0812C72002069
:1036F0002DE9F047074688461646C24607EB4701C4
:103700001B4800EBC109D9F8140020B1012811D0E1
:10371000022826D11EE0484600F010FD0546B542BD
:1037200001D2002405E0344632465146484600F0B6
:103730004CFD18E0484600F001FD0546B54201D2B7
:10374000284600E03046044622465146484600F0EE
:103750003CFD08E032465146484600F0FDFC044678
:1037600001E0002400BF00BF2046BDE8F087000054
:103770004472002010B500F099FE10BD10B590B055
:1037800001200690000407900020089001200A9074
:1037900002200D90C1030E914FF4E0110F9106A885
:1037A000FEF7F8F918B1AE2114A000F0C5FC0F2007
:1037B000019002200290002003904FF4806004905A
:1037C00000200590022101A8FEF780F818B1BC2165
:1037D0000AA000F0B1FCFEF76DF94FF47A71B0FB6E
:1037E000F1F42046FEF70AFC0420FEF7F3FB00226A
:1037F0000F21501EFEF717F810B010BD2E2E2F53BC
:1038000072632F6D61696E2E6300000011480068BD
:1038100040F001000F490860084640680E49084022
:103820000C494860084600680C490840094908608E
:103830000846006820F4802008600846406820F4AC
:10384000FE0048604FF41F008860C8030449086008
:1038500070470000001002400000FFF8FFFFF6FE76
:1038600008ED00E010B50248FEF758FC10BD00005E
:1038700024030020002202681F4B98420ED01F4BE9
:1038800098420BD0B0F1804F08D01D4B984205D024
:103890001C4B984202D01C4B984203D122F070027C
:1038A0004B681A43144B98420ED0144B98420BD0DD
:1038B000B0F1804F08D0124B984205D0114B98427E
:1038C00002D0114B984203D122F44072CB681A43C4
:1038D00022F080024B691A4302608B68C3620B6856
:1038E0008362054B984202D0044B984201D10B6988
:1038F0000363012343617047002C01400034014001
:103900000004004000080040000C004000BF4FF0E1
:10391000FF311048006800F093FDFFF74DFD0E49A0
:1039200008600E484088012804D0022809D00328E6
:103930000DD109E0002240F2E7310120FFF7DCFB66
:1039400006E0FEF7C3FF03E0FCF798FF00E000BFCE
:10395000DDE7000030000020480000207006002055
:1039600010B504460248006800F042FD10BD00009A
:103970002C00002010B504460248006800F038FD15
:1039800010BD0000300000200EB500200090002483
:103990001FE000BF002000906A46082101A802F045
:1039A00085F9044614B1692002F054F84CB9009826
:1039B000082806D101A801F0D1F910B101A801F041
:1039C000EFF900980028E5D100F0ECFE0A2002F0A3
:1039D0003DFBDEE770B505466C6A0020E085E084BB
:1039E0002046FEF7A9FC70BD70B506460025746A36
:1039F00020684069C0F3C01594F83900212805D12A
:103A000025B10020E084204600F060F8206840697D
:103A1000C0F3801594F83A00222805D125B1002082
:103A2000E085204600F032F8E06B40F01000E063E3
:103A30002046FEF781FC70BD70B505466C6A2868AB
:103A4000006800F02000B0B90020E0852068C06860
:103A500020F480702168C8602068406920F001006F
:103A6000216848612068406920F040002168486171
:103A7000202084F83A002046FEF7B8FE70BD70B5ED
:103A80000446656A2846FEF7B2FE70BD0168C96843
:103A900021F490710268D1600168496921F0010147
:103AA00002685161202180F83A10704710B5044631
:103AB0002068C06820F040002168C860202084F899
:103AC00039002046FEF7FFFE002010BD0168C968DE
:103AD00021F0C0010268D160202180F839107047C0
:103AE00070B5044694F83A0022284AD1A068B0F58F
:103AF000805F13D1A56A206940B920684068C0F38F
:103B000008002880A06A801CA06219E02068406834
:103B1000C0B22880A06A401CA06211E0206938B9B8
:103B200020684068C1B2A26A501CA062117007E010
:103B30002068406800F07F01A26A501CA0621170EA
:103B4000E08D401E80B2E085C8B92068C06820F0D2
:103B500020002168C8602068C06820F48070216857
:103B6000C8602068406920F0010021684861202079
:103B700084F83A002046FEF739FE002070BD002090
:103B8000FCE70220FAE700002DE9F0410446002599
:103B90002068006920F44050E1680843216808610A
:103BA0002169A06808436169084305432068C0682B
:103BB00041F20C61884328432168C860206840694D
:103BC00020F44070A1690843216848615F4920687A
:103BD00088425CD1FDF784FF00EBC00101EB0010CF
:103BE00061688900B0FBF1F6FDF77AFF00EBC001D8
:103BF00001EB001061688900B0FBF1F06421B0FBBB
:103C0000F1F000EBC00101EB0010A6EB80003221C7
:103C100001EB00106421B0FBF1F000F0F006FDF7BD
:103C20005FFF00EBC00101EB001061688900B0FB91
:103C3000F1F06421B0FBF1F006EB0016FDF750FF48
:103C400000EBC00101EB001061688900B0FBF1F7E7
:103C5000FDF746FF00EBC00101EB00106168890031
:103C6000B0FBF1F06421B0FBF1F000EBC00101EB1F
:103C70000010A7EB8000322101EB00106421B0FBA3
:103C8000F1F000F00F003044216888605BE0FDF740
:103C900017FF00EBC00101EB001061688900B0FB69
:103CA000F1F6FDF70DFF00EBC00101EB00106168BC
:103CB0008900B0FBF1F06421B0FBF1F000EBC00132
:103CC00001EB0010A6EB8000322101EB0010642113
:103CD000B0FBF1F000F0F006FDF7F2FE00EBC001E2
:103CE00001EB001061688900B0FBF1F06421B0FBCA
:103CF000F1F006EB0016FDF7E3FE00EBC00101EB6F
:103D0000001061688900B0FBF1F7FDF7D9FE00EB08
:103D1000C00101EB001061688900B0FBF1F0642183
:103D2000B0FBF1F000EBC00101EB0010A7EB80004D
:103D3000322101EB00106421B0FBF1F000F00F0024
:103D4000304421688860BDE8F081000000380140FF
:103D5000014691F8390021282CD18868B0F5805FA0
:103D60000FD10A6A1088C0F308000B685860086910
:103D700018B9086A801C086209E0086A401C0862D9
:103D800005E00B6A581C086218780B685860C88CEC
:103D9000401E80B2C88458B90868C06820F080000E
:103DA0000B68D8600868C06840F040000B68D860B5
:103DB000002070470220FCE72DE9F04104460D4643
:103DC00017469846069E21E0701CF8B12EB1FDF70B
:103DD00061FCA0EB0800B04218D92068C06820F44C
:103DE000D0702168C8602068406920F00100216817
:103DF0004861202084F8390084F83A0000BF002090
:103E000084F8380000BF0320BDE8F0812068006816
:103E10002840A84201D1012000E00020B842D3D0C0
:103E20000020F1E710B50649064800F0FDF8064805
:103E3000006800F0DDFA0348FEF780FA10BD0000CC
:103E400064030020980100202000002000BF4FF0F4
:103E5000FF310748006800F0F3FA0648007800F0E8
:103E600001000028F3D0002002490870EFE70000AD
:103E7000200000206403002070B504460D4601F0C8
:103E8000A1FF012210210948FDF7FEFB4FF0FF338F
:103E90002A4621460648FEF7ABFC002210210348C3
:103EA000FDF7F2FB01F0B8FF70BD00000014014007
:103EB000D801002010B50649064800F0B5F80648BC
:103EC000006800F095FA0348FEF738FA10BD0000CC
:103ED00068040020D80100202400002008B500203C
:103EE000009000BF4FF0FF311848006800F0A8FABA
:103EF0001748007800F0010010B100201449087044
:103F000013480079012804D0114800793F2800D0D7
:103F1000E8E71049086801F000FF20B14FF4827013
:103F200001F0E4FD0090009860B14FF482720849FE
:103F30000098FCF775F9074900235A1E086869467E
:103F400002F00CFE00200090CCE7000024000020CE
:103F5000680400204000002070B504460D4601F0C2
:103F600031FF012211020948FDF78EFB4FF0FF33AC
:103F70002A4621460648FEF73BFC00224FF480719A
:103F80000248FDF781FB01F047FF70BD00080140CA
:103F90001802002010B50649064800F045F806480A
:103FA000006800F025FA0348FEF7C8F910BD0000CC
:103FB0006C050020180200202800002008B5002011
:103FC000009000BF4FF0FF311348006800F038FA4E
:103FD0001248007800F0010010B100200F4908706D
:103FE0000F49086801F099FE20B14FF4827001F08A
:103FF0007DFD0090009860B14FF4827207490098EF
:10400000FCF70EF9064900235A1E0868694602F0BB
:10401000A5FD00200090D5E7280000206C050020B9
:104020003C00002000BFFEE7F8B504460D462068BE
:104030000068C0F30010D0B100BF002000902068DD
:104040000068009020684068009000BF00BF2046D4
:10405000FEF73FF9606B00684668C6F580706880BF
:10406000012028700202291D2046FEF75DFBF8BDE5
:1040700070B50446002508251FE000224FF480613A
:104080001148FDF701FB04F0010028B10122910263
:104090000D48FDF7F9FA05E000224FF480610A4867
:1040A000FDF7F2FA2D2000F0CBF80122910206482C
:1040B000FDF7EAFA6410681EC5B2002DDDDC24208D
:1040C00000F0BEF870BD00000014014010B5114CA6
:1040D00003202061606110A0A0611249E1614021CC
:1040E00021620021A1626162E1620BA020660E499B
:1040F00061661021A16600212167E16661670BA15D
:10410000E01DFCF7B1F80AA12046FCF7ADF820202D
:10411000A07110BD2C7200205465726D696E616CC7
:1041200000000000D4720020147300205254540088
:10413000534547474552000000BFFEE710B5014612
:104140000A69CB689A4204D88C68641EE41AA018E5
:1041500001E0D41A601E10BD2DE9F04704468946DF
:1041600017464FF0000AE56800BFD4F81080A84554
:1041700003D9A8EB0500461E04E0A5EB0800401C8F
:10418000A1680E1AA068401BB04201D9304601E078
:10419000A068401B0646BE4201D2304600E03846C9
:1041A00006466168481932464946FCF739F8B24478
:1041B000B144BF1B3544A068A84200D10025E5608A
:1041C000002FD2D15046BDE8F0872DE9F0470446D4
:1041D00089461546E668A068871BAF4208D9616822
:1041E00088192A464946FCF71BF87019E06010E070
:1041F000B8466168881942464946FCF711F8A5EBB4
:10420000070809EB070142466068FCF709F8C4F8A3
:104210000C80BDE8F087EFF31080704702E008C81B
:10422000121F08C1002AFAD170477047002001E030
:1042300001C1121F002AFBD1704780F3108870471C
:104240000021164A1268516214490968096841F050
:104250000101124A1268116000BF10490968496AD9
:1042600000EBC002D2009142F7D300BF0B490968AE
:10427000096A41F21112114069B908490968096ACD
:104280009210114039B905490968096821F0010106
:10429000024A1268116000BF7047000058010020F8
:1042A00030B502460B464FF6FF70002110E0545C1B
:1042B0006040002409E000F0010525B140104AF2F9
:1042C0000105684000E04010641C082CF3DB491C29
:1042D0009942ECDB30BD00BFEFF3058008B101204F
:1042E00070470020FCE70000FDF7E6F9FFF746FA0B
:1042F000FEF796FCFEF7A6FBFEF726FDFEF74AFD4D
:10430000FEF770FDFEF7F2FC4FF480721A491B486D
:10431000FEF70AFA19480068C06840F01000174913
:104320000968C8604FF4807215491648FEF7FCF919
:1043300014480068C06840F0100012490968C8605D
:104340004FF4807210491148FEF7EEF90F480068EB
:10435000C06840F010000D490968C860002002F0F4
:1043600057F802200A4948801F208880FEF794FBF6
:1043700000F023F800BFFEE768030020980100204A
:104380006C040020D80100207005002018020020D5
:104390007006002001460020842901D0CA1C104468
:1043A000704770B5044625460DB1294600E001214D
:1043B000084601F04BFE002070BD10B501F074FFFF
:1043C000002010BD70B506460D46012D0ED103220A
:1043D0000021012002F02CF904462CB100231A46DA
:1043E0001946204602F0BAFB204670BD0020FCE7CB
:1043F00038B50446002500200090FFF76CFF90B10F
:104400006946204602F00EFE012801D0FF2038BD8B
:10441000009888B14FF0805008490860BFF34F8F73
:10442000BFF36F8F08E000231A461946204602F0BA
:1044300095FB012800D0FF252846E8E704ED00E0C1
:10444000F8B506460C46002000900EB98020F8BD55
:104450000025601C08B96D1E03E014B1254605B99E
:104460000125FFF738FF98B16A460021304602F077
:10447000E3FD012801D0FF20E9E7009890B14FF05B
:10448000805009490860BFF34F8FBFF36F8F09E079
:1044900000232A461946304602F0F6F8012801D0DA
:1044A000FF20D4E70020D2E704ED00E010B502F0D1
:1044B000E3FE012801D002F0A1F810BDFEB50446CC
:1044C0000D46B4F90800FFF765FF064602A8CDE9DE
:1044D0000060238A9AB22B46D4E9001002F096FEBF
:1044E000012801D00020FEBD0298FCE7F8B5044683
:1044F0000D46164620680090012D01D1012000E0F4
:10450000002002463346012101A003F007F9F8BD5F
:10451000000000002DE9FC4106460C460027002063
:104520000190254605B90125FFF7D5FEB0B1002061
:1045300001AB2A4609210090304603F031F90128E9
:1045400001D0FF2715E0019898B14FF080500A493B
:104550000860BFF34F8FBFF36F8F0AE00020034660
:104560002A4604210090304603F01AF9012800D0B1
:10457000FF273846BDE8FC8104ED00E02DE9F0415D
:1045800005460E461C4807681C480068001D01F0DF
:10459000ADFB50B91948006890F82C1001208840F4
:1045A00017490968814316480160681C38B936B15B
:1045B00012480168091D134801F0F8FB1AE07C1944
:1045C0000E4800684460BC4207D20C480168091DCF
:1045D0000D48006801F0D0FB0CE008480168091D97
:1045E0000A48006801F0C8FB09480068844201D20B
:1045F00007480460BDE8F081980000208400002096
:104600009C000020D85700208C000020880000204B
:10461000B400002070B5044601F0D4FB3F480068A8
:10462000401C3E4908603E48006840B93C48046070
:104630000846006801280DD100F0D2FA0AE0394896
:10464000006838B936480068C06AE16A884201D813
:104650003348046034480068401C33490860084609
:10466000006860644CB304F13401204600F038FE69
:104670002046E16A00F0F0FD234604F134020321F4
:10468000012001F0CBF829480188204600F092FE75
:1046900000F096FD054600F0A7FD25490988084071
:1046A00058B1204600F0A0FD21490988084020B1FA
:1046B00021461020E26A00F023FF204600F094FD1E
:1046C0001B490988084018B12146302000F0DCFE63
:1046D00094F82C10012088401649096808431549B0
:1046E0000860E16A01EB8101134A02EB8100211DA0
:1046F00001F05CFB01F090FB0A48006868B10848D3
:104700000068C06AE16A884207D24FF080500B49C6
:104710000860BFF34F8FBFF36F8F70BD9400002010
:1047200084000020A0000020B000002046010020EE
:10473000440100209C000020FC56002004ED00E015
:1047400010B501F03FFB10480068D0B90F4801F0E8
:1047500003FB0F4801F000FB0C480E4908600C48B1
:104760000D49086000220C210A2001F061FF064972
:1047700008600846006820B108A10348006801F0FD
:104780001BFC01F049FB10BDC8000020EC570020C5
:1047900000580020C0000020C4000020546D725159
:1047A0000000000010B521480068214909688842CE
:1047B00009D91E48006810B1652001F04BF91B486B
:1047C00000681B4908601B4800681B49096888424B
:1047D00009D91848006810B1672001F03BF9154865
:1047E000006815490860154800681549096888423D
:1047F0000AD912480068192802D9662001F02AF95E
:104800000E4800680E4908600E4800680E490968A5
:10481000884209D90B48006810B1682001F01AF9E4
:10482000084800680849086010BD000034010020F5
:10483000DC00002038010020E00000203C010020C6
:10484000E400002040010020E800002070B523E0D3
:1048500001F074FD1348006808B9012000E0002051
:10486000054602F0CBFEBDB901F0ACFA0D48C068B8
:10487000C468201D01F03AFA0B480068401E0A493E
:1048800008600A480068401E0849086001F0C4FA40
:10489000204600F060F800BF044800680028D7D127
:1048A00070BD0000C457002094000020900000203C
:1048B00070B504460D46206C70B1216CE068084468
:1048C000E0606168E068884201D32068E0602846C3
:1048D000226CE168FBF7A4FC70BD2DE9F0410446B1
:1048E0000F4615464FF00008A66B206C40B92068B3
:1048F00060BB606802F09EFD80460020606025E09D
:104900007DB93946226CA068FBF78AFC216CA0684F
:104910000844A060D4E90110884217D32068A06041
:1049200014E03946226CE068FBF77AFC216CE06801
:10493000401AE0602168E068884203D2216C606818
:10494000401AE060022D01D106B1761E701CA063F2
:104950004046BDE8F08110B50446206B01F07AFABC
:10496000204601F077FA10BD0146084A1268126825
:104970000AB9012200E000220A600A6822B9034A4B
:104980001268D268106800E000207047C000002064
:104990000148406870470000001000E030B54FF457
:1049A000A043174800F007042CB1C01D20F00700F9
:1049B000134C041B1B1B0246124C22600024114D99
:1049C0006C60D018083820F007000F4C20600024DD
:1049D0000D4D2D686C600C4D2D682C601146441AED
:1049E0004C60094C24680C60084D4C682C60084DE4
:1049F0004C682C604FF00044064D2C6030BD000028
:104A0000BA0600206000002068000020700000202E
:104A10006C0000207400002000BFFFF717FF06485D
:104A200000680128F9D94FF0805004490860BFF3AD
:104A30004F8FBFF36F8FF0E7FC56002004ED00E0CE
:104A40002DE9F04705460E4617469846089C0EB9D4
:104A5000246000E02760E56326640121204602F01F
:104A600031F884F84C801B480188204600F094FC03
:104A700000F0A6FB814600F0B7FB17490988084003
:104A800030B3204600F0A6FB134909880840F8B16E
:104A900094F84C0030B101280FD0032808D0042826
:104AA00015D10FE02A462146112000F029FD0EE025
:104AB0002146122000F0E8FC09E02146132000F016
:104AC000E3FC04E02146172000F0DEFC00BF00BF3D
:104AD000BDE8F08746010020440100202DE9F05F89
:104AE00082460F4690469B460A9E0C9C4FEA8801E0
:104AF000A522206BFBF7A6FBA8F10100216B01EBBF
:104B0000800929F0070909F0070008B9012000E031
:104B1000002050B900BF502080F31188BFF34F8FA1
:104B2000BFF36F8F00BF00BFFEE7002507E0795D90
:104B300004F134004155785D00B902E06D1C102D80
:104B4000F5D300BF002143200155072E00D30626D0
:104B5000E662E66400202065201D01F00AF904F1F8
:104B6000180001F006F92461C6F10700A061646233
:104B70000020606584F858005A465146484601F0C6
:104B800083F820600B9808B10B980460BDE8F09F93
:104B90002DE9F04706460D4617469846DDE908948C
:104BA0000DB1012000E0002050B900BF502080F37B
:104BB0001188BFF34F8FBFF36F8F00BF00BFFEE7B9
:104BC0005CB1FFF7BDFD2660A561E761C4F82080F8
:104BD000C4F82490201D01F0CCF8BDE8F087000057
:104BE00010B5002407E004EB84010F4A02EB8100BA
:104BF00001F0B2F8641C072CF5D30C4801F0ACF8B6
:104C00000B4801F0A9F80B4801F0A6F80A4801F09A
:104C1000A3F80A4801F0A0F80448094908600448CC
:104C20000849086010BD0000FC560020885700208D
:104C30009C570020B0570020C4570020D8570020B0
:104C4000880000208C00002010B50146164800E0C6
:104C5000006803688B42FBD30246436813448B42CF
:104C600004D143684C682344436001460A464B68BC
:104C700013440468A34211D10C4C03682468A34276
:104C800008D04B680468646823444B6003681B6861
:104C90000B6005E0054B1B680B6001E003680B60CF
:104CA000884200D0016010BD600000206800002034
:104CB0002DE9F04104460D4616461F464FF0000808
:104CC00065602461B5420CD8F01BA169884202D30B
:104CD0004FF0010811E0211D0948006801F04CF86F
:104CE0000BE0BE4204D2BD4202D34FF0010804E003
:104CF000211D0448006801F03FF84046BDE8F081FE
:104D0000C4000020C0000020014605480068884219
:104D100003D003480160012070470020FCE7000039
:104D2000D400002070B5054601F04CF8A86B08B916
:104D3000012400E0002401F06FF8204670BD70B53A
:104D4000054601F03FF8A86BE96B884201D10124C8
:104D500000E0002401F060F8204670BD01460878AC
:104D60004B7818448B781844CB7818440B79184446
:104D70004B7918444FF6FF731A1AC879B0EB222FFB
:104D800001D0002070478879D3B2984201D000202A
:104D9000F8E70878012801DD0020F3E70120F1E7BA
:104DA00010B504462078012803D1607800F01CF982
:104DB00000E000BF00BF10BDF8B505460F4616481D
:104DC0000068C068C468201D00F090FFE0690128F9
:104DD0001DD1A06941192B463A462046FFF768FFCE
:104DE000A8B1002003462A4601460090204602F062
:104DF000D7FC064656B900BF502080F31188BFF398
:104E00004F8FBFF36F8F00BF00BFFEE700BF20468C
:104E1000616A8847F8BD0000C000002070B586B008
:104E20006AE00398002867DB059C606908B90120E7
:104E300000E0002010B9201D00F058FF02A800F08B
:104E4000BDF8054603980A2854D2DFE800F00905AA
:104E50000731334F0608323400BF00BF00BF00BF28
:104E60000498A269811803462A462046FFF720FFCE
:104E7000E8B12046616A8847E069012817D100201F
:104E800000900498A169421800231946204602F0B8
:104E900087FC064656B900BF502080F31188BFF347
:104EA0004F8FBFF36F8F00BF00BFFEE700BF22E050
:104EB00000BF20E000BF0498A061A06908B10120F4
:104EC00000E0002050B900BF502080F31188BFF3EC
:104ED0004F8FBFF36F8F00BF00BFFEE7A06941197E
:104EE0002B462A462046FFF7E3FE04E0204600F06A
:104EF000B1FF00E000BF00BF00231A4603A9044829
:104F0000006801F0C1FB00288BD106B070BD000025
:104F1000C8000020F8B505460C4601F00FFA6846B7
:104F200000F04CF80646009820BB44B9B54206D8BC
:104F300002F064FB31462846FFF73EFF1CE03CB11F
:104F40000E480068006808B9012000E0002004460F
:104F5000A91B22460A48006801F052F802F04EFBF5
:104F600050B94FF0805007490860BFF34F8FBFF32F
:104F70006F8F01E002F042FBF8BD0000C40000208A
:104F8000C800002004ED00E00A490968096809B971
:104F9000012100E0002121B14FF0FF31064A1160EC
:104FA00006E004490968C968C868034A4168116095
:104FB0007047000088000020B400002070B504464F
:104FC00002F06AF9054607480068854204D200F0FD
:104FD00051F80120206001E00020206001480560B8
:104FE000284670BDD000002070B505461B480068FB
:104FF000A84200D170BD1A48006808B9022402E036
:1050000000F0DEF80446FFF706F906460120FFF738
:1050100014F9124805600068D8B1002011490860F1
:10502000FF201149087000F0EFFA00F0AFFC00F02B
:105030002BFB0E4803680068401C0C4A1060224697
:105040000B480168012000F09BFA00F0D5FC00F04D
:10505000EDFC3046FFF7F1F800BFCBE70801002078
:105060004801002014010020FC0000200401002061
:105070001C0100202DE9F84332E024480068C06894
:10508000056822480068C068C468201D00F02EFE34
:105090002046616A8847E069012821D1A069461944
:1050A000AE4207D966602461211D1848006800F0EF
:1050B00063FE15E0002003462A4601460090204684
:1050C00002F06EFB074657B900BF502080F31188ED
:1050D000BFF34F8FBFF36F8F00BF00BFFEE700BF6E
:1050E0000A480068006808B9012000E00020002894
:1050F000C3D00648D0F8008005480068034908601E
:105100000348C0F80080BDE8F8830000C00000201C
:10511000C40000200E480068401C08B9012000E0CF
:10512000002050B900BF502080F31188BFF34F8F8B
:10513000BFF36F8F00BF00BFFEE700BF502080F3BA
:105140001188BFF34F8FBFF36F8F00BF00BFFEE723
:105150007800002008B500BF6846FFF705FC04464C
:1051600020460099FFF7D6FEFFF758FEF4E700004F
:1051700010B504460748006858B90648046000F0B6
:1051800055FC05A10D48006801F0CAF90020FFF7A1
:105190002BFF10BD000100205265636F72646572C1
:1051A0002073746F7070656420696E20707276541D
:1051B000726163654572726F72282900EC000020ED
:1051C00010B502F053F810BD10B50446204600F0AB
:1051D000A1FD10BD10B504462046FFF7F5FF4FF6C0
:1051E000FF7101EA104010BD10B50446204600F0E2
:1051F000ACFD4FF6FF7101EA104010BD10B512482A
:10520000124908601248006840F080701049086038
:1052100000BF0846006818B90320FFF7A9FF11E096
:105220000C48006800F0007018B10420FFF7A0FFE0
:1052300008E00020074948600846006840F0010087
:10524000086000BF00BF10BD55CEACC5B01F00E068
:10525000FCED00E0001000E02DE9F04706460F46A7
:10526000FEF7D9FF81460120FEF7E7FF19480568E0
:1052700000240AE0A008184901EB8008D8F80000D3
:10528000B04201D1254604E0083412480068844247
:10529000F0D300BFB5F5A07F12D2A8080E4941F89F
:1052A0002060012000EB950041F82070094800685B
:1052B00085420AD10748006808300649086004E0C2
:1052C00006480068401C054908604846FEF7B5FFDF
:1052D000BDE8F087F8000020BC70002038010020F5
:1052E0002DE9F04707460D46FEF795FF824601205F
:1052F000FEF7A3FF2448066800240AE0A00823491B
:1053000001EB8009D9F80000B84201D1264604E03B
:1053100020341D4800688442F0D300BFB6F5A06F6A
:1053200028D2B008194941F82070301D01EB00085F
:10533000002406E0285D08F80400285D00B902E0BA
:10534000641C192CF6D300BF00E0641C285D08B172
:10535000802CFAD30E480068844201D90C480460BE
:105360000948006886420AD107480068203006498B
:10537000086004E007480068401C06490860504681
:10538000FEF75BFFBDE8F087F4000020BC6B002057
:105390003C0100203401002070B505460C4628462B
:1053A000FFF712FF64F31F4006463146284600F01F
:1053B00025FE70BD70B505460C46284600F0C5FCBC
:1053C00064F31F4006463146284600F051FF70BD89
:1053D0000FB42DE9F04194B00546BDF86C00B0F56E
:1053E000805F07DB0120FFF7C3FE14B0BDE8F001CA
:1053F0005DF814FBFEF70FFF80460120FEF71DFF4E
:105400001F480068002835D0082000EB85071D489C
:105410000068401C1B49086002AC54B305F00F0043
:10542000BDF86C1041EA003020801648008860808A
:10543000FFF7AEFA60601CA8139000260AE004F1A2
:10544000080101EB86001399096801601399091D91
:105450001391761CAE42F2DB00201390019001AA5A
:105460003946204601F064F810B16A2000F0F2FAE3
:1054700000BF00BF4046FEF7E0FE00BFB5E70000FA
:1054800008010020140100202DE9FF4105460E46C9
:10549000B5F5805F04DB0120FFF76AFEBDE8FF8100
:1054A000FEF7B9FE07460120FEF7C7FE1248006866
:1054B000E8B112480068401C1049086001ACACB16A
:1054C00045F480502080084600886080FFF760FA2D
:1054D0006060A660002000906A460C21204601F022
:1054E00027F810B16A2000F0B5FA00BF00BF3846B7
:1054F000FEF7A3FE00BFD1E7080100201401002041
:105500002DE9F04186B005460E461746B5F5805F99
:1055100005DB0120FFF72CFE06B0BDE8F081FEF7A9
:105520007AFE80460120FEF788FE13480068F0B13D
:1055300012480068401C1149086002ACB4B145F43F
:1055400000502080084600886080FFF721FA6060E4
:10555000A660E7600020019001AA1021204600F01B
:10556000E7FF10B16A2000F075FA00BF00BF4046A7
:10557000FEF763FE00BFCFE7080100201401002002
:105580002DE9F04387B005460E4617469846B5F517
:10559000805F05DB0120FFF7EBFD07B0BDE8F0837E
:1055A000FEF739FE81460120FEF747FE14480068E9
:1055B00000B314480068401C1249086002ACC4B132
:1055C00045F440502080084600886080FFF7E0F9ED
:1055D0006060A660E760C4F810800020019001AA16
:1055E0001421204600F0A4FF10B16A2000F032FA26
:1055F00000BF00BF4846FEF720FE00BFCDE7000019
:10560000080100201401002030B587B0FEF703FE2A
:1056100005460120FEF711FE1748006830B301ACC3
:105620001CB316480068206015480088A08041F629
:10563000A120E0800020A06012480068E060A0681F
:10564000A06020202082282060820820A0822820BC
:10565000E082002000906A461821204600F068FF92
:1056600010B16A2000F0F6F900BF00BF2846FEF72F
:10567000E4FD07B030BD0000080100200C0100204F
:1056800010010020F0000020FEB500250024FEF7E8
:10569000C2FD07460120FEF7D0FD12480068E8B1C0
:1056A00000BF19E001AEB6B1002406E028190E498A
:1056B00051F8200046F82400641C022CF6D3002088
:1056C00000906A460821304600F032FF10B16A208F
:1056D00000F0C0F900BFAD1C502DE3D33846FEF7F3
:1056E000ACFDFEBD08010020BC7000202DE9F04F8C
:1056F00099B080468A464FF0000BD946902017900B
:105700001798B0F5805F05DB0120FFF731FD19B078
:10571000BDE8F08F002400E0641C1AF8040008B112
:10572000342CF9DB201DC11700EB91718910189101
:10573000B8F1000F05D00BF1010B1798401C80B297
:1057400017904FEA8B09189800EB0B060F2E0CDD13
:10575000A6F10F0188002E490968884201D92C4919
:1057600008600F26C9F13C0400BFFEF754FD1690F7
:105770000120FEF762FD27480068002843D008207A
:1057800000EB8600159024480068401C2249086000
:1057900004ADBDB306F00F01179840EA0130288030
:1057A0001D4800886880FFF7F3F8686005F108007D
:1057B0000390B8F1000F02D00398C0F8008005F103
:1057C00008000290002706E01AF8071009EB07020C
:1057D000029881547F1CA742F6DBC9F13C00A0422D
:1057E00004DD002109EB040202988154002001909D
:1057F00001AA2846159900F09BFE10B16A2000F01E
:1058000029F900BF00BF1698FEF717FD00BF7EE71D
:105810004001002008010020140100200FB4FEB553
:1058200005460E46002400E0641C0A98005D08B19D
:10583000342CF9DB0BA8029002A80A992346002217
:10584000CDE900103146284600F006F8002002900D
:10585000FEBC5DF814FB00002DE9F04F97B0074641
:105860008B46914698464FF0000ABBF5805F05DBFA
:105870000120FFF77DFC17B0BDE8F08F08F10400B0
:10588000C11700EB917189101691B9F1000F00D08A
:105890007F1C4FEA870A1698C6190F2E0CDDA6F159
:1058A0000F01880036490968884201D934490860E7
:1058B0000F26CAF13C0800BFFEF7ADFC1590012091
:1058C000FEF7BBFC2F480068002853D0082000EBEF
:1058D000860014902C480068401C2B49086003ADDA
:1058E000002D46D006F00F004BEA00302880084615
:1058F00000886880FFF74CF8686005F108000290A6
:10590000002411E0B9F1000F04D01CB9029840F84E
:10591000249008E021980268101D21990860116800
:10592000029840F82410641CBC42EBDB05F108002F
:105930000190002406E02098015D0AEB0402019822
:105940008154641C4445F6DBCAF13C00404504DD4B
:1059500000210AEB080201988154002000906A4659
:105960002846149900F0E4FD10B16A2000F072F8A6
:1059700000BF00BF1598FEF760FC00BF7BE700008A
:10598000400100200801002014010020F0B589B07A
:1059900000250024FEF73FFC07460120FEF74DFCE2
:1059A00013480068F0B100BF19E001AEB6B10024A1
:1059B00006E028190F4951F8200046F82400641C1D
:1059C000082CF6D3002000906A462021304600F0D3
:1059D000AFFD10B16A2000F03DF800BF0835B5F505
:1059E000A07FE2D33846FEF728FC09B0F0BD0000E6
:1059F00008010020BC6B00201CB50A48006818B9DB
:105A00000948006807490860002001214FF47A73B3
:105A1000CDE900100348022102680420FFF7D8FCFA
:105A20001CBD0000200100205C00002010B50748CC
:105A3000006848B101F0F6FE044624B1214604484E
:105A4000006800F06DFD00BF10BD000008010020DF
:105A5000EC00002010B504460348006818B902485D
:105A60000460FFF7E3FF10BD0001002070B504469D
:105A700000F0A8F994F9455010E0606A08B90120D7
:105A800000E0002038B904F1240001F05DFD18B1F8
:105A900000F018FB00E003E0681E45B2002DECDCCE
:105AA00000BFFF2084F8450000F0B6F900F08AF945
:105AB00094F9445010E0206908B9012000E000206A
:105AC00048B904F1100001F03FFD08B100F0FAFA06
:105AD000681E45B200E001E0002DECDC00BFFF20B5
