:020000040800F2
:10000000305B0020DD01000855260008752000083F
:100010008D230008C9020008A52E0008000000007A
:100020000000000000000000000000004501000882
:10003000290300080000000089010008B926000813
:10004000F7010008F7010008F7010008F7010008B0
:10005000F7010008F7010008F7010008F7010008A0
:10006000F7010008F7010008F7010008F701000890
:10007000F7010008CD020008F7010008DD020008C2
:10008000ED020008F7010008F7010008F701000879
:10009000F7010008F7010008F7010008F701000860
:1000A000F7010008F7010008F7010008F701000850
:1000B000F7010008F7010008F7010008F701000840
:1000C000F7010008F7010008F7010008F701000830
:1000D000F7010008B52C00083D2D0008152E00087A
:1000E000F7010008F7010008F7010008F701000810
:1000F000A9270008F7010008F7010008F701000828
:10010000F7010008F7010008F7010008F7010008EF
:10011000F7010008F7010008F7010008F7010008DF
:10012000F7010008F7010008F7010008F7010008CF
:10013000DFF80CD000F09CF800480047592F000869
:10014000305B0020224B19680868B0E8F00F80F39C
:100150000988BFF36F8F4FF0000080F311884EF0D5
:100160000D0E70470000000006480068006880F32C
:10017000088862B661B6BFF34F8FBFF36F8F00DFA1
:1001800000BF00BF08ED00E0EFF30980BFF36F8F01
:100190000F4B1A6820E9F00F106008B54FF05000BF
:1001A00080F31188BFF34F8FBFF36F8F04F026F8F1
:1001B0004FF0000080F31188BDE808401968086816
:1001C000B0E8F00F80F30988BFF36F8F704700BF6E
:1001D00064000020EFF30580704700000648804768
:1001E00006480047FEE7FEE7FEE7FEE7FEE7FEE71C
:1001F000FEE7FEE7FEE7FEE75127000831010008B1
:1002000040EA01039B0703D009E008C9121F08C098
:10021000042AFAD203E011F8013B00F8013B521E18
:10022000F9D27047D2B201E000F8012B491EFBD28F
:1002300070470022F6E710B513460A4604461946F1
:10024000FFF7F0FF204610BD20F00040C10DC0F3C5
:10025000160040F400007F2901DA0020704796293B
:1002600003DCC1F19601C840704796398840704759
:10027000064C074D06E0E06840F0010394E80700F3
:1002800098471034AC42F6D3FFF756FFF4500008FD
:100290001451000830B5A1B005460C46802101A8D4
:1002A000FFF7C7FF2246294601A8FFF7A9FF002054
:1002B00006E0611E091A01AA515C2954411CC8B20A
:1002C000A042F6DB21B030BD00BFFEE710B502480A
:1002D00000F0F6F910BD0000FC01002010B5024846
:1002E00000F0EEF910BD00007401002010B50248C6
:1002F00000F0E6F910BD0000B801002030B590F81C
:1003000040500124AC40C56B6C6004686360446875
:10031000102C04D10468A2600468E16003E0046862
:10032000A1600468E26030BD704700001CB5002089
:100330000190002400260027002532A000680090CC
:1003400000BF314900235A1E086801A904F032F8A1
:100350000198007955284ED101984079AA284AD1B0
:1003600001988079022846D10198817BC07B01EBFE
:10037000002084B20198001D04F10C01425C019838
:10038000001D491C405C02EB002086B2C91E01988A
:10039000801D02F0BEFDB0422DD1601EC11700EBE2
:1003A0009171C1F3870700201FE081000D31019A90
:1003B000121D535C81000E31019A121D515C03EB3A
:1003C00001218DB20A2D0EDC81000F31019A121D20
:1003D000535C81001031019A121D515C03EB012125
:1003E0000A4A22F81510411CC8B2B842DDDB0221CE
:1003F000684602F0F5FC019803F02AFD0020019008
:100400009FE7000080020000280000208C050020EB
:1004100008B50020009000BF4FF0FF312D48006864
:1004200002F02EFE1C224FF49661012001F0B0FF75
:10043000294900234FF4FA720868694603F0BAFFAD
:10044000132241F2F031012001F0A2FF009801F0E7
:10045000DFFF009803F0FCFC002000901E49002301
:100460004FF4FA720868694603F0A4FF10225102A3
:100470003F2001F08DFF009801F0CAFF009803F0C3
:10048000E7FC00200090144900234FF4FA7208683A
:10049000694603F08FFF022251033F2001F078FFED
:1004A000009801F0B5FF009803F0D2FC0020009006
:1004B000094900234FF4FA720868694603F07AFF8D
:1004C000009801F0A5FF009803F0C2FC0020009006
:1004D000A2E70000240000202C000020014600209C
:1004E0000A68126822F00E020B681A600A68126825
:1004F00022F001020B681A6091F8403001229A4004
:10050000CB6B5A60012281F8212000BF002281F8C4
:10051000202000BF7047000070B50446002594F805
:100520002100022803D00420A0630125C1E0206837
:10053000006820F00E00216808602068006820F044
:100540000100216808605C492068884252D95A49F4
:1005500078392068884201D1012047E05649643942
:100560002068884201D1102040E05349503920686A
:10057000884201D1801539E04F493C3920688842D2
:1005800001D1801432E04C4928392068884202D1D8
:100590004FF480302AE0484914392068884202D15B
:1005A0004FF4801022E044492068884201D1400481
:1005B0001CE042492068884201D1012016E03F49F1
:1005C00014312068884201D110200FE03B492831C6
:1005D0002068884201D1801508E038493C31206804
:1005E000884201D1801401E04FF480303349091F63
:1005F000086051E0304978392068884201D10120F3
:1006000047E02D4964392068884201D1102040E03C
:10061000294950392068884201D1801539E026499E
:100620003C392068884201D1801432E022492839BF
:100630002068884202D14FF480302AE01E491439E4
:100640002068884202D14FF4801022E01A492068C5
:10065000884201D140041CE018492068884201D139
:10066000012016E0154914312068884201D110207C
:100670000FE0124928312068884201D1801508E036
:100680000E493C312068884201D1801401E04FF4CA
:100690008030094980394860012084F8210000BF7A
:1006A000002084F8200000BF606B10B12046616B11
:1006B0008847284670BD00008000024008040240C0
:1006C00070B50446E06B05682068066894F8401031
:1006D000042088402840002875D006F00400002837
:1006E000FAD02068006800F0200028B9206800686F
:1006F00020F0040021680860D5492068884254D958
:10070000D34978392068884201D1042049E0D04992
:1007100064392068884201D1402042E0CC495039F8
:100720002068884201D100153BE0C9493C39206866
:10073000884202D14FF4804033E0C549283920680F
:10074000884202D14FF480202BE0C149143920683F
:10075000884202D14FF4800023E0BD4920688842DE
:1007600001D1C0041DE0BB492068884201D10420AA
:1007700017E0B84914312068884201D1402010E0C8
:10078000B44928312068884201D1001509E0B149F7
:100790003C312068884202D14FF4804001E04FF4A0
:1007A0008020AC49091F086054E0A94978392068C5
:1007B000884201D104204AE0A54964392068884272
:1007C00002D1402043E04CE0A149503920688842E2
:1007D00001D100153BE09E493C392068884202D196
:1007E0004FF4804033E09A4928392068884202D18A
:1007F0004FF480202BE0964914392068884202D1BA
:100800004FF4800023E092492068884201D1C0045F
:100810001DE090492068884201D1042017E08D49ED
:1008200014312068884201D1402010E089492831E4
:100830002068884201D1001509E086493C312068D2
:10084000884202D14FF4804001E04FF4802080497B
:1008500080394860E06A002802D02046E16A884773
:10086000F4E094F84010022088402840002871D01D
:1008700006F002000028FAD02068006800F020008E
:1008800040B92068006820F00A0021680860012053
:1008900084F821006E492068884254D96C4978391F
:1008A0002068884201D1022049E069496439206802
:1008B000884201D1202042E06549503920688842B1
:1008C00001D140153BE062493C392068884202D1A1
:1008D0004FF4005033E05E4928392068884202D145
:1008E0004FF400302BE05A4914392068884202D175
:1008F0004FF4001023E056492068884201D180045B
:100900001DE054492068884201D1022017E0514976
:1009100014312068884201D1202010E04D4928314F
:100920002068884201D1401509E04A493C312068DD
:10093000884202D14FF4005001E04FF400304549A5
:10094000091F086054E0424978392068884202D182
:1009500002204AE057E03E4964392068884201D1CC
:10096000202042E03A4950392068884201D14015A0
:100970003BE037493C392068884202D14FF40050AF
:1009800033E0334928392068884202D14FF40030DF
:100990002BE02F4914392068884202D14FF400100F
:1009A00023E02B492068884201D180041DE02949B9
:1009B0002068884201D1022017E0264914312068BE
:1009C000884201D1202010E0224928312068884245
:1009D00001D1401509E01F493C312068884202D10D
:1009E0004FF4005001E04FF400301949803948605D
:1009F00000BF002084F8200000BFA06A30B320466A
:100A0000A16A884722E094F84010082088402840D6
:100A1000E0B106F00800C8B12068006820F00E00C0
:100A20002168086094F8401001208840E16B48601C
:100A30000120A06384F8210000BF002084F820007A
:100A400000BF206B10B12046216B884770BD0000AD
:100A500080000240080402400146002209B901203A
:100A60007047204B086898420BD21F4B0868C01A89
:100A70001423B0FBF3F0800008641B480838C863F7
:100A80000AE0184B0868C01A1423B0FBF3F080008A
:100A9000086414480838C863022081F821000868F7
:100AA000026843F6F0708243D1E901031843CB6832
:100AB00018430B6918434B6918438B691843CB697A
:100AC000184302430868026000208862C862086315
:100AD00048638863012081F82100002081F820000C
:100AE00000BFBDE708040240080002402DE9F041C4
:100AF00004460D4616461F464FF0000800BF94F806
:100B00002000012802D10220BDE8F081012084F8F4
:100B1000200000BF94F8210001282CD1022084F885
:100B200021000020A0632068006820F001002168F7
:100B300008603B46324629462046FFF7DFFBE06A65
:100B400030B12068006840F00E00216808600BE0BA
:100B50002068006820F004002168086020680068B0
:100B600040F00A00216808602068006840F0010039
:100B70002168086006E000BF002084F8200000BF64
:100B80004FF002084046BFE72DE9F847024600242F
:100B9000002000258446002700237BE14FF0010858
:100BA00008FA03F4D1F8008008EA0400A0427DD1DD
:100BB000DFF8ECA2D1F80480A8EB0A09D0453AD0BE
:100BC00014DCB8F1030F50D009DCB8F1000F31D0BC
:100BD000B8F1010F1CD0B8F1020F49D120E0B8F1F3
:100BE000110F18D0B8F1120F42D11EE0B9F5881FCD
:100BF00025D006DCB9F5803F20D0B9F5801F37D16C
:100C00001AE0B9F5001F18D0B9F5041F30D117E06C
:100C1000D1F80CC02DE0D1F80C8008F1040C28E0CC
:100C2000D1F80C8008F1080C23E0D1F80C8008F111
:100C30000C0C1EE000BF00BF00BF00BF00BF00BF24
:100C4000D1F80880B8F1000F02D14FF0040C0BE08E
:100C5000D1F80880B8F1010F03D14FF0080C1461EE
:100C600002E04FF0080C546103E04FF0000C00E08C
:100C700000BF00BFFF2801D8904601E002F1040840
:100C80004646FF2802D84FEA830803E0A3F108088C
:100C90004FEA88084746D6F800804FF00F0909FA56
:100CA00007F928EA09080CFA07F900E07AE048EAAF
:100CB0000908C6F80080D1F8048008F08058B8F11F
:100CC000805F6FD100BFDFF8DC81D8F8188048F072
:100CD0000108DFF8D091C9F81880C846D8F8188004
:100CE00008F00108CDF8008000BF00BF4FEAB93816
:100CF0004FEA930958F829504FEA83784FEA187958
:100D00004FF00F0808FA09F825EA0805DFF898817E
:100D1000424502D14FF0000824E0DFF890814245BF
:100D200002D14FF001081DE0DFF88481424502D175
:100D30004FF0020816E0DFF87C81424502D14FF007
:100D400003080FE0DFF87081424502D14FF004083C
:100D500008E0DFF86881424502D14FF0050801E064
:100D60004FF006084FEA83794FEA197908FA09F833
:100D700048EA0505DFF848814FEA930948F8295009
:100D8000D1F8048008F48038B8F5803F0BD1DFF843
:100D90003481D8F8008048EA0008DFF82891C9F8C3
:100DA00000800AE075E0DFF81C81D8F8008028EAAE
:100DB0000008DFF81091C9F80080D1F8048008F429
:100DC0000038B8F5003F0ED1DFF8F88008F10408CC
:100DD000D8F8008048EA0008DFF8E89009F1040933
:100DE000C9F800800DE0DFF8DC8008F10408D8F8CD
:100DF000008028EA0008DFF8CC9009F10409C9F85E
:100E00000080D1F8048008F48018B8F5801F0ED156
:100E1000DFF8B08008F10808D8F8008048EA000838
:100E2000DFF8A09009F10809C9F800800DE0DFF8AB
:100E3000948008F10808D8F8008028EA0008DFF854
:100E4000849009F10809C9F80080D1F8048008F4F9
:100E50000018B8F5001F0ED1DFF8688008F10C0803
:100E6000D8F8008048EA0008DFF8589009F10C092A
:100E7000C9F800800DE0DFF84C8008F10C08D8F8C4
:100E8000008028EA0008DFF83C9009F10C09C9F855
:100E900000805B1C102BFFF481AEBDE8F8870000DA
:100EA000000011100010024000080140000C014039
:100EB000001001400014014000180140001C0140D6
:100EC00008000140000401400AB1016101E00B0487
:100ED000036170470148006870470000300000203F
:100EE00003480068034909780844014908607047CD
:100EF000300000203800002010B50848006840F09D
:100F0000100006490860032000F0ECF8002000F013
:100F100007F800F049F8002010BD00000020024052
:100F200070B588B0044600250026002221462C20FA
:100F300000F099F82C2000F089F800BF164880696D
:100F400040F40050144988610846806900F400505C
:100F5000019000BF00BF02A903A800F0A9F900F0AA
:100F6000DFF905460D48B5FBF0F0461E0C480D496B
:100F7000086040F2E7310B48C16046600021016122
:100F8000816000F077FC20B9064800F08EFC08B0C4
:100F900070BD0120FBE700000010024040420F003E
:100FA000003401404002002008B500BF2548806998
:100FB00040F00100234988610846806900F0010083
:100FC000009000BF00BF00BF0846C06940F08050DD
:100FD000C8610846C06900F08050009000BF00BFA3
:100FE000032000F07FF8002211466FF00B0000F0A4
:100FF0003AF8002211466FF00A0000F034F800229F
:1010000011466FF0090000F02EF800221146501F23
:1010100000F029F800221146101F00F024F80022E9
:101020000F21901E00F01FF800220F21501E00F02B
:101030001AF800BF0449486820F0E06000BF48602B
:1010400000BF08BD001002400000014000BF00F0DA
:101050001F02012191404209920002F1E022C2F8F0
:10106000001100BF70472DE9F05F80460D4616461F
:10107000002701F0F1FA074639462A46334601F0C7
:101080000700C0F1070ABAF1040F02D94FF0040AB1
:1010900001E0C0F1070AD14600F1040ABAF1070FD6
:1010A00002D24FF0000A01E0A0F1030AD4464FF04B
:1010B000010A0AFA09FAAAF1010A0AEA020A0AFA74
:1010C0000CFA4FF0010B0BFA0CFBABF1010B0BEA26
:1010D000030B4AEA0B042146404601F0C5FABDE87D
:1010E000F09F000000BF00F00702064B19684FF6A2
:1010F000FF031940044B0B4343EA0221014B1960E3
:1011000000BF70470CED00E00000FA0570B5044622
:101110000D4600266248006800F00700A8420ED283
:101120005F48006820F0070028435D4908600846D2
:10113000006800F00700A84201D0012070BD2078AF
:1011400000F00200022807D15648406820F0F00065
:10115000A168084353494860207800F00100002846
:101160005DD06068012806D14E48006800F4003068
:1011700090B90120E2E76068022806D1494800687A
:1011800000F0007040B90120D8E74648006800F040
:10119000020008B90120D1E74248406820F003006E
:1011A000616808433F494860FFF794FE064660685F
:1011B000012810D108E0FFF78DFE801B41F2883135
:1011C000884201D90320B9E73648406800F00C0096
:1011D0000428F0D123E06068022810D108E0FFF76E
:1011E00079FE801B41F28831884201D90320A5E7AE
:1011F0002C48406800F00C000828F0D10FE008E00F
:10120000FFF768FE801B41F28831884201D9032034
:1012100094E72448406800F00C000028F0D12048F2
:10122000006800F00700A8420ED91D48006820F0B1
:10123000070028431A4908600846006800F00700C4
:10124000A84201D0012079E7207800F004000428AA
:1012500007D11448406820F4E060E1680843114970
:101260004860207800F00800082808D10D48406840
:1012700020F46050216940EAC1000A49486000F04A
:101280005FF808494968C1F30311074A515CC84037
:10129000064908600020FFF743FE00204EE70000EB
:1012A0000020024000100240905000083C00002046
:1012B0000F2202600D4A526802F0030242600B4A9C
:1012C000526802F0F0028260084A526802F4E0625A
:1012D000C260064A526802F46052D2080261044AAF
:1012E000126802F007020A60704700000010024016
:1012F0000020024001480068704700003C000020C8
:1013000000B5FFF7F7FF04494968C1F30221034A1A
:10131000515CC84000BD000000100240A050000811
:1013200000B5FFF7E7FF04494968C1F3C221034A4A
:10133000515CC84000BD000000100240A0500008F1
:10134000F0B585B00FF26C0C9CE8E01001A8A0E8A5
:10135000E0101CA52D680095002100220023002428
:101360000020194D696801F00C05F5B1042D02D07B
:10137000082D19D101E0154819E001ADC1F38346EC
:10138000AC5D01F4803555B10F4D6D68C5F3404536
:101390001DF805200D4D6543B5FBF2F302E00C4D41
:1013A00004FB05F3184602E000BF084800BF00BF79
:1013B00005B0F0BD02030405060708090A0B0C0D71
:1013C0000E0F1010010200000010024000127A00FF
:1013D00000093D00F8B504460025207800F0010022
:1013E000002878D0F848406800F00C0004280CD0A1
:1013F000F548406800F00C00082811D1F248406818
:1014000000F48030B0F5803F0AD1EF48006800F466
:10141000003000285FD0606800285CD10120F8BD52
:1014200000BF6068B0F5803F06D1E748006840F42F
:101430008030E549086028E0606858B9E2480068F3
:1014400020F48030E04908600846006820F48020DD
:1014500008601AE06068B0F5A02F0BD1DA48006888
:1014600040F48020D84908600846006840F4803085
:1014700008600AE0D448006820F48030D24908604F
:101480000846006820F48020086000BF606888B1CA
:10149000FFF720FD054606E0FFF71CFD401B642812
:1014A00001D90320BBE7C848006800F400300028D9
:1014B000F2D010E0FFF70EFD054606E0FFF70AFD4B
:1014C000401B642801D90320A9E7BF48006800F445
:1014D00000300028F2D1207800F00200022857D115
:1014E000B948406800F00C0050B1B748406800F0BF
:1014F0000C00082818D1B448406800F4803098B92E
:10150000B148006800F0020020B12069012801D034
:10151000012084E7AC48006820F0F800616940EAE7
:10152000C100A949086033E02069E8B10120A7495A
:101530000860FFF7CFFC054606E0FFF7CBFC401B39
:10154000022801D903206AE79F48006800F00200E2
:101550000028F2D09C48006820F0F800616940EA59
:10156000C1009949086013E0002098490860FFF71E
:10157000B1FC054606E0FFF7ADFC401B022801D98F
:1015800003204CE79048006800F002000028F2D1E8
:10159000207800F0080008282DD1A069B8B10120FA
:1015A0008B490860FFF796FC054606E0FFF792FCC2
:1015B000401B022801D9032031E78348406A00F02C
:1015C00002000028F2D0012001F062F813E00020B0
:1015D0007F490860FFF77EFC054606E0FFF77AFCCE
:1015E000401B022801D9032019E77748406A00F020
:1015F00002000028F2D1207800F00400042873D102
:1016000000267148C06900F0805070B900BF6E4874
:10161000C06940F080506C49C8610846C06900F05C
:101620008050009000BF00BF01266A48006800F4A7
:101630008070B0B96748006840F480706549086000
:10164000FFF748FC054606E0FFF744FC401B642812
:1016500001D90320E3E65F48006800F480700028A9
:10166000F2D000BFE068012806D15748006A40F078
:1016700001005549086227E0E06858B95248006AFD
:1016800020F00100504908620846006A20F004007A
:10169000086219E0E06805280BD14B48006A40F069
:1016A0000400494908620846006A40F001000862E7
:1016B0000AE04548006A20F00100434908620846F4
:1016C000006A20F00400086200BFE068A0B1FFF7E4
:1016D00001FC054609E0FFF7FDFB401B41F28831A4
:1016E000884202D903209AE622E03748006A00F0D7
:1016F00002000028EFD012E0FFF7ECFB054608E0FF
:10170000FFF7E8FB401B41F28831884201D90320F2
:1017100085E62D48006A00F002000028F0D1012E75
:1017200005D12948C06920F080502749C86100BF11
:10173000E069C8B32448406800F00C00082860D075
:10174000E069022848D1002020490866FFF7C2FB63
:10175000054606E0FFF7BEFB401B022801D9032027
:101760005DE61948006800F000700028F2D1206A98
:10177000B0F5803F07D11448406820F40030A168DC
:10178000084311494860D4E9080108430E494968F3
:1017900021F4741108430C49486001200B49086684
:1017A000FFF798FB054607E02DE0FFF793FB401B92
:1017B000022801D9032032E60348006800F00070D7
:1017C0000028F2D01FE0000000100240000042425A
:1017D000800442420070004000200C490866FFF778
:1017E00079FB054606E0FFF775FB401B022801D98F
:1017F000032014E60648006800F000700028F2D1CB
:1018000001E001200BE6002009E600000000424252
:1018100000100240042808D14FF0E021096941F08E
:1018200004014FF0E022116107E04FF0E021096967
:1018300021F004014FF0E0221161704770B50446B9
:101840002546681EB0F1807F01D301200FE0681E9D
:101850004FF0E02148610F214FF0FF3000F004FF0E
:1018600000204FF0E021886107200861002070BD52
:101870007047704710B504460CB9012010BD94F8AC
:101880003D0028B9002084F83C00204600F00CF808
:10189000022084F83D00211D206800F08DFF01200A
:1018A00084F83D000020E9E7704701460868C068F9
:1018B00040F001000A68D0600868006840F001004C
:1018C0000A68106000207047704710B50446206811
:1018D0000069C0F34000D8B12068C068C0F3400080
:1018E000B0B16FF002002168086101202077206804
:1018F000806900F0030018B12046FFF7E5FF05E01E
:10190000204600F0ADF8204600F0ABF8002020772C
:1019100020680069C0F38000D8B12068C068C0F3B7
:101920008000B0B16FF004002168086102202077C8
:101930002068806900F4407018B12046FFF7C4FFAA
:1019400005E0204600F08CF8204600F08AF80020E0
:10195000207720680069C0F3C000D8B12068C06853
:10196000C0F3C000B0B16FF0080021680861042026
:1019700020772068C06900F0030018B12046FFF707
:10198000A3FF05E0204600F06BF8204600F069F860
:101990000020207720680069C0F30010D8B12068CB
:1019A000C068C0F30010B0B16FF01000216808618A
:1019B000082020772068C06900F4407018B12046E4
:1019C000FFF782FF05E0204600F04AF8204600F0CD
:1019D00048F8002020772068006900F0010058B125
:1019E0002068C06800F0010030B16FF0010021688C
:1019F0000861204600F036F820680069C0F3C01086
:101A000058B12068C068C0F3C01030B16FF08000DA
:101A1000216808612046FFF72BFF20680069C0F3AA
:101A2000801058B12068C068C0F3801030B16FF0EA
:101A3000400021680861204600F020F82068006915
:101A4000C0F3401058B12068C068C0F3401030B1F6
:101A50006FF02000216808612046FFF70AFF10BDE3
:101A60007047704710B5044603492068884201D189
:101A7000FFF736FA10BD000000340140704770B522
:101A80000446002520684069C0F3C01594F8390069
:101A900021280ED16DB12068406920F080002168B6
:101AA0004861206B10B1206BFEF718FD204600F056
:101AB00055FF20684069C0F3801594F83A00222849
:101AC0000ED16DB12068406920F040002168486166
:101AD000606B10B1606BFEF701FD204600F01EFF49
:101AE000002070BD704700002DE9F04704462068D3
:101AF00005682068C668206847694FF00008C1463D
:101B000005F00F08B8F1000F0AD105F0200038B138
:101B100006F0200020B1204600F02AFFBDE8F08743
:101B2000B8F1000F6DD007F0010018B906F49070FD
:101B3000002866D005F0010030B106F4807018B1BD
:101B4000E06B40F00100E06305F0040030B107F005
:101B5000010018B1E06B40F00200E06305F0020004
:101B600030B107F0010018B1E06B40F00400E06311
:101B700005F0080030B107F0010018B1E06B40F04B
:101B80000800E063E06B68B305F0200028B106F0C0
:101B9000200010B1204600F0EBFE20684069C0F341
:101BA0008019E06B00F0080010B9B9F1000F22D0E5
:101BB000204600F0B3FE2068406900F04000B0B15C
:101BC0002068406920F0400021684861606B50B196
:101BD0001748616B4863606BFEF79EFC10B1606B49
:101BE000416B88470CE02046FFF77CFF08E0204669
:101BF000FFF778FF04E02046FFF774FF0020E06362
:101C00008CE705F0800030B106F0800018B1204666
:101C100000F0E6FF82E705F0400030B106F040003A
:101C200018B1204600F08AFE78E700BF76E7000092
:101C30006528000810B504460CB9012010BDA06944
:101C400000B100E000BF94F8390028B9002084F802
:101C50003800204600F028F8242084F83900206855
:101C6000C06820F400502168C860204600F0D4FE0F
:101C70002068006920F4904021680861206840696C
:101C800020F02A00216848612068C06840F40050B4
:101C90002168C8600020E063202084F8390084F8BF
:101CA0003A000020CAE7000010B586B004467A4921
:101CB0002068884245D100BF7848806940F4804060
:101CC000764988610846806900F48040019000BF31
:101CD00000BF48150290022003900320059002A93E
:101CE0006F48FEF751FF4FF4806002900020039090
:101CF000049002A96A48FEF747FF6A486A490860EB
:101D0000002048600021684881608021C160002176
:101D1000016141618161C161FEF79EFE18B1A3219D
:101D200062A001F0E5F800BF5F486063446200BF55
:101D3000002205212520FFF796F92520FFF786F9D7
:101D4000A8E05E49206888424ED100BF5348C06970
:101D500040F400305149C8610846C06900F40030C1
:101D6000019000BF00BF20200290022003900320BA
:101D7000059002A95248FEF707FF4020029000207C
:101D80000390049002A94E48FEF7FEFE00BF4D49A5
:101D9000486840F0E06040F00800486000BF4148FB
:101DA000143049490860002048600021464881609D
:101DB0008021C1600021016141618161C161FEF743
:101DC0004BFE18B1D32139A001F092F800BF3E4874
:101DD0006063446200BF002205212620FFF743F91B
:101DE0002620FFF733F955E038492068884251D161
:101DF00000BF2A48C06940F480202849C8610846CD
:101E0000C06900F48020019000BF00BF88150290D7
:101E1000022003900320059002A92948FEF7B4FE92
:101E20004FF40070029000200390049002A924480F
:101E3000FEF7AAFE00BF2349486820F0300040F0BA
:101E4000E06040F03000486000BF16482838204964
:101E500008600020486000211D4881608021C16029
:101E60000021016141618161C161FEF7F5FD20B191
:101E700040F203110DA001F03BF800BF144860636D
:101E8000446200BF002205212720FFF7ECF827203D
:101E9000FFF7DCF806B010BD00380140001002402A
:101EA0000008014058000240740100202E2E2F53DC
:101EB00072632F75736172742E63000000440040DA
:101EC0000014014000000140B8010020004800401B
:101ED000FC01002077B581B00446154694F83A001D
:101EE000202850D1029800B115B9012004B070BD6E
:101EF00000BF94F83800012801D10220F6E7012044
:101F000084F8380000BF0298A062A5850020E06335
:101F1000222084F83A001D48616B88621C48616B7E
:101F2000C8621C48616B08630020616B486302AEA5
:101F300032682368191D2B46606BFEF7D7FD00BF82
:101F400000200090206800680090206840680090A1
:101F500000BF00BF00BF002084F8380000BF206829
:101F6000C06840F480702168C8602068406940F013
:101F70000100216848612068406940F04000216804
:101F800048610020B2E70220B0E70000C92800083D
:101F90000F29000879280008704770472DE9F84399
:101FA00004460D4616461F464FF0000994F83900C6
:101FB00020285CD105B116B90120BDE8F88300BF27
:101FC00094F83800012801D10220F6E7012084F8B6
:101FD000380000BF0020E063212084F83900FEF7BC
:101FE00079FF8146A684E6842BE0E08C401EE084E5
:101FF000A068B0F5805F16D14B46002280212046B4
:10200000009700F021FE08B10320D6E7A846B8F8F3
:102010000000C0F3080021684860206908B9AD1CC1
:102020000FE06D1C0DE04B460022802120460097FA
:1020300000F00AFE08B10320BFE715F8010B216884
:102040004860E08C0028D0D14B4600224021204639
:10205000009700F0F9FD08B10320AEE7202084F8D6
:10206000390000BF002084F8380000BFA5E7022037
:10207000A3E7704700BFFEE708B500BF12484069FC
:1020800040F00100104948610846406900F0010035
:10209000009000BF00BF002205210D20FEF7E3FFE6
:1020A0000D20FEF7D3FF002205210F20FEF7DBFFF6
:1020B0000F20FEF7CBFF002205211020FEF7D3FFF3
:1020C0001020FEF7C3FF08BD0010024000B59FB00E
:1020D00000201E9001211EA800F094FF3A490860DC
:1020E00000201D9001211DA800F08CFF37490860D9
:1020F00000201C9001211CA800F084FF34490860D6
:1021000000201B9001211BA800F07CFF31490860D2
:10211000314800681A90002201211AA801F006F83F
:102120002E49086041F288312C48006801F012F80D
:1021300014222949091D15A8FEF762F8002115A8E7
:1021400000F0DCFF2649086014222349183110A84A
:10215000FEF756F8002110A800F0D0FF21490860D2
:1021600014221D492C310BA8FEF74AF800210BA8B8
:1021700000F0C4FF1C49086014221749403106A82A
:10218000FEF73EF8002106A800F0B8FF17490860E6
:1021900014221149543101A8FEF732F8002101A898
:1021A00000F0ACFF1249086000220421052002F073
:1021B000D5F81049086000220421142002F0CEF85E
:1021C0000D4908601FB000BD180000201C00002051
:1021D00020000020240000202850000814000020C7
:1021E0000000002004000020080000200C00002057
:1021F00010000020280000202C00002000B585B031
:1022000000BF2548806940F02000234988610846C6
:10221000806900F02000009000BF00BF00BF0846AA
:10222000806940F0040088610846806900F004007D
:10223000009000BF00BF00BF0846806940F0080062
:1022400088610846806900F00800009000BF00BF68
:10225000002289151148FEF737FE00221021104890
:10226000FEF732FE4FF4807001900120029003903F
:102270000320049001A90948FEF786FC1020019074
:102280000120029003900320049001A90448FEF766
:102290007BFC05B000BD00000010024000080140BA
:1022A0000014014010B50C480C4908604FF4E130AF
:1022B0004860002109488160C16001610C214161D1
:1022C00000218161C161FFF7B5FC18B1522104A062
:1022D00000F00EFE10BD000000380140B4000020E8
:1022E0002E2E2F5372632F75736172742E6300004C
:1022F00010B50D480D4908604FF416504860002194
:102300000A4881604FF40051C160002101610C2135
:10231000416100218161C161FFF78CFC18B1652129
:1023200003A000F0E5FD10BD00440040F4000020D3
:102330002E2E2F5372632F75736172742E630000FB
:1023400010B50C480C4908604FF4E130486000219A
:1023500009488160C16001610C21416100218161F6
:10236000C161FFF767FC18B1782104A000F0C0FD3F
:1023700010BD000000480040340100202E2E2F53D5
:1023800072632F75736172742E63000000BFFEE7E5
:102390002DE9FC4107460C461546002000900190AF
:1023A00000268DF8007003208DF8010020128DF8B2
:1023B00002002046E11704EB11610912A4EB012190
:1023C000C9B28DF8031028128DF804002846E917C9
:1023D00005EB11610912A5EB0121C9B28DF80510B9
:1023E0000621684600F095FD06463046F11706EBDB
:1023F00011610912A6EB0121C9B28DF80610301245
:102400008DF807000821684600F07EFCBDE8FC81DD
:10241000F8B504460025002600270020009020790A
:102420003F2865D16079032800D00227A579201DB7
:10243000E91C425C291D405C02EB002086B2E91CCD
:10244000201D00F066FDB04200D00127042D02D00F
:10245000202D4AD10CE0D4F80700009004216846F2
:10246000FDF718FF0098FDF7EFFE794908843EE07C
:10247000D4F80700009004216846FDF70BFF009890
:10248000FDF7E2FE7249C882D4F80B0000900421E7
:102490006846FDF7FFFE0098FDF7D6FE6C490883FD
:1024A000D4F80F00009004216846FDF7F3FE009871
:1024B000FDF7CAFE66494883D4F81B00009004214A
:1024C0006846FDF7E7FE0098FDF7BEFE6049888389
:1024D000D4F82300009004216846FDF7DBFE009845
:1024E000FDF7B2FE5A49C88301E0032700BFACE004
:1024F00020790128FBD16079032800D00227A57933
:10250000201DE91C425C291D405C02EB002086B2C4
:10251000E91C201D00F0FDFCB04200D00127262D53
:1025200038D0382D7ED1217AE07901EB002048495E
:102530004884217BE07A01EB002045498884A17B17
:10254000607B01EB00204249C884217CE07B01EBE9
:1025500000203F490885A17C607C01EB00203C49BC
:102560004885217DE07C01EB00203949888594F87D
:102570003C1094F83B0001EB00203549A1F84000E5
:1025800094F83E1094F83D0001EB00203049A1F88A
:10259000420059E0217AE07901EB00202C49C885FE
:1025A000217BE07A01EB002029490886A17B607B32
:1025B00001EB002026494886217CE07B01EB0020CE
:1025C00023498886217EE07D01EB00202049C886D2
:1025D000A17E607E01EB00201D490887217FE07EFF
:1025E00001EB00201A4948872220015D2120005D6F
:1025F00001EB00201649888794F824102320005D01
:1026000001EB00201249C88794F8281094F827009D
:1026100001EB00200E49A1F8440094F82A1094F828
:10262000290000E00EE001EB00200949A1F8460076
:1026300094F82C1094F82B0001EB00200449A1F829
:10264000440001E0032700BF00BF3846F8BD00008A
:102650008C0500207047000002480068C0F302208B
:10266000704700000CED00E010B5002807DA0A07FB
:10267000140E054A00F00F031B1FD45403E00A0791
:10268000130E024A135410BD18ED00E000E400E000
:1026900008B508490968C9084FF47A72B1FBF2F12C
:1026A0004143009100BF00BF00994A1E00920029DB
:1026B000F9D108BD3C00002010B500F017FD10BD99
:1026C00010B590B0012006900004079000200890FB
:1026D00001200A9002200D90C1030E914FF4E011E9
:1026E0000F9106A8FEF776FE18B1A62114A000F0FF
:1026F000FFFB0F20019002200290002003904FF476
:102700008060049000200590022101A8FEF7FEFCE5
:1027100018B1B4210AA000F0EBFBFEF7EBFD4FF47B
:102720007A71B0FBF1F42046FFF788F80420FFF738
:1027300071F800220F21501EFEF795FC10B010BD5D
:102740002E2E2F5372632F6D61696E2E6300000071
:102750001148006840F001000F49086008464068D1
:102760000E4908400C494860084600680C4908407A
:10277000094908600846006820F48020086008467F
:10278000406820F4FE0048604FF41F008860C803D2
:102790000449086070470000001002400000FFF884
:1027A000FFFFF6FE08ED00E010B50248FFF78DF8D8
:1027B00010BD000040020020002202681F4B98421A
:1027C0000ED01F4B98420BD0B0F1804F08D01D4B5C
:1027D000984205D01C4B984202D01C4B984203D122
:1027E00022F070024B681A43144B98420ED0144BDF
:1027F00098420BD0B0F1804F08D0124B984205D0D0
:10280000114B984202D0114B984203D122F44072EE
:10281000CB681A4322F080024B691A4302608B682E
:10282000C3620B688362054B984202D0044B984206
:1028300001D10B690363012343617047002C014000
:10284000003401400004004000080040000C00403B
:1028500010B504460248006800F0EAFB10BD000015
:102860002400002070B505466C6A0020E085E084F5
:102870002046FFF737F970BD70B506460025746A2B
:1028800020684069C0F3C01594F83900212805D1AB
:1028900025B10020E084204600F060F820684069FF
:1028A000C0F3801594F83A00222805D125B1002004
:1028B000E085204600F032F8E06B40F01000E06365
:1028C0002046FFF70FF970BD70B505466C6A2868A1
:1028D000006800F02000B0B90020E0852068C068E2
:1028E00020F480702168C8602068406920F00100F1
:1028F000216848612068406920F0400021684861F3
:10290000202084F83A002046FFF746FB70BD70B5E2
:102910000446656A2846FFF740FB70BD0168C96838
:1029200021F490710268D1600168496921F00101C8
:1029300002685161202180F83A10704710B50446B2
:102940002068C06820F040002168C860202084F81A
:1029500039002046FFF78DFB002010BD0168C968D3
:1029600021F0C0010268D160202180F83910704741
:1029700070B5044694F83A0022284AD1A068B0F510
:10298000805F13D1A56A206940B920684068C0F310
:1029900008002880A06A801CA06219E020684068B6
:1029A000C0B22880A06A401CA06211E0206938B93A
:1029B00020684068C1B2A26A501CA062117007E092
:1029C0002068406800F07F01A26A501CA06211706C
:1029D000E08D401E80B2E085C8B92068C06820F054
:1029E00020002168C8602068C06820F480702168D9
:1029F000C8602068406920F00100216848612020FB
:102A000084F83A002046FFF7C7FA002070BD002086
:102A1000FCE70220FAE700002DE9F041044600251A
:102A20002068006920F44050E1680843216808618B
:102A30002169A06808436169084305432068C068AC
:102A400041F20C61884328432168C86020684069CE
:102A500020F44070A1690843216848615F492068FB
:102A600088425CD1FEF75CFC00EBC00101EB00107A
:102A700061688900B0FBF1F6FEF752FC00EBC00183
:102A800001EB001061688900B0FBF1F06421B0FB3C
:102A9000F1F000EBC00101EB0010A6EB8000322149
:102AA00001EB00106421B0FBF1F000F0F006FEF73E
:102AB00037FC00EBC00101EB001061688900B0FB3E
:102AC000F1F06421B0FBF1F006EB0016FEF728FCF4
:102AD00000EBC00101EB001061688900B0FBF1F769
:102AE000FEF71EFC00EBC00101EB001061688900DD
:102AF000B0FBF1F06421B0FBF1F000EBC00101EBA1
:102B00000010A7EB8000322101EB00106421B0FB24
:102B1000F1F000F00F003044216888605BE0FEF7C0
:102B2000EFFB00EBC00101EB001061688900B0FB16
:102B3000F1F6FEF7E5FB00EBC00101EB0010616868
:102B40008900B0FBF1F06421B0FBF1F000EBC001B3
:102B500001EB0010A6EB8000322101EB0010642194
:102B6000B0FBF1F000F0F006FEF7CAFB00EBC0018D
:102B700001EB001061688900B0FBF1F06421B0FB4B
:102B8000F1F006EB0016FEF7BBFB00EBC00101EB1A
:102B9000001061688900B0FBF1F7FEF7B1FB00EBB4
:102BA000C00101EB001061688900B0FBF1F0642105
:102BB000B0FBF1F000EBC00101EB0010A7EB8000CF
:102BC000322101EB00106421B0FBF1F000F00F00A6
:102BD000304421688860BDE8F08100000038014081
:102BE000014691F8390021282CD18868B0F5805F22
:102BF0000FD10A6A1088C0F308000B685860086992
:102C000018B9086A801C086209E0086A401C08625A
:102C100005E00B6A581C086218780B685860C88C6D
:102C2000401E80B2C88458B90868C06820F080008F
:102C30000B68D8600868C06840F040000B68D86036
:102C4000002070470220FCE72DE9F04104460D46C4
:102C500017469846069E21E0701CF8B12EB1FEF78B
:102C600039F9A0EB0800B04218D92068C06820F4F8
:102C7000D0702168C8602068406920F00100216898
:102C80004861202084F8390084F83A0000BF002011
:102C900084F8380000BF0320BDE8F0812068006898
:102CA0002840A84201D1012000E00020B842D3D042
:102CB0000020F1E710B50649064800F0F5F806488F
:102CC000006800F0B5F90348FEF70EFF10BD0000E4
:102CD00080020020B40000201800002000BF4FF048
:102CE000FF310748006800F0CBF90648007800F093
:102CF00001000028F3D0002002490870EFE700002F
:102D0000180000208002002070B504460D46012204
:102D100010210848FEF7D8F84FF0FF332A46214625
:102D20000548FFF73BF9002210210248FEF7CCF8D6
:102D300070BD000000140140F400002010B50649E9
:102D4000064800F0B1F80648006800F071F9034841
:102D5000FEF7CAFE10BD000084030020F40000202E
:102D60001C00002008B50020009000BF4FF0FF318C
:102D70001848006800F084F91748007800F0010056
:102D800010B100201449087013480079012804D0BC
:102D9000114800793F2800D0E8E71049086800F0A2
:102DA000C1FF20B14FF4827000F0E8FE009000985F
:102DB00060B14FF4827208490098FDF721FA074983
:102DC00000235A1E0868694601F022FC002000908A
:102DD000CCE700001C000020840300202C00002011
:102DE00070B504460D46012211020848FEF76CF842
:102DF0004FF0FF332A4621460548FFF7CFF800225F
:102E00004FF480710148FEF75FF870BD0008014083
:102E10003401002010B50649064800F045F8064880
:102E2000006800F005F90348FEF75EFE10BD0000E3
:102E300088040020340100202000002008B5002074
:102E4000009000BF4FF0FF311348006800F018F900
:102E50001248007800F0010010B100200F490870FE
:102E60000F49086800F05EFF20B14FF4827000F057
:102E700085FE0090009860B14FF482720749009877
:102E8000FDF7BEF9064900235A1E0868694601F09D
:102E9000BFFB00200090D5E7200000208804002020
:102EA0002800002000BFFEE7F8B504460D46206864
:102EB0000068C0F30010D0B100BF0020009020686F
:102EC0000068009020684068009000BF00BF204666
:102ED000FEF7D5FD606B00684668C6F580706880B7
:102EE000012028700202291D2046FEF7F3FFF8BDDD
:102EF00000BFFEE702E008C8121F08C1002AFAD18D
:102F000070477047002001E001C1121F002AFBD169
:102F1000704730B502460B464FF6FF70002110E0B7
:102F2000545C6040002409E000F0010525B1401028
:102F30004AF20105684000E04010641C082CF3DBF5
:102F4000491C9942ECDB30BD00BFEFF3058008B1AE
:102F5000012070470020FCE7FDF7CEFFFFF7B0FB34
:102F6000FFF74CF9FFF788F8FFF79CF9FFF7C0F976
:102F7000FFF7E6F94FF4807216491748FEF7AAFFEB
:102F800015480068C06840F0100013490968C8601F
:102F90004FF4807211491248FEF79CFF10480068F8
:102FA000C06840F010000E490968C8604FF4807294
:102FB0000C490D48FEF78EFF0B480068C06840F0D2
:102FC000100009490968C860FFF780F800F015F89B
:102FD00000BFFEE784020020B40000208803002028
:102FE000F40000208C040020340100200146002061
:102FF000842901D0CA1C1044704710B501F0ACF808
:10300000002010BD70B506460D46012D0ED10322DD
:103010000021012001F0A2F904462CB100231A4638
:103020001946204601F0F4FA204670BD0020FCE766
:1030300038B50446002500200090FFF785FF90B1C9
:103040006946204601F034FC012801D0FF2038BD3C
:10305000009888B14FF0805008490860BFF34F8F47
:10306000BFF36F8F08E000231A461946204601F08F
:10307000CFFA012800D0FF252846E8E704ED00E05C
:10308000F8B506460C46002000900EB98020F8BD29
:103090000025601C08B96D1E03E014B1254605B972
:1030A0000125FFF751FF98B16A460021304601F033
:1030B0006FFC012801D0FF20E9E7009890B14FF0A4
:1030C000805009490860BFF34F8FBFF36F8F09E04D
:1030D00000232A461946304601F06CF9012801D038
:1030E000FF20D4E70020D2E704ED00E010B501F0A6
:1030F0002BFD012801D001F017F910BDFEB50446E3
:103100000D46B4F90800FFF771FF064602A8CDE9A5
:103110000060238A9AB22B46D4E9001001F0E4FC47
:10312000012801D00020FEBD0298FCE7F8B5044656
:103130000D46164620680090012D01D1012000E0C7
:10314000002002463346012101A001F0E9FEF8BD4E
:10315000000000002DE9FC4106460C460027002037
:103160000190254605B90125FFF7EEFEB0B100201C
:1031700001AB2A4609210090304601F013FF0128D7
:1031800001D0FF2715E0019898B14FF080500A490F
:103190000860BFF34F8FBFF36F8F0AE00020034634
:1031A0002A4604210090304601F0FCFE012800D0A0
:1031B000FF273846BDE8FC8104ED00E02DE9F04131
:1031C00005460E461C4807681C480068001D00F0B4
:1031D00095FD50B91948006890F82C1001208840DE
:1031E00017490968814316480160681C38B936B12F
:1031F00012480168091D134800F0D6FD1AE07C1939
:103200000E4800684460BC4207D20C480168091DA2
:103210000D48006800F0AEFD0CE008480168091D8B
:103220000A48006800F0A6FD09480068844201D2FF
:1032300007480460BDE8F0817800002064000020A9
:103240007C000020F45600206C0000206800002064
:103250009400002010B5044600F0B2FD2348006839
:10326000401C224908602248006840B92048046098
:103270000846006801280DD100F0FCF90AE01D485D
:10328000006838B91A480068C06AE16A884201D803
:103290001748046018480068401C1749086094F8F3
:1032A0002C1001208840154909680843134908601B
:1032B000E16A01EB8101124A02EB8100211D00F05D
:1032C00073FD00F0A7FD0B48006868B1084800686E
:1032D000C06AE16A884207D24FF08050094908600D
:1032E000BFF34F8FBFF36F8F10BD0000740000203D
:1032F0006400002080000020900000207C0000205E
:103300001856002004ED00E010B500F059FD1048FB
:103310000068D0B90F4800F01DFD0F4800F01AFDFD
:103320000C480E4908600C480D49086000220C2129
:103330000A2001F013F8064908600846006820B129
:1033400008A10348006800F019FE00F063FD10BDFD
:10335000A8000020085700201C570020A0000020D3
:10336000A4000020546D72510000000070B523E0ED
:1033700000F03CFF1348006808B9012000E000207D
:10338000054601F04BFDBDB900F01AFD0D48C068BF
:10339000C468201D00F0B2FC0B480068401E0A49BA
:1033A00008600A480068401E0849086000F032FDC5
:1033B000204600F060F800BF044800680028D7D11C
:1033C00070BD0000E0560020740000207000002056
:1033D00070B504460D46206C70B1216CE06808445D
:1033E000E0606168E068884201D32068E0602846B8
:1033F000226CE168FCF704FF70BD2DE9F041044642
:103400000F4615464FF00008A66B206C40B92068A7
:1034100060BB606801F052FC80460020606025E0DF
:103420007DB93946226CA068FCF7EAFE216CA068E1
:103430000844A060D4E90110884217D32068A06036
:1034400014E03946226CE068FCF7DAFE216CE06893
:10345000401AE0602168E068884203D2216C60680D
:10346000401AE060022D01D106B1761E701CA063E7
:103470004046BDE8F08110B50446206B00F0E8FC42
:10348000204600F0E5FC10BD0146084A12681268AB
:103490000AB9012200E000220A600A6822B9034A40
:1034A0001268D268106800E000207047A000002079
:1034B00030B54FF4A043174800F007042CB1C01DED
:1034C00020F00700134C041B1B1B0246124C226009
:1034D0000024114D6C60D018083820F007000F4C04
:1034E000206000240D4D2D686C600C4D2D682C6003
:1034F0001146441A4C60094C24680C60084D4C6815
:103500002C60084D4C682C604FF00044064D2C6038
:1035100030BD0000D60500204000002048000020FB
:10352000500000204C0000205400002000BFFFF796
:103530001DFF064800680128F9D94FF08050044962
:103540000860BFF34F8FBFF36F8FF0E7185600206E
:1035500004ED00E02DE9F04106460D461746984679
:10356000069C0DB9246000E02760E6632564012114
:10357000204601F001F8BDE8F0812DE9FF5F8146AA
:103580000F469246DDE90E6B109CAAF10100216BFB
:1035900001EB800828F0070808F0070008B90120AF
:1035A00000E0002050B900BF502080F31188BFF325
:1035B0004F8FBFF36F8F00BF00BFFEE7002507E00E
:1035C000795D04F134004155785D00B902E06D1C6D
:1035D000102DF5D300BF002143200155072E00D345
:1035E0000626E66266640020A064201D00F0BFFB92
:1035F00004F1180000F0BBFB2461C6F10700A061D4
:1036000064620020E06484F8500049464046039A12
:1036100000F062FB2060BBF1000F01D0CBF800404E
:10362000BDE8FF9F2DE9F04706460D461746984630
:10363000DDE908940DB1012000E0002050B900BF81
:10364000502080F31188BFF34F8FBFF36F8F00BFFF
:1036500000BFFEE75CB1FFF757FE2660A561E7619A
:10366000C4F82080C4F82490201D00F080FBBDE841
:10367000F087000010B5002407E004EB84010F4A36
:1036800002EB810000F066FB641C072CF5D30C48AC
:1036900000F060FB0B4800F05DFB0B4800F05AFBAC
:1036A0000A4800F057FB0A4800F054FB0448094957
:1036B000086004480849086010BD00001856002042
:1036C000A4560020B8560020CC560020E05600201A
:1036D000F4560020680000206C00002010B5014660
:1036E000164800E0006803688B42FBD3024643683B
:1036F00013448B4204D143684C6823444360014621
:103700000A464B6813440468A34211D10C4C036869
:103710002468A34208D04B680468646823444B6063
:1037200003681B680B6005E0054B1B680B6001E03C
:1037300003680B60884200D0016010BD400000208B
:10374000480000202DE9F04104460D4616461F466C
:103750004FF0000865602461B5420CD8F01BA169E8
:10376000884202D34FF0010811E0211D094800688A
:1037700000F000FB0BE0BE4204D2BD4202D34FF08A
:10378000010804E0211D0448006800F0F3FA4046F7
:10379000BDE8F081A4000020A000002070B505461F
:1037A00000F00EFBA86B08B9012400E0002400F033
:1037B00031FB204670BD70B5054600F001FBA86BDB
:1037C000E96B884201D1012400E0002400F022FBD3
:1037D000204670BDF8B505460F4616480068C0681B
:1037E000C468201D00F08AFAE06901281DD1A06993
:1037F00041192B463A462046FFF7A4FFA8B1002006
:1038000003462A4601460090204601F0CBFB0646BF
:1038100056B900BF502080F31188BFF34F8FBFF31C
:103820006F8F00BF00BFFEE700BF2046616A884778
:10383000F8BD0000A000002070B586B06AE00398D3
:10384000002867DB059C606908B9012000E00020C2
:1038500010B9201D00F052FA02A800F0BDF805468C
:1038600003980A2854D2DFE800F009050731334FE6
:103870000608323400BF00BF00BF00BF0498A26931
:10388000811803462A462046FFF75CFFE8B1204630
:10389000616A8847E069012817D1002000900498E8
:1038A000A169421800231946204601F07BFB064619
:1038B00056B900BF502080F31188BFF34F8FBFF37C
:1038C0006F8F00BF00BFFEE700BF22E000BF20E017
:1038D00000BF0498A061A06908B1012000E00020A9
:1038E00050B900BF502080F31188BFF34F8FBFF352
:1038F0006F8F00BF00BFFEE7A06941192B462A4623
:103900002046FFF71FFF04E0204600F0A1FA00E088
:1039100000BF00BF00231A4603A90448006800F056
:1039200049FD00288BD106B070BD0000A800002022
:10393000F8B505460C4600F059FC684600F04CF816
:103940000646009820BB44B9B54206D801F066FA95
:1039500031462846FFF73EFF1CE03CB10E480068A8
:10396000006808B9012000E000200446A91B224697
:103970000A48006800F018FB01F050FA50B94FF007
:10398000805007490860BFF34F8FBFF36F8F01E08E
:1039900001F044FAF8BD0000A4000020A8000020B7
:1039A00004ED00E00A490968096809B9012100E04D
:1039B000002121B14FF0FF31064A116006E00449B1
:1039C0000968C968C868034A416811607047000007
:1039D000680000209400002070B5044601F0C4F88F
:1039E000054607480068854204D200F00BF8012024
:1039F000206001E00020206001480560284670BD7D
:103A0000B00000202DE9F84332E024480068C06887
:103A1000056822480068C068C468201D00F06EF97F
:103A20002046616A8847E069012821D1A0694619CA
:103A3000AE4207D966602461211D1848006800F075
:103A400099F915E0002003462A46014600902046D9
:103A500001F0A8FA074657B900BF502080F311883B
:103A6000BFF34F8FBFF36F8F00BF00BFFEE700BFF4
:103A70000A480068006808B9012000E0002000281A
:103A8000C3D00648D0F800800548006803490860A4
:103A90000348C0F80080BDE8F8830000A0000020C3
:103AA000A40000200E480068401C08B9012000E076
:103AB000002050B900BF502080F31188BFF34F8F12
:103AC000BFF36F8F00BF00BFFEE700BF502080F341
:103AD0001188BFF34F8FBFF36F8F00BF00BFFEE7AA
:103AE0005800002008B500BF6846FFF7CDFC04462B
:103AF00020460099FFF71CFFFFF79EFEF4E770B524
:103B0000044600F05DF994F9455010E0606A08B988
:103B1000012000E0002038B904F1240001F032F95E
:103B200018B100F067FA00E003E0681E45B2002D0E
:103B3000ECDC00BFFF2084F8450000F06BF900F0DA
:103B40003FF994F9445010E0206908B9012000E0E1
:103B5000002048B904F1100001F014F908B100F098
:103B600049FA681E45B200E001E0002DECDC00BF20
:103B7000FF2084F8440000F04DF970BD2DE9F041BC
:103B800004464FF0000800F031FB4648006808B9D1
:103B9000FFF78EFC44480068204000286BD1D4B168
:103BA000083404F00700B0B104F00700C0F10800C9
:103BB000044404F0070008B9012000E0002050B9D7
:103BC00000BF502080F31188BFF34F8FBFF36F8F7A
:103BD00000BF00BFFEE7002C4DD03448006884428F
:103BE00049D8334E3046056801E02E462D68686896
:103BF000A04202D228680028F7D12A4800688542EE
:103C000039D0306800F10808286830606868001B07
:103C1000102819D92F1907F0070008B9012000E072
:103C2000002050B900BF502080F31188BFF34F8FA0
:103C3000BFF36F8F00BF00BFFEE76868001B7860AE
:103C40006C603846FFF74AFD184968680968081A29
:103C5000164908600846006816490968884203D278
:103C600012480068134908600F49686809680843EA
:103C700068600020286001F0D1F808F0070008B95A
:103C8000012000E0002050B900BF502080F31188CF
:103C9000BFF34F8FBFF36F8F00BF00BFFEE74046FB
:103CA000BDE8F08148000020540000204C000020B6
:103CB00040000020500000200648006830B105494F
:103CC000096801F14800896C491C016001480068DD
:103CD0007047000064000020001F4FF080730360F5
:103CE000001F21F001030360001F034B0360143821
:103CF0000260203870470000A53A000801460A69B2
:103D0000D1E901309860D1E90103586050688842D8
:103D100001D188685060002008611068401E106062
:103D20001068704770B50446254655B900BF50204D
:103D300080F31188BFF34F8FBFF36F8F00BF00BFB9
:103D4000FEE700F03DF8D5E90E10461A00F062F8E3
:103D5000304670BD00F1080141604FF0FF318160D5
:103D600000F10801C160016100210160704700217C
:103D70000161704710B502460B685C1C0CB91069F4
:103D800007E002F1080000E04068446824689C42B3
:103D9000FAD944684C604C68A160886041600A614F
:103DA0001468641C146010BD42684A6093688B609C
:103DB000936859609160086103685B1C03607047F9
:103DC00000BF502080F31188BFF34F8FBFF36F8F78
:103DD00000BF0E480068401C0C4908600846006897
:103DE000012812D10A480068C0B208B9012000E0D9
:103DF000002050B900BF502080F31188BFF34F8FCF
:103E0000BFF36F8F00BF00BFFEE770475800002070
:103E100004ED00E00D48006850B900BF502080F369
:103E20001188BFF34F8FBFF36F8F00BF00BFFEE756
:103E300006480068401E054908600846006820B929
:103E4000002080F3118800BF00BF70475800002099
:103E500070B506463546002E3FD0083D2C461F491A
:103E600060680968084008B1012000E0002050B9EE
:103E700000BF502080F31188BFF34F8FBFF36F8FC7
:103E800000BF00BFFEE7206808B9012000E0002065
:103E900050B900BF502080F31188BFF34F8FBFF39C
:103EA0006F8F00BF00BFFEE70C49606809680840DB
:103EB00098B1206888B909496068096888436060DA
:103EC00000F094F9064960680968084404490860EC
:103ED0002046FFF703FC00F0A1FF70BD5400002056
:103EE0004C000020064800684FF47A71B0FBF1F0F6
:103EF000401E4FF0E0214861072008617047000034
:103F00003C00002070B5FCF765F90446102C16D370
:103F100004F1E02090F8F05315480078854201DB69
:103F2000012000E0002050B900BF502080F311882C
:103F3000BFF34F8FBFF36F8F00BF00BFFEE70D4889
:103F4000006800F4E0600C490968884201D801204B
:103F500000E0002050B900BF502080F31188BFF36B
:103F60004F8FBFF36F8F00BF00BFFEE770BD000033
:103F70005C0000200CED00E0600000200246002004
:103F80000BE0084B53F8303033B9064B43F8301090
:103F900003EBC0035A6002E0401C0828F1D300BFC5
:103FA00070470000D85500202DE9F04105460E4627
:103FB00017462C46FFF704FF94F94400401C10B943
:103FC000002084F8440094F94500401C10B90020FA
:103FD00084F84500FFF71EFFA06B28B93A4631462A
:103FE00004F1240000F028F82046FFF788FDBDE822
:103FF000F08100000120014908607047880000201E
:1040000070B504460D4654B900BF502080F31188A6
:10401000BFF34F8FBFF36F8F00BF00BFFEE70548B0
:10402000016818312046FFF7A5FE01212846FFF759
:10403000C5F870BD6400002070B505460E461446F4
:1040400055B900BF502080F31188BFF34F8FBFF3E5
:104050006F8F00BF00BFFEE7064801681831284691
:10406000FFF7A2FE0CB14FF0FF3621463046FFF7B6
:10407000A5F870BD6400002070B505462C46002DE3
:104080004BD02649E06A0968C96A884245D2A069CE
:1040900000F0004028B921480068C06AC0F107005C
:1040A000A061E16A01EB81011D4A02EB81016069B7
:1040B000884201D1012000E0002050B3201DFFF70D
:1040C0001DFE78B9E06A00EB8000154951F8200028
:1040D00040B994F82C1001208840124909688143A6
:1040E000104801600D480068C06AE06294F82C1026
:1040F000012088400B49096808430A490860E16AC1
:1041000001EB8101064A02EB8100211DFFF74CFE05
:1041100003E002480068C06AE06270BD64000020ED
:10412000185600207C00002050B900BF502181F3B8
:104130001188BFF34F8FBFF36F8F00BF00BFFEE743
:10414000034909680160034909684160704700003C
:104150008C000020780000201CB51D4800210B4673
:104160008022CDE900101BA11C4800F0BDFC0446D4
:10417000012C02D100F0ECFE0446012C15D100BF49
:10418000502080F31188BFF34F8FBFF36F8F00BFB4
:104190004FF0FF30124908600120124908600020EA
:1041A0001149086000F070F810E0601C08B10120AF
:1041B00000E0002050B900BF502080F31188BFF309
:1041C0004F8FBFF36F8F00BF00BFFEE71CBD000025
:1041D0009800002049444C45000000002D3500089F
:1041E0009400002080000020780000200248006831
:1041F000401C0149086070479C0000201D48006871
:1042000018B101201C49086032E000201A490860FA
:104210001A480068B0FA80F0C0F11F0101EB81007C
:10422000174A52F8200008B1012000E0002050B9E0
:1042300000BF502080F31188BFF34F8FBFF36F8F03
:1042400000BF00BFFEE701EB81020D4B03EB8200D4
:1042500042685268426000F108024368934202D10A
:104260004268526842604268D268064B1A6000BFDA
:10427000704700009C000020880000207C00002087
:1042800018560020640000201CB522480146097819
:104290000191FF21024611700146097800919DF8B5
:1042A000001001F050011C4A117007211B4A1160D7
:1042B00009E01A490968491E184A11609DF8001062
:1042C0004906090E00919DF8001001F08001802937
:1042D000EFD0124909680902104A11601146098895
:1042E00001F4E06111600B4A019911700C480068FB
:1042F00040F470000A4908600846006840F07040C9
:104300000860FFF7EFFD002006490860FBF72CFF6F
:1043100000201CBD00E400E05C00002060000020E4
:1043200020ED00E05800002010B500BF502080F3C1
:104330001188BFF34F8FBFF36F8F00BF00F01AFCDF
:1043400018B14FF080500449086000BF002080F38E
:10435000118800BF10BD000004ED00E02DE9F84316
:1043600005460E4690460DB1012000E0002050B9F0
:1043700000BF502080F31188BFF34F8FBFF36F8FC2
:1043800000BF00BFFEE70EB9002701E005FB06F7FE
:1043900007F14800FFF7F2FB044644B104F1480975
:1043A00043464A46314628460094FFF7D3F8204654
:1043B000BDE8F8832DE9FF4782B005460E461F464B
:1043C0004FF0000A2C4654B900BF502080F31188EA
:1043D000BFF34F8FBFF36F8F00BF00BFFEE70EB973
:1043E000206C08B9012000E0002050B900BF502027
:1043F00080F31188BFF34F8FBFF36F8F00BF00BFF3
:10440000FEE700F0A1FB08B9049808B9012000E01C
:10441000002050B900BF502080F31188BFF34F8FA8
:10442000BFF36F8F00BF00BFFEE700BFFFF7C8FC00
:10443000D4F83890B9F1000F3DD0D4F80C80314653
:104440002046FEF7C5FFDFB9A9F10100A06320688F
:1044500010B9FFF731FC6060206908B9012000E065
:10446000002010BB04F1100000F08CFCE8B14FF00C
:10447000805040490860BFF34F8FBFF36F8F14E047
:10448000C4F80C80606A08B9012000E0002060B91F
:1044900004F1240000F076FC38B14FF0805035492B
:1044A0000860BFF34F8FBFF36F8FFFF7B3FC01209E
:1044B00006B0BDE8F087049818B9FFF7ABFC002000
:1044C000F6E7BAF1000F04D16846FFF72DFE4FF072
:1044D000010AFFF79FFCFFF789FEFFF771FC94F9D3
:1044E0004400401C10B9002084F8440094F94500B1
:1044F000401C10B9002084F84500FFF78BFC04A98C
:10450000684600F0ABFA40BB2046FFF747F9F0B130
:10451000206830B9FFF754FC6068FFF7ADFDFFF786
:1045200079FC04F124000499FFF76AFD2046FFF7A7
:10453000E6FA00F073FC00287FF478AF4FF080506B
:104540000C490860BFF34F8FBFF36F8F6EE72046B3
:10455000FFF7D5FA00F062FC68E72046FFF7CFFAD4
:1045600000F05CFC2046FFF719F90028EED000208F
:104570009EE7000004ED00E070B505460E462C46AF
:1045800054B900BF502080F31188BFF34F8FBFF3A1
:104590006F8F00BF00BFFEE7FFF712FCD4E90F12D8
:1045A000206801FB020060600020A0632068A0601A
:1045B000E06B401E226C216800FB0210E060FF20CF
:1045C00084F8440084F845009EB9206908B90120A8
:1045D00000E00020A8B904F1100000F0D3FB80B186
:1045E0004FF0805009490860BFF34F8FBFF36F8FC2
:1045F00007E004F11000FFF7ADFB04F12400FFF722
:10460000A9FBFFF707FC012070BD000004ED00E0EE
:104610002DE9FF4383B0064688461D464FF000094A
:10462000344654B900BF502080F31188BFF34F8F38
:10463000BFF36F8F00BF00BFFEE7B8F1000F01D1DD
:10464000206C08B9012000E0002050B900BF5020C4
:1046500080F31188BFF34F8FBFF36F8F00BF00BF90
:10466000FEE7022D02D1E06B012801D1012000E01C
:10467000002050B900BF502080F31188BFF34F8F46
:10468000BFF36F8F00BF00BFFEE700F05DFA08B90F
:10469000059808B9012000E0002050B900BF502063
:1046A00080F31188BFF34F8FBFF36F8F00BF00BF40
:1046B000FEE700BFFFF784FBA06BE16B884201D3EC
:1046C000022D28D12A4641462046FEF796FE07468F
:1046D000606A08B9012000E0002068B904F12400F4
:1046E00000F050FB88B14FF0805032490860BFF3B2
:1046F0004F8FBFF36F8F08E03FB14FF080502D49CF
:104700000860BFF34F8FBFF36F8FFFF783FB01206C
:1047100007B0BDE8F083059818B9FFF77BFB0020D0
:10472000F6E7B9F1000F04D101A8FFF7FDFC4FF047
:104730000109FFF76FFBFFF759FDFFF741FB94F904
:104740004400401C10B9002084F8440094F945004E
:10475000401C10B9002084F84500FFF75BFB05A959
:1047600001A800F07BF9F0B92046FFF724F8A0B1CA
:1047700004F110000599FFF743FC2046FFF7BFF94D
:1047800000F04CFB002895D14FF08050094908609B
:10479000BFF34F8FBFF36F8F8CE72046FFF7AFF962
:1047A00000F03CFB86E72046FFF7A9F900F036FB56
:1047B0000020ADE704ED00E02DE9F05F07468A46F2
:1047C00090461E463C4654B900BF502080F31188E5
:1047D000BFF34F8FBFF36F8F00BF00BFFEE7BAF18B
:1047E000000F01D1206C08B9012000E0002050B971
:1047F00000BF502080F31188BFF34F8FBFF36F8F3E
:1048000000BF00BFFEE7022E02D1E06B012801D1FC
:10481000012000E0002050B900BF502080F3118833
:10482000BFF34F8FBFF36F8F00BF00BFFEE7FFF7EF
:1048300069FB00BF5021EFF3118081F31188BFF3B2
:104840004F8FBFF36F8F00BF0546A06BE16B8842AF
:1048500001D3022E23D194F945B032465146204669
:10486000FEF7CBFD0BF1010088B9606A08B90120A1
:1048700000E0002080B904F1240000F083FA58B170
:10488000B8F1000F08D00120C8F8000004E00BF1D7
:10489000010040B284F845004FF0010901E04FF0FB
:1048A000000900BF85F3118800BF4846BDE8F09FAE
:1048B0002DE9F04706460F46344654B900BF502054
:1048C00080F31188BFF34F8FBFF36F8F00BF00BF1E
:1048D000FEE7206C08B9012000E0002050B900BFBD
:1048E000502080F31188BFF34F8FBFF36F8F00BF4D
:1048F00000BFFEE7206808B9606808B9012000E041
:10490000002050B900BF502080F31188BFF34F8FB3
:10491000BFF36F8F00BF00BFFEE7FFF7F3FA00BFE2
:104920005021EFF3118081F31188BFF34F8FBFF354
:104930006F8F00BF0546D4F83890E06B48451ED90C
:1049400094F945A009F10100A0630AF1010070B9D2
:10495000606A08B9012000E0002068B904F1240071
:1049600000F010FA40B13FB10120386004E00AF1D4
:10497000010040B284F845004FF0010801E04FF01B
:10498000000800BF85F3118800BF4046BDE8F087EE
:104990002DE9F05F064689461746344654B900BFF4
:1049A000502080F31188BFF34F8FBFF36F8F00BF8C
:1049B00000BFFEE7B9F1000F01D1206C08B901205A
:1049C00000E0002050B900BF502080F31188BFF3F1
:1049D0004F8FBFF36F8F00BF00BFFEE7FFF792FA64
:1049E00000BF5021EFF3118081F31188BFF34F8F87
:1049F000BFF36F8F00BF0546D4F838A0BAF1000F9F
:104A000022D094F944B049462046FEF7E1FCAAF1D1
:104A10000100A0630BF1010070B9206908B9012001
:104A200000E0002068B904F1100000F0ABF940B1DB
:104A30003FB10120386004E00BF1010040B284F87E
:104A400044004FF0010801E04FF0000800BF85F37B
:104A5000118800BF4046BDE8F09F000070B50446D5
:104A60000D4654B900BF502080F31188BFF34F8F1B
:104A7000BFF36F8F00BF00BFFEE755B900BF5020E6
:104A800080F31188BFF34F8FBFF36F8F00BF00BF5C
:104A9000FEE7FFF795F9124803682868401C08B93B
:104AA000002619E00F4920680968884204D0606830
:104AB000984201D801260FE06068181A29688842D8
:104AC00009D228686168591A401A28602046FFF701
:104AD0002BFB002600E00126FFF79CF9304670BD55
:104AE000780000208C0000202DE9FF4F85B0804623
:104AF00089461746DDE912ABB800FFF73FF80646D6
:104B000056B15420FFF73AF804460CB1266304E08E
:104B10003046FFF79DF900E000247CB10020CDE98C
:104B200000ABCDE902403A4649464046089BFEF7B5
:104B300024FD2046FEF78EFB012501E04FF0FF35F6
:104B4000284609B0BDE8F08F0549096809B9012078
:104B500005E00449096809B9022000E00020704717
:104B6000800000209C000020014908687047000078
:104B7000780000202DE9F0414FF00008444800681B
:104B8000002877D143480068451C4248056015BBA2
:104B900041480068006808B9012000E0002050B9D1
:104BA00000BF502080F31188BFF34F8FBFF36F8F8A
:104BB00000BF00BFFEE7384807683848006836493C
:104BC00008603648076036480068401C3449086071
:104BD000FEF7E8FE00BF3348006885423CD300BFC3
:104BE0002D480068006808B9012000E0002020B1CD
:104BF0004FF0FF302B4908602DE027480068C0685F
:104C0000C4686668B54202D22648066023E0201DCB
:104C1000FFF774F8A06A18B104F11800FFF76EF8F6
:104C200094F82C10012088401F49096808431E4948
:104C30000860E16A01EB81011C4A02EB8100211D41
:104C4000FFF7B2F81A49E06A0968C96A8842C7D30F
:104C50004FF00108C4E700BF15480068C06A00EBC8
:104C60008000124951F82000012801D94FF00108B5
:104C700005E0FFE70F480068401C0E4908600E4839
:104C8000006808B14FF001084046BDE8F08100001F
:104C90009C00002078000020680000206C000020AC
:104CA0008C000020940000207C000020185600207A
:104CB00064000020840000208800002070B50546B4
:104CC0002C460026002D55D02B480068844201D187
:104CD000012000E0002050B900BF502080F311886F
:104CE000BFF34F8FBFF36F8F00BF00BFFEE7A06C15
:104CF00050B900BF502080F31188BFF34F8FBFF32E
:104D00006F8F00BF00BFFEE7A06C401EA064616C07
:104D1000E06A88422ED0A06C60BB201DFEF7EEFF3B
:104D200078B9E06A00EB8000144951F8200040B9DE
:104D300094F82C10012088401149096881431048DB
:104D40000160606CE062E06AC0F10700A06194F865
:104D50002C10012088400A49096808430849086066
:104D6000E16A01EB8101054A02EB8100211DFFF799
:104D70001BF80126304670BD640000201856002044
:104D80007C00002070B50646F068C46854B900BFC6
:104D9000502080F31188BFF34F8FBFF36F8F00BF98
:104DA00000BFFEE704F11800FEF7A8FF15480068F1
:104DB000A8B9201DFEF7A2FF94F82C10012088400E
:104DC00011490968084310490860E16A01EB810153
:104DD0000E4A02EB8100211DFEF7E6FF04E004F11C
:104DE00018010B48FEF7E0FF0A49E06A0968C96A42
:104DF000884204D9012501200749086000E0002508
:104E0000284670BD9C0000207C0000201856002021
:104E1000CC560020640000208800002070B50024DB
:104E200000263648006850B900BF502080F3118832
:104E3000BFF34F8FBFF36F8F00BF00BFFEE7FEF7DA
:104E4000BFFF2E480068401E2C49086008460068D5
:104E500000284FD12A48006800284BD024E0294878
:104E6000C068C46804F11800FEF748FF201DFEF773
:104E700045FF94F82C100120884023490968084315
:104E800021490860E16A01EB8101204A02EB8100BF
:104E9000211DFEF789FF1E49E06A0968C96A884238
:104EA00002D301201B4908601648006808B9012098
:104EB00000E000200028D2D00CB1FEF773FD1648A8
:104EC000056865B100BFFFF755FE10B1012011491B
:104ED00008606D1E002DF6D100200F4908600D48B6
:104EE000006838B1012630070C490860BFF34F8FC6
:104EF000BFF36F8FFEF78EFF304670BD9C00002021
:104F000074000020CC5600207C00002018560020A1
:104F100064000020880000208400002004ED00E0F0
:104F20002DE9FC4705460E4617469846DDF82890C1
:104F30002820FEF723FE04463CB143463A4631465C
:104F40002846CDE90094FEF76DFB2046BDE8FC87BE
:104F50001CB50024FEF7D8F90D48006850B10D4883
:104F600002210023CA01CDE900100BA10C48FFF774
:104F7000BBFD044654B900BF502080F31188BFF335
:104F80004F8FBFF36F8F00BF00BFFEE720461CBDF1
:104F9000A8000020AC000020546D722053766300FE
:104FA000E53A00082DE9FE4304460D4616461F4625
:104FB000DDF828804FF0000954B900BF502080F37D
:104FC0001188BFF34F8FBFF36F8F00BF00BFFEE7A5
:104FD0001448006810B3009501960294062D15DA66
:104FE000FFF7B2FD022808D10023424669460D486A
:104FF0000068FFF70DFB814610E000231A46694662
:1050000008480068FFF704FB814607E000233A46A2
:10501000694604480068FFF7CFFB81464846BDE873
:10502000FE830000A800002051280008E850000876
:105030002D030008000000000000000080000000B8
:10504000B8500008DD2C000803000000000000003C
:1050500080000000C8500008652D00080300000013
:105060000000000080000000D85000083D2E00081D
:10507000030000000000000080000000A8500008AD
:105080001104000800000000000000008000000083
:1050900000000000000000000102030406070809E8
:1050A0000000000001020304475052535F44617442
:1050B0006153656E640000005553415254315F5393
:1050C00065727665000000005553415254325F53BB
:1050D00065727665000000005553415254335F53AA
:1050E00065727665000000004661725F4D6F64690D
:1050F000667900001451000800000020B400000090
:10510000F42E0008C8510008B40000207C5A0000AA
:10511000042F000800000000000000000000000054
:10512000000000000000000000000000000000007F
:10513000000000000000000000000000000000006F
:10514000000000000000000010000000010000004E
:1051500000A24A040000000000000000000000005F
:10516000000000000000000000000000AAAAAAAA97
:10517000000000000000000000000000000000002F
:10518000000000000000000000000000000000001F
:10519000000000000000000000000000000000000F
:1051A00000000000000000000000000000000000FF
:1051B00000000000000000000000000000000000EF
:0851C0000000000000000000E7
:0400000508000131BD
:00000001FF
