:020000040800F2
:10000000C8760020DD01000839280008E12000083A
:10001000F923000833030008C13300080000000082
:100020000000000000000000000000004501000882
:10003000950300080000000089010008892B0008D2
:10004000F7010008F7010008F7010008F7010008B0
:10005000F7010008F7010008F7010008F7010008A0
:10006000F7010008F7010008F7010008F701000890
:10007000F701000839030008F701000849030008E8
:1000800059030008F7010008F7010008F70100080C
:10009000F7010008F7010008F7010008F701000860
:1000A000F7010008F7010008F7010008F701000850
:1000B000F7010008F7010008F7010008F701000840
:1000C000F7010008F7010008F7010008F701000830
:1000D000F7010008D1310008593200083133000817
:1000E000F7010008F7010008F7010008F701000810
:1000F000792C0008F7010008F7010008F701000853
:10010000F7010008F7010008F7010008F7010008EF
:10011000F7010008F7010008F7010008F7010008DF
:10012000F7010008F7010008F7010008F7010008CF
:10013000DFF80CD000F0A6F800480047C9350008E9
:10014000C8760020224B19680868B0E8F00F80F3E9
:100150000988BFF36F8F4FF0000080F311884EF0D5
:100160000D0E70470000000006480068006880F32C
:10017000088862B661B6BFF34F8FBFF36F8F00DFA1
:1001800000BF00BF08ED00E0EFF30980BFF36F8F01
:100190000F4B1A6820E9F00F106008B54FF05000BF
:1001A00080F31188BFF34F8FBFF36F8F05F02AFAEA
:1001B0004FF0000080F31188BDE808401968086816
:1001C000B0E8F00F80F30988BFF36F8F704700BF6E
:1001D00064000020EFF30580704700000648804768
:1001E00006480047FEE7FEE7FEE7FEE7FEE7FEE71C
:1001F000FEE7FEE7FEE7FEE7212C000831010008DC
:1002000040EA01039B0703D009E008C9121F08C098
:10021000042AFAD203E011F8013B00F8013B521E18
:10022000F9D27047D2B201E000F8012B491EFBD28F
:1002300070470022F6E710B513460A4604461946F1
:10024000FFF7F0FF204610BD034611F8012B00F820
:10025000012B002AF9D11846704720F00040C10D4B
:10026000C0F3160040F400007F2901DA0020704737
:10027000962903DCC1F19601C84070479639884041
:1002800070470000064C074D06E0E06840F00103AF
:1002900094E8070098471034AC42F6D3FFF74CFFC0
:1002A000446E0008646E000870B58C1810F8015B8D
:1002B00015F0070301D110F8013B2A1106D110F8FF
:1002C000012B03E010F8016B01F8016B5B1EF9D103
:1002D0002B0705D40023521E0DD401F8013BFAE789
:1002E00010F8013BCB1A921C03E013F8015B01F8F4
:1002F000015B521EF9D5A142D8D3002070BD30B5A4
:10030000A1B005460C46802101A8FFF792FF2246C6
:10031000294601A8FFF774FF002006E0611E091AB4
:1003200001AA515C2954411CC8B2A042F6DB21B09D
:1003300030BD00BFFEE7000010B5024800F0F6F93E
:1003400010BD00008002002010B5024800F0EEF958
:1003500010BD0000F801002010B5024800F0E6F9D9
:1003600010BD00003C02002030B590F84050012440
:10037000AC40C56B6C60046863604468102C04D1A9
:100380000468A2600468E16003E00468A160046896
:10039000E26030BD704700001CB5002001900024D1
:1003A00000260027002532A00068009000BF3149D8
:1003B00000235A1E086801A905F0C2FA01980079C5
:1003C00055284ED101984079AA284AD101988079C0
:1003D000022846D10198817BC07B01EB002084B2CA
:1003E0000198001D04F10C01425C0198001D491C9C
:1003F000405C02EB002086B2C91E0198801D03F00C
:10040000BFF8B0422DD1601EC11700EB9171C1F34E
:10041000870700201FE081000D31019A121D535CF7
:1004200081000E31019A121D515C03EB01218DB246
:100430000A2D0EDC81000F31019A121D535C8100E0
:100440001031019A121D515C03EB01210A4A22F876
:100450001510411CC8B2B842DDDB0221684602F02B
:100460004DFF019804F052FE002001909FE700002C
:1004700080020000280000201006002008B500209F
:10048000009000BF4FF0FF312D48006803F034F9B1
:100490001C2240F2AF41012001F0B0FF29490023A6
:1004A0004FF4FA720868694605F04AFA132241F2DD
:1004B000EF31012001F0A2FF009801F0DFFF00986A
:1004C00004F024FE002000901E4900234FF4FA722D
:1004D0000868694605F034FA102251023F2001F005
:1004E0008DFF009801F0CAFF009804F00FFE002075
:1004F0000090144900234FF4FA720868694605F029
:100500001FFA022251033F2001F078FF009801F00A
:10051000B5FF009804F0FAFD00200090094900237F
:100520004FF4FA720868694605F00AFA009801F07B
:10053000A5FF009804F0EAFD00200090A2E700006B
:10054000240000202C000020014600200A681268C8
:1005500022F00E020B681A600A68126822F001028B
:100560000B681A6091F8403001229A40CB6B5A60B8
:10057000012281F8212000BF002281F8202000BF45
:100580007047000070B50446002594F82100022849
:1005900003D00420A0630125C1E02068006820F09A
:1005A0000E00216808602068006820F001002168C2
:1005B00008605C492068884252D95A4978392068D5
:1005C000884201D1012047E05649643920688842B9
:1005D00001D1102040E0534950392068884201D1B0
:1005E000801539E04F493C392068884201D1801498
:1005F00032E04C4928392068884202D14FF48030DB
:100600002AE0484914392068884202D14FF480100A
:1006100022E044492068884201D140041CE042495C
:100620002068884201D1012016E03F49143120683A
:10063000884201D110200FE03B49283120688842D0
:1006400001D1801508E038493C312068884201D149
:10065000801401E04FF480303349091F086051E0F5
:10066000304978392068884201D1012047E02D497E
:1006700064392068884201D1102040E0294950396E
:100680002068884201D1801539E026493C3920682C
:10069000884201D1801432E02249283920688842FA
:1006A00002D14FF480302AE01E4914392068884274
:1006B00002D14FF4801022E01A492068884201D10B
:1006C00040041CE018492068884201D1012016E04E
:1006D000154914312068884201D110200FE01249D9
:1006E00028312068884201D1801508E00E493C314C
:1006F0002068884201D1801401E04FF4803009491C
:1007000080394860012084F8210000BF002084F86F
:10071000200000BF606B10B12046616B88472846FF
:1007200070BD0000800002400804024070B504461D
:10073000E06B05682068066894F840100420884043
:100740002840002875D006F004000028FAD0206860
:10075000006800F0200028B92068006820F004003C
:1007600021680860D5492068884254D9D34978392E
:100770002068884201D1042049E0D04964392068CA
:10078000884201D1402042E0CC495039206888425B
:1007900001D100153BE0C9493C392068884202D1AB
:1007A0004FF4804033E0C54928392068884202D19F
:1007B0004FF480202BE0C14914392068884202D1CF
:1007C0004FF4800023E0BD492068884201D1C00475
:1007D0001DE0BB492068884201D1042017E0B849D8
:1007E00014312068884201D1402010E0B4492831FA
:1007F0002068884201D1001509E0B1493C312068E8
:10080000884202D14FF4804001E04FF48020AC498F
:10081000091F086054E0A94978392068884201D14D
:1008200004204AE0A54964392068884202D140206A
:1008300043E04CE0A14950392068884201D10015BD
:100840003BE09E493C392068884202D14FF4804009
:1008500033E09A4928392068884202D14FF4802039
:100860002BE0964914392068884202D14FF4800069
:1008700023E092492068884201D1C0041DE09049DC
:100880002068884201D1042017E08D491431206886
:10089000884201D1402010E08949283120688842EF
:1008A00001D1001509E086493C312068884202D117
:1008B0004FF4804001E04FF4802080498039486047
:1008C000E06A002802D02046E16A8847F4E094F804
:1008D0004010022088402840002871D006F0020015
:1008E0000028FAD02068006800F0200040B9206895
:1008F000006820F00A0021680860012084F82100C7
:100900006E492068884254D96C49783920688842F9
:1009100001D1022049E0694964392068884201D147
:10092000202042E0654950392068884201D14015B5
:100930003BE062493C392068884202D14FF40050C4
:1009400033E05E4928392068884202D14FF40030F4
:100950002BE05A4914392068884202D14FF4001024
:1009600023E056492068884201D180041DE05449A3
:100970002068884201D1022017E0514914312068D3
:10098000884201D1202010E04D492831206888425A
:1009900001D1401509E04A493C312068884202D122
:1009A0004FF4005001E04FF400304549091F086042
:1009B00054E0424978392068884202D102204AE056
:1009C00057E03E4964392068884201D1202042E046
:1009D0003A4950392068884201D140153BE03749F7
:1009E0003C392068884202D14FF4005033E033494B
:1009F00028392068884202D14FF400302BE02F497B
:100A000014392068884202D14FF4001023E02B49AA
:100A10002068884201D180041DE02949206888426D
:100A200001D1022017E0264914312068884201D103
:100A3000202010E0224928312068884201D1401549
:100A400009E01F493C312068884202D14FF4005030
:100A500001E04FF4003019498039486000BF0020A0
:100A600084F8200000BFA06A30B32046A16A8847FE
:100A700022E094F84010082088402840E0B106F0B9
:100A80000800C8B12068006820F00E0021680860E6
:100A900094F8401001208840E16B48600120A06379
:100AA00084F8210000BF002084F8200000BF206BE4
:100AB00010B12046216B884770BD000080000240C5
:100AC000080402400146002209B901207047204B6A
:100AD000086898420BD21F4B0868C01A1423B0FB59
:100AE000F3F0800008641B480838C8630AE0184B1C
:100AF0000868C01A1423B0FBF3F08000086414489F
:100B00000838C863022081F821000868026843F6AB
:100B1000F0708243D1E901031843CB6818430B6995
:100B200018434B6918438B691843CB691843024338
:100B30000868026000208862C862086348638863AE
:100B4000012081F82100002081F8200000BFBDE7CE
:100B500008040240080002402DE9F04104460D4619
:100B600016461F464FF0000800BF94F820000128E9
:100B700002D10220BDE8F081012084F8200000BFEE
:100B800094F8210001282CD1022084F821000020B3
:100B9000A0632068006820F00100216808603B46DF
:100BA000324629462046FFF7DFFBE06A30B1206875
:100BB000006840F00E00216808600BE020680068C3
:100BC00020F00400216808602068006840F00A00F6
:100BD000216808602068006840F001002168086012
:100BE00006E000BF002084F8200000BF4FF002089C
:100BF0004046BFE72DE9F8470246002400200025C3
:100C00008446002700237BE14FF0010808FA03F433
:100C1000D1F8008008EA0400A0427DD1DFF8ECA200
:100C2000D1F80480A8EB0A09D0453AD014DCB8F119
:100C3000030F50D009DCB8F1000F31D0B8F1010F2B
:100C40001CD0B8F1020F49D120E0B8F1110F18D033
:100C5000B8F1120F42D11EE0B9F5881F25D006DC8D
:100C6000B9F5803F20D0B9F5801F37D11AE0B9F52A
:100C7000001F18D0B9F5041F30D117E0D1F80CC00F
:100C80002DE0D1F80C8008F1040C28E0D1F80C809C
:100C900008F1080C23E0D1F80C8008F10C0C1EE0E0
:100CA00000BF00BF00BF00BF00BF00BFD1F8088079
:100CB000B8F1000F02D14FF0040C0BE0D1F808801E
:100CC000B8F1010F03D14FF0080C146102E04FF0AE
:100CD000080C546103E04FF0000C00E000BF00BFBF
:100CE000FF2801D8904601E002F104084646FF289B
:100CF00002D84FEA830803E0A3F108084FEA880806
:100D00004746D6F800804FF00F0909FA07F928EA9C
:100D100009080CFA07F900E07AE048EA0908C6F881
:100D20000080D1F8048008F08058B8F1805F6FD15E
:100D300000BFDFF8DC81D8F8188048F00108DFF840
:100D4000D091C9F81880C846D8F8188008F0010872
:100D5000CDF8008000BF00BF4FEAB9384FEA9309D1
:100D600058F829504FEA83784FEA18794FF00F0866
:100D700008FA09F825EA0805DFF89881424502D10A
:100D80004FF0000824E0DFF89081424502D14FF097
:100D900001081DE0DFF88481424502D14FF00208CE
:100DA00016E0DFF87C81424502D14FF003080FE0E6
:100DB000DFF87081424502D14FF0040808E0DFF807
:100DC0006881424502D14FF0050801E04FF0060866
:100DD0004FEA83794FEA197908FA09F848EA0505D4
:100DE000DFF848814FEA930948F82950D1F8048088
:100DF00008F48038B8F5803F0BD1DFF83481D8F89B
:100E0000008048EA0008DFF82891C9F800800AE06D
:100E100075E0DFF81C81D8F8008028EA0008DFF8C8
:100E20001091C9F80080D1F8048008F40038B8F5B2
:100E3000003F0ED1DFF8F88008F10408D8F80080F0
:100E400048EA0008DFF8E89009F10409C9F80080D1
:100E50000DE0DFF8DC8008F10408D8F8008028EA0B
:100E60000008DFF8CC9009F10409C9F80080D1F836
:100E7000048008F48018B8F5801F0ED1DFF8B08028
:100E800008F10808D8F8008048EA0008DFF8A090C8
:100E900009F10809C9F800800DE0DFF8948008F135
:100EA0000808D8F8008028EA0008DFF8849009F1E3
:100EB0000809C9F80080D1F8048008F40018B8F5D2
:100EC000001F0ED1DFF8688008F10C08D8F8008008
:100ED00048EA0008DFF8589009F10C09C9F80080C9
:100EE0000DE0DFF84C8008F10C08D8F8008028EA03
:100EF0000008DFF83C9009F10C09C9F800805B1C80
:100F0000102BFFF481AEBDE8F8870000000011103F
:100F10000010024000080140000C01400010014098
:100F20000014014000180140001C0140080001406D
:100F3000000401400AB1016101E00B040361704744
:100F40000148006870470000300000200348006836
:100F500003490978084401490860704730000020BF
:100F60003800002010B50848006840F0100006491D
:100F70000860032000F0ECF8002000F007F800F013
:100F800049F8002010BD00000020024070B588B074
:100F9000044600250026002221462C2000F099F866
:100FA0002C2000F089F800BF1648806940F40050FA
:100FB000144988610846806900F40050019000BF20
:100FC00000BF02A903A800F0A9F900F0DFF9054667
:100FD0000D48B5FBF0F0461E0C480D49086040F284
:100FE000E7310B48C160466000210161816000F07B
:100FF00077FC20B9064800F08EFC08B070BD0120D7
:10100000FBE700000010024040420F0000340140A6
:10101000C402002008B500BF2548806940F00100E7
:10102000234988610846806900F00100009000BFF4
:1010300000BF00BF0846C06940F08050C861084644
:10104000C06900F08050009000BF00BF032000F096
:101050007FF8002211466FF00B0000F03AF80022F2
:1010600011466FF00A0000F034F8002211466FF0CC
:10107000090000F02EF800221146501F00F029F858
:1010800000221146101F00F024F800220F21901EAC
:1010900000F01FF800220F21501E00F01AF800BFC8
:1010A0000449486820F0E06000BF486000BF08BD08
:1010B000001002400000014000BF00F01F020121AB
:1010C00091404209920002F1E022C2F8001100BFF3
:1010D00070472DE9F05F80460D461646002701F067
:1010E000ADFB074639462A46334601F00700C0F1FA
:1010F000070ABAF1040F02D94FF0040A01E0C0F167
:10110000070AD14600F1040ABAF1070F02D24FF0E4
:10111000000A01E0A0F1030AD4464FF0010A0AFADE
:1011200009FAAAF1010A0AEA020A0AFA0CFA4FF0CD
:10113000010B0BFA0CFBABF1010B0BEA030B4AEAB8
:101140000B042146404601F081FBBDE8F09F000002
:1011500000BF00F00702064B19684FF6FF03194065
:10116000044B0B4343EA0221014B196000BF704757
:101170000CED00E00000FA0570B504460D460026AF
:101180006248006800F00700A8420ED25F4800687D
:1011900020F0070028435D4908600846006800F019
:1011A0000700A84201D0012070BD207800F00200A5
:1011B000022807D15648406820F0F000A168084393
:1011C00053494860207800F0010000285DD0606835
:1011D000012806D14E48006800F4003090B9012083
:1011E000E2E76068022806D14948006800F0007014
:1011F00040B90120D8E74648006800F0020008B96D
:101200000120D1E74248406820F0030061680843AC
:101210003F494860FFF794FE06466068012810D1F8
:1012200008E0FFF78DFE801B41F28831884201D92A
:101230000320B9E73648406800F00C000428F0D1DC
:1012400023E06068022810D108E0FFF779FE801BD8
:1012500041F28831884201D90320A5E72C48406833
:1012600000F00C000828F0D10FE008E0FFF768FE5E
:10127000801B41F28831884201D9032094E7244839
:10128000406800F00C000028F0D12048006800F011
:101290000700A8420ED91D48006820F00700284327
:1012A0001A4908600846006800F00700A84201D00B
:1012B000012079E7207800F00400042807D11448C1
:1012C000406820F4E060E1680843114948602078F4
:1012D00000F00800082808D10D48406820F460504C
:1012E000216940EAC1000A49486000F05FF80849F6
:1012F0004968C1F30311074A515CC84006490860B8
:101300000020FFF743FE00204EE7000000200240CF
:1013100000100240E06D00083C0000200F22026037
:101320000D4A526802F0030242600B4A526802F012
:10133000F0028260084A526802F4E062C260064A23
:10134000526802F46052D2080261044A126802F044
:1013500007020A60704700000010024000200240AF
:1013600001480068704700003C00002000B5FFF70E
:10137000F7FF04494968C1F30221034A515CC840A0
:1013800000BD000000100240F06D000800B5FFF73E
:10139000E7FF04494968C1F3C221034A515CC840D0
:1013A00000BD000000100240F06D0008F0B585B0EF
:1013B0000FF26C0C9CE8E01001A8A0E8E0101CA55E
:1013C0002D68009500210022002300240020194DE3
:1013D000696801F00C05F5B1042D02D0082D19D172
:1013E00001E0154819E001ADC1F38346AC5D01F49D
:1013F000803555B10F4D6D68C5F340451DF805208A
:101400000D4D6543B5FBF2F302E00C4D04FB05F313
:10141000184602E000BF084800BF00BF05B0F0BD9D
:1014200002030405060708090A0B0C0D0E0F101025
:10143000010200000010024000127A0000093D0085
:10144000F8B504460025207800F00100002878D087
:10145000F848406800F00C0004280CD0F5484068BB
:1014600000F00C00082811D1F248406800F48030E8
:10147000B0F5803F0AD1EF48006800F40030002842
:101480005FD0606800285CD10120F8BD00BF6068B3
:10149000B0F5803F06D1E748006840F48030E54968
:1014A000086028E0606858B9E248006820F480309D
:1014B000E04908600846006820F4802008601AE0CF
:1014C0006068B0F5A02F0BD1DA48006840F48020A6
:1014D000D84908600846006840F4803008600AE097
:1014E000D448006820F48030D2490860084600687B
:1014F00020F48020086000BF606888B1FFF720FDFD
:10150000054606E0FFF71CFD401B642801D90320B7
:10151000BBE7C848006800F400300028F2D010E0B3
:10152000FFF70EFD054606E0FFF70AFD401B6428A5
:1015300001D90320A9E7BF48006800F40030002863
:10154000F2D1207800F00200022857D1B948406853
:1015500000F00C0050B1B748406800F00C000828BB
:1015600018D1B448406800F4803098B9B148006898
:1015700000F0020020B12069012801D0012084E799
:10158000AC48006820F0F800616940EAC100A94950
:10159000086033E02069E8B10120A7490860FFF73F
:1015A000CFFC054606E0FFF7CBFC401B022801D923
:1015B00003206AE79F48006800F002000028F2D08C
:1015C0009C48006820F0F800616940EAC100994930
:1015D000086013E0002098490860FFF7B1FC054659
:1015E00006E0FFF7ADFC401B022801D903204CE7C1
:1015F0009048006800F002000028F2D1207800F046
:10160000080008282DD1A069B8B101208B490860D5
:10161000FFF796FC054606E0FFF792FC401B022808
:1016200001D9032031E78348406A00F00200002816
:10163000F2D0012001F01EF913E000207F4908607C
:10164000FFF77EFC054606E0FFF77AFC401B022808
:1016500001D9032019E77748406A00F0020000280A
:10166000F2D1207800F00400042873D100267148DC
:10167000C06900F0805070B900BF6E48C06940F08A
:1016800080506C49C8610846C06900F080500090E5
:1016900000BF00BF01266A48006800F48070B0B93E
:1016A0006748006840F4807065490860FFF748FCAF
:1016B000054606E0FFF744FC401B642801D90320DF
:1016C000E3E65F48006800F480700028F2D000BFB5
:1016D000E068012806D15748006A40F001005549EA
:1016E000086227E0E06858B95248006A20F001001B
:1016F000504908620846006A20F00400086219E0B8
:10170000E06805280BD14B48006A40F004004949C5
:1017100008620846006A40F0010008620AE0454895
:10172000006A20F00100434908620846006A20F080
:101730000400086200BFE068A0B1FFF701FC0546A5
:1017400009E0FFF7FDFB401B41F28831884202D9D6
:1017500003209AE622E03748006A00F002000028E1
:10176000EFD012E0FFF7ECFB054608E0FFF7E8FBDF
:10177000401B41F28831884201D9032085E62D487B
:10178000006A00F002000028F0D1012E05D129489E
:10179000C06920F080502749C86100BFE069C8B324
:1017A0002448406800F00C00082860D0E069022856
:1017B00048D1002020490866FFF7C2FB054606E035
:1017C000FFF7BEFB401B022801D903205DE6194844
:1017D000006800F000700028F2D1206AB0F5803F68
:1017E00007D11448406820F40030A168084311492B
:1017F0004860D4E9080108430E49496821F474118E
:1018000008430C49486001200B490866FFF798FB24
:10181000054607E02DE0FFF793FB401B022801D9A6
:10182000032032E60348006800F000700028F2D080
:101830001FE00000001002400000424280044242CB
:101840000070004000200C490866FFF779FB054650
:1018500006E0FFF775FB401B022801D9032014E6C0
:101860000648006800F000700028F2D101E0012075
:101870000BE6002009E60000000042420010024092
:10188000042808D14FF0E021096941F004014FF02C
:10189000E022116107E04FF0E021096921F0040125
:1018A0004FF0E0221161704770B504462546681E6E
:1018B000B0F1807F01D301200FE0681E4FF0E021DE
:1018C00048610F214FF0FF3000F0C0FF00204FF0C3
:1018D000E021886107200861002070BD70477047D3
:1018E00010B504460CB9012010BD94F83D0028B98C
:1018F000002084F83C00204600F00CF8022084F818
:101900003D00211D206801F0BFF9012084F83D0051
:101910000020E9E7704701460868C06840F0010010
:101920000A68D0600868006840F001000A6810602A
:1019300000207047704710B5044620680069C0F366
:101940004000D8B12068C068C0F34000B0B16FF06B
:10195000020021680861012020772068806900F07A
:10196000030018B12046FFF7E5FF05E0204600F030
:10197000ADF8204600F0ABF8002020772068006921
:10198000C0F38000D8B12068C068C0F38000B0B157
:101990006FF00400216808610220207720688069C8
:1019A00000F4407018B12046FFF7C4FF05E0204660
:1019B00000F08CF8204600F08AF80020207720689C
:1019C0000069C0F3C000D8B12068C068C0F3C0008F
:1019D000B0B16FF00800216808610420207720680A
:1019E000C06900F0030018B12046FFF7A3FF05E02F
:1019F000204600F06BF8204600F069F800202077C0
:101A000020680069C0F30010D8B12068C068C0F336
:101A10000010B0B16FF01000216808610820207735
:101A20002068C06900F4407018B12046FFF782FFBB
:101A300005E0204600F04AF8204600F048F8002073
:101A400020772068006900F0010058B12068C06864
:101A500000F0010030B16FF00100216808612046FC
:101A600000F036F820680069C0F3C01058B1206853
:101A7000C068C0F3C01030B16FF080002168086109
:101A80002046FFF72BFF20680069C0F3801058B193
:101A90002068C068C0F3801030B16FF0400021684A
:101AA0000861204600F020F820680069C0F340106B
:101AB00058B12068C068C0F3401030B16FF020000A
:101AC000216808612046FFF70AFF10BD7047704784
:101AD00010B5044603492068884201D1FFF736FA61
:101AE00010BD000000340140704770B50446002569
:101AF00020684069C0F3C01594F8390021280ED140
:101B00006DB12068406920F0800021684861206B39
:101B100010B1206BFEF718FD204601F0ADF92068EA
:101B20004069C0F3801594F83A0022280ED16DB1B7
:101B30002068406920F0400021684861606B10B166
:101B4000606BFEF701FD204601F076F9002070BDC4
:101B5000704700002DE9F0470446206805682068BA
:101B6000C668206847694FF00008C14605F00F08B5
:101B7000B8F1000F0AD105F0200038B106F02000BE
:101B800020B1204601F082F9BDE8F087B8F1000FDE
:101B90006DD007F0010018B906F49070002866D0E7
:101BA00005F0010030B106F4807018B1E06B40F030
:101BB0000100E06305F0040030B107F0010018B146
:101BC000E06B40F00200E06305F0020030B107F086
:101BD000010018B1E06B40F00400E06305F008007C
:101BE00030B107F0010018B1E06B40F00800E0638D
:101BF000E06B68B305F0200028B106F0200010B1BA
:101C0000204601F043F920684069C0F38019E06B79
:101C100000F0080010B9B9F1000F22D0204601F001
:101C20000BF92068406900F04000B0B120684069BD
:101C300020F0400021684861606B50B11748616B2B
:101C40004863606BFEF79EFC10B1606B416B884788
:101C50000CE02046FFF77CFF08E02046FFF778FF06
:101C600004E02046FFF774FF0020E0638CE705F0F6
:101C7000800030B106F0800018B1204601F03EFA35
:101C800082E705F0400030B106F0400018B1204670
:101C900001F0E2F878E700BF76E70000812D000848
:101CA00010B504460CB9012010BDA06900B100E0D8
:101CB00000BF94F8390028B9002084F83800204685
:101CC00000F028F8242084F839002068C06820F447
:101CD00000502168C860204601F02CF92068006996
:101CE00020F49040216808612068406920F02A00B3
:101CF000216848612068C06840F400502168C860CD
:101D00000020E063202084F8390084F83A000020A5
:101D1000CAE7000010B586B004467A4920688842B8
:101D200045D100BF7848806940F480407649886199
:101D30000846806900F48040019000BF00BF48154C
:101D40000290022003900320059002A96F48FEF73D
:101D500051FF4FF48060029000200390049002A98C
:101D60006A48FEF747FF6A486A49086000204860F1
:101D70000021684881608021C160002101614161CA
:101D80008161C161FEF79EFE18B1A32162A001F03E
:101D900073FB00BF5F486063446200BF00220521FF
:101DA0002520FFF796F92520FFF786F9A8E05E4980
:101DB000206888424ED100BF5348C06940F40030CB
:101DC0005149C8610846C06900F40030019000BF65
:101DD00000BF20200290022003900320059002A95A
:101DE0005248FEF707FF4020029000200390049025
:101DF00002A94E48FEF7FEFE00BF4D49486840F07C
:101E0000E06040F00800486000BF41481430494994
:101E10000860002048600021464881608021C16040
:101E20000021016141618161C161FEF74BFE18B182
:101E3000D32139A001F020FB00BF3E48606344621B
:101E400000BF002205212620FFF743F92620FFF7D7
:101E500033F955E038492068884251D100BF2A48FB
:101E6000C06940F480202849C8610846C06900F470
:101E70008020019000BF00BF8815029002200390CF
:101E80000320059002A92948FEF7B4FE4FF4007024
:101E9000029000200390049002A92448FEF7AAFEB5
:101EA00000BF2349486820F0300040F0E06040F077
:101EB0003000486000BF16482838204908600020DC
:101EC000486000211D4881608021C16000210161BE
:101ED00041618161C161FEF7F5FD20B140F203115E
:101EE0000DA001F0C9FA00BF14486063446200BF4E
:101EF000002205212720FFF7ECF82720FFF7DCF868
:101F000006B010BD0038014000100240000801403A
:101F100058000240F80100202E2E2F5372632F75B7
:101F2000736172742E63000000440040001401408D
:101F3000000001403C0200200048004080020020D8
:101F400077B581B00446154694F83A00202850D160
:101F5000029800B115B9012004B070BD00BF94F81B
:101F60003800012801D10220F6E7012084F838006A
:101F700000BF0298A062A5850020E063222084F8BB
:101F80003A001D48616B88621C48616BC8621C483E
:101F9000616B08630020616B486302AE326823689E
:101FA000191D2B46606BFEF7D7FD00BF0020009087
:101FB00020680068009020684068009000BF00BF63
:101FC00000BF002084F8380000BF2068C06840F4DB
:101FD00080702168C8602068406940F00100216875
:101FE00048612068406940F0400021684861002055
:101FF000B2E70220B0E70000E52D00082B2E000814
:10200000952D0008704770472DE9F84304460D46AA
:1020100016461F464FF0000994F8390020285CD17D
:1020200005B116B90120BDE8F88300BF94F8380067
:10203000012801D10220F6E7012084F8380000BF12
:102040000020E063212084F83900FEF779FF814603
:10205000A684E6842BE0E08C401EE084A068B0F506
:10206000805F16D14B46002280212046009701F068
:1020700079F808B10320D6E7A846B8F80000C0F305
:10208000080021684860206908B9AD1C0FE06D1C8C
:102090000DE04B46002280212046009701F062F8B7
:1020A00008B10320BFE715F8010B21684860E08CF8
:1020B0000028D0D14B46002240212046009701F055
:1020C00051F808B10320AEE7202084F8390000BFA2
:1020D000002084F8380000BFA5E70220A3E770477E
:1020E00000BFFEE708B500BF1248406940F001009C
:1020F000104948610846406900F00100009000BFA7
:1021000000BF002205210D20FEF7E3FF0D20FEF7A2
:10211000D3FF002205210F20FEF7DBFF0F20FEF783
:10212000CBFF002205211020FEF7D3FF1020FEF781
:10213000C3FF08BD0010024000B59FB000201E90F4
:1021400001211EA801F09AFA3A49086000201D906A
:1021500001211DA801F092FA3749086000201C9067
:1021600001211CA801F08AFA3449086000201B9064
:1021700001211BA801F082FA31490860314800684A
:102180001A90002201211AA801F00CFB2E490860C8
:1021900041F288312C48006801F018FB14222949CB
:1021A000091D15A8FEF72CF8002115A801F0E2FA88
:1021B0002649086014222349183110A8FEF720F898
:1021C000002110A801F0D6FA2149086014221D4907
:1021D0002C310BA8FEF714F800210BA801F0CAFA65
:1021E0001C49086014221749403106A8FEF708F878
:1021F000002106A801F0BEFA17490860142211490F
:10220000543101A8FDF7FCFF002101A801F0B2FA4A
:102210001249086000220421052003F065FB1049E3
:10222000086000220421142003F05EFB0D490860C1
:102230001FB000BD180000201C000020200000205E
:1022400024000020786D0008140000200000002009
:1022500004000020080000200C00002010000020D6
:10226000280000202C00002000B585B000BF2548C4
:10227000806940F02000234988610846806900F0A9
:102280002000009000BF00BF00BF0846806940F0FA
:10229000040088610846806900F00400009000BFD7
:1022A00000BF00BF0846806940F00800886108460A
:1022B000806900F00800009000BF00BF002289156F
:1022C0001148FEF737FE002210211048FEF732FEBB
:1022D0004FF480700190012002900390032004903D
:1022E00001A90948FEF786FC102001900120029008
:1022F00003900320049001A90448FEF77BFC05B07D
:1023000000BD000000100240000801400014014020
:1023100010B50C480C4908604FF4E13048600021CA
:1023200009488160C16001610C2141610021816126
:10233000C161FFF7B5FC18B1522104A001F09CF86F
:1023400010BD000000380140380100202E2E2F5310
:1023500072632F75736172742E63000010B50D489F
:102360000D4908604FF41650486000210A4881600A
:102370004FF40051C160002101610C214161002135
:102380008161C161FFF78CFC18B1652103A001F0E8
:1023900073F810BD00440040780100202E2E2F530A
:1023A00072632F75736172742E63000010B50C4850
:1023B0000C4908604FF4E130486000210948816011
:1023C000C16001610C21416100218161C161FFF7A0
:1023D00067FC18B1782104A001F04EF810BD000090
:1023E00000480040B80100202E2E2F5372632F7535
:1023F000736172742E63000000BFFEE72DE9FC419B
:1024000007460C46154600200090019000268DF8E6
:10241000007003208DF8010020128DF80200204684
:10242000E11704EB11610912A4EB0121C9B28DF887
:10243000031028128DF804002846E91705EB1161F6
:102440000912A5EB0121C9B28DF8051006216846D5
:1024500001F096F806463046F11706EB11610912B5
:10246000A6EB0121C9B28DF8061030128DF80700D5
:102470000821684600F0D6FEBDE8FC81F8B50446A8
:102480000025002600270020009020793F2865D1F4
:102490006079032800D00227A579201DE91C425C41
:1024A000291D405C02EB002086B2E91C201D01F0D2
:1024B00067F8B04200D00127042D02D0202D4AD168
:1024C0000CE0D4F80700009004216846FDF717FFE0
:1024D0000098FDF7C2FE794908843EE0D4F8070071
:1024E000009004216846FDF70AFF0098FDF7B5FE4D
:1024F0007249C882D4F80B00009004216846FDF7A9
:10250000FEFE0098FDF7A9FE6C490883D4F80F0081
:10251000009004216846FDF7F2FE0098FDF79DFE4D
:1025200066494883D4F81B00009004216846FDF7F3
:10253000E6FE0098FDF791FE60498883D4F82300F9
:10254000009004216846FDF7DAFE0098FDF785FE4D
:102550005A49C88301E0032700BFACE02079012875
:10256000FBD16079032800D00227A579201DE91C42
:10257000425C291D405C02EB002086B2E91C201D54
:1025800000F0FEFFB04200D00127262D38D0382DB4
:102590007ED1217AE07901EB002048494884217BF3
:1025A000E07A01EB002045498884A17B607B01EB48
:1025B00000204249C884217CE07B01EB00203F4998
:1025C0000885A17C607C01EB00203C494885217D89
:1025D000E07C01EB00203949888594F83C1094F8A0
:1025E0003B0001EB00203549A1F8400094F83E1073
:1025F00094F83D0001EB00203049A1F8420059E079
:10260000217AE07901EB00202C49C885217BE07A12
:1026100001EB002029490886A17B607B01EB0020AB
:1026200026494886217CE07B01EB002023498886EF
:10263000217EE07D01EB00202049C886A17E607EDE
:1026400001EB00201D490887217FE07E01EB00207F
:102650001A4948872220015D2120005D01EB0020FE
:102660001649888794F824102320005D01EB002090
:102670001249C88794F8281094F8270001EB00202D
:102680000E49A1F8440094F82A1094F8290000E0BB
:102690000EE001EB00200949A1F8460094F82C1047
:1026A00094F82B0001EB00200449A1F8440001E05C
:1026B000032700BF00BF3846F8BD00001006002009
:1026C0002DE9F05F06460F469046344654B900BFE8
:1026D000502080F31188BFF34F8FBFF36F8F00BF7F
:1026E00000BFFEE7206C08B9012000E0002050B9CF
:1026F00000BF502080F31188BFF34F8FBFF36F8F5F
:1027000000BF00BFFEE7206808B9606808B9012073
:1027100000E0002050B900BF502080F31188BFF3C3
:102720004F8FBFF36F8F00BF00BFFEE702F064FD65
:1027300000BF5021EFF3118081F31188BFF34F8F59
:10274000BFF36F8F00BF0546D4F838A0E06B50454B
:1027500043D994F945B0204601F098FE35490988DF
:102760000840E8B194F84C0020B1022810D00328AA
:1027700015D10CE0A16B4A1CB8F1000F01D1592111
:1027800000E0C3210846214602F016F807E000BF2A
:10279000A06B421C21465A2002F00EF800BF00BF79
:1027A0000AF10100A0630BF1010070B9606A08B979
:1027B000012000E0002068B904F1240004F020F8B2
:1027C00040B13FB10120386004E00BF1010040B29C
:1027D00084F845004FF0010924E0204601F056FE40
:1027E000144909880840D8B194F84C0020B1022857
:1027F0000FD0032813D10BE0A26BB8F1000F01D169
:102800005C2100E0C4210846214601F0D5FF06E026
:1028100000BFA26B21465D2001F0CEFF00BF00BFCC
:102820004FF0000900BF85F3118800BF4846BDE89E
:10283000F09F00002401002070470000024800685B
:10284000C0F30220704700000CED00E010B5002836
:1028500007DA0A07140E054A00F00F031B1FD454B1
:1028600003E00A07130E024A135410BD18ED00E0EE
:1028700000E400E008B508490968C9084FF47A7215
:10288000B1FBF2F14143009100BF00BF00994A1E25
:1028900000920029F9D108BD3C0000202DE9F04745
:1028A00004460E4617469846DDF8209000BF24489F
:1028B000007808B900F0AAFD00BF21484069A04295
:1028C00039D9EFF311810846202181F3118800BF27
:1028D00000BF0CB304EB44021949603141F8326087
:1028E00004EB440201EBC2014F6004EB44021449C3
:1028F000603101EBC201C1F80880002204EB4403FF
:102900000F49603101EBC3010A6104EB44030C4938
:10291000603101EBC301CA6004EB44020849603135
:1029200001EBC201C1F81490C1B281F3118800BF5C
:1029300000BF002501E04FF0FF352846BDE8F087D5
:10294000CC7100202DE9F04704460E461746984604
:10295000DDF8209000BF2448007808B900F056FD4B
:1029600000BF21480069A04239D9EFF31181084620
:10297000202181F3118800BF00BF0CB304EB440297
:102980001949183141F8326004EB440201EBC201ED
:102990004F6004EB44021449183101EBC201C1F845
:1029A0000880002204EB44030F49183101EBC301F6
:1029B0000A6104EB44030C49183101EBC301CA60FE
:1029C00004EB44020849183101EBC201C1F814902C
:1029D000C1B281F3118800BF00BF002501E04FF0B4
:1029E000FF352846BDE8F087CC7100202DE9F04185
:1029F00004460D461646EFF311808046202080F3F2
:102A0000118800BF00BF32462946204600F00AF870
:102A1000074608F0FF0080F3118800BF00BF38466A
:102A2000BDE8F0812DE9F74F8346174600BF2248E5
:102A3000007808B900F0EAFC00BF0BEB4B011E4820
:102A4000603000EBC106DDF804903569D6F80CA0C3
:102A50004FF00008554515D9B068441BBC4201D25F
:102A6000204600E038460446706841192246484630
:102A7000FDF7C6FBA044A1443F1B2544B068A84213
:102A800000D10025AAEB0504BC4201D2204600E09B
:102A9000384604464CB17068411922464846FDF755
:102AA000AFFBA044A1443F1B2544B8F1000F00D068
:102AB00035614046BDE8FE8FCC7100202DE9F04124
:102AC00004460D46164600BF0D48007808B900F0D0
:102AD0009DFC00BFEFF311800746202080F3118892
:102AE00000BF00BF32462946204600F00BF8804662
:102AF000F8B280F3118800BF00BF4046BDE8F08106
:102B0000CC7100202DE9F047074688461646C2469C
:102B100007EB47011B4800EBC109D9F8140020B1AD
:102B2000012811D0022826D11EE0484600F0A6FC5C
:102B30000546B54201D2002405E0344632465146EE
:102B4000484600F0E2FC18E0484600F097FC0546D5
:102B5000B54201D2284600E030460446224651469E
:102B6000484600F0D2FC08E032465146484600F0A4
:102B700093FC044601E0002400BF00BF2046BDE8EE
:102B8000F0870000E471002010B500F0EBFD10BDEF
:102B900010B590B001200690000407900020089026
:102BA00001200A9002200D90C1030E914FF4E01114
:102BB0000F9106A8FEF744FC18B1A72114A000F05D
:102BC0005BFC0F20019002200290002003904FF444
:102BD0008060049000200590022101A8FEF7CCFA45
:102BE00018B1B5210AA000F047FCFEF7B9FB4FF47D
:102BF0007A71B0FBF1F42046FEF756FE0420FEF792
:102C00003FFE00220F21501EFEF763FA10B010BDE8
:102C10002E2E2F5372632F6D61696E2E630000009C
:102C20001148006840F001000F49086008464068FC
:102C30000E4908400C494860084600680C490840A5
:102C4000094908600846006820F4802008600846AA
:102C5000406820F4FE0048604FF41F008860C803FD
:102C60000449086070470000001002400000FFF8AF
:102C7000FFFFF6FE08ED00E010B50248FEF75BFE30
:102C800010BD0000C4020020002202681F4B9842C1
:102C90000ED01F4B98420BD0B0F1804F08D01D4B87
:102CA000984205D01C4B984202D01C4B984203D14D
:102CB00022F070024B681A43144B98420ED0144B0A
:102CC00098420BD0B0F1804F08D0124B984205D0FB
:102CD000114B984202D0114B984203D122F440721A
:102CE000CB681A4322F080024B691A4302608B685A
:102CF000C3620B688362054B984202D0044B984232
:102D000001D10B690363012343617047002C01402B
:102D1000003401400004004000080040000C004066
:102D200010B504460248006800F0BEFC10BD00006B
:102D3000240000200EB50020009000241FE000BFFA
:102D4000002000906A46082101A802F00BF9044611
:102D500014B1692001F0DAFF4CB90098082806D1B7
:102D600001A801F057F910B101A801F075F9009818
:102D70000028E5D100F072FE0A2002F0C3FADEE777
:102D800070B505466C6A0020E085E0842046FEF7B9
:102D9000DFFE70BD70B506460025746A2068406984
:102DA000C0F3C01594F83900212805D125B10020C1
:102DB000E084204600F060F820684069C0F3801588
:102DC00094F83A00222805D125B10020E08520465C
:102DD00000F032F8E06B40F01000E0632046FEF7B0
:102DE000B7FE70BD70B505466C6A2868006800F0D3
:102DF0002000B0B90020E0852068C06820F4807011
:102E00002168C8602068406920F00100216848619D
:102E10002068406920F0400021684861202084F843
:102E20003A002046FFF7EEF870BD70B50446656ABB
:102E30002846FFF7E8F870BD0168C96821F4907171
:102E40000268D1600168496921F00101026851619D
:102E5000202180F83A10704710B504462068C068F9
:102E600020F040002168C860202084F83900204606
:102E7000FFF735F9002010BD0168C96821F0C001D5
:102E80000268D160202180F83910704770B504467F
:102E900094F83A0022284AD1A068B0F5805F13D197
:102EA000A56A206940B920684068C0F308002880FE
:102EB000A06A801CA06219E020684068C0B2288027
:102EC000A06A401CA06211E0206938B920684068FF
:102ED000C1B2A26A501CA062117007E0206840686D
:102EE00000F07F01A26A501CA0621170E08D401EAC
:102EF00080B2E085C8B92068C06820F02000216851
:102F0000C8602068C06820F480702168C8602068AC
:102F1000406920F0010021684861202084F83A00CF
:102F20002046FFF76FF8002070BD0020FCE702206C
:102F3000FAE700002DE9F041044600252068006909
:102F400020F44050E1680843216808612169A068C5
:102F500008436169084305432068C06841F20C6179
:102F6000884328432168C8602068406920F4407085
:102F7000A1690843216848615F49206888425CD1A3
:102F8000FEF704FA00EBC00101EB00106168890054
:102F9000B0FBF1F6FEF7FAF900EBC00101EB00100F
:102FA00061688900B0FBF1F06421B0FBF1F000EB47
:102FB000C00101EB0010A6EB8000322101EB0010F4
:102FC0006421B0FBF1F000F0F006FEF7DFF900EB52
:102FD000C00101EB001061688900B0FBF1F06421D1
:102FE000B0FBF1F006EB0016FEF7D0F900EBC001E4
:102FF00001EB001061688900B0FBF1F7FEF7C6F93C
:1030000000EBC00101EB001061688900B0FBF1F03A
:103010006421B0FBF1F000EBC00101EB0010A7EB65
:103020008000322101EB00106421B0FBF1F000F0D0
:103030000F003044216888605BE0FEF797F900EBF1
:10304000C00101EB001061688900B0FBF1F6FEF7EA
:103050008DF900EBC00101EB001061688900B0FB45
:10306000F1F06421B0FBF1F000EBC00101EB0010C6
:10307000A6EB8000322101EB00106421B0FBF1F0DF
:1030800000F0F006FEF772F900EBC00101EB001052
:1030900061688900B0FBF1F06421B0FBF1F006EB50
:1030A0000016FEF763F900EBC00101EB0010616848
:1030B0008900B0FBF1F7FEF759F900EBC00101EB15
:1030C000001061688900B0FBF1F06421B0FBF1F001
:1030D00000EBC00101EB0010A7EB8000322101EBF7
:1030E00000106421B0FBF1F000F00F0030442168C3
:1030F0008860BDE8F081000000380140014691F889
:10310000390021282CD18868B0F5805F0FD10A6A78
:103110001088C0F308000B685860086918B9086A7D
:10312000801C086209E0086A401C086205E00B6A1E
:10313000581C086218780B685860C88C401E80B212
:10314000C88458B90868C06820F080000B68D8604F
:103150000868C06840F040000B68D86000207047E5
:103160000220FCE72DE9F04104460D46174698463B
:10317000069E21E0701CF8B12EB1FDF7E1FEA0EB38
:103180000800B04218D92068C06820F4D0702168C7
:10319000C8602068406920F0010021684861202053
:1031A00084F8390084F83A0000BF002084F8380021
:1031B00000BF0320BDE8F081206800682840A842D5
:1031C00001D1012000E00020B842D3D00020F1E777
:1031D00010B50649064800F0F5F80648006800F00A
:1031E00063FA0348FEF7B6FC10BD0000040300209C
:1031F000380100201800002000BF4FF0FF310748C1
:10320000006800F079FA0648007800F00100002814
:10321000F3D0002002490870EFE7000018000020FA
:103220000403002070B504460D4601221021084811
:10323000FDF780FE4FF0FF332A4621460548FEF792
:10324000E3FE002210210248FDF774FE70BD00006D
:10325000001401407801002010B50649064800F02E
:10326000B1F80648006800F01FFA0348FEF772FC48
:1032700010BD000008040020780100201C00002080
:1032800008B50020009000BF4FF0FF3118480068DB
:1032900000F032FA1748007800F0010010B1002069
:1032A0001449087013480079012804D011480079A6
:1032B0003F2800D0E8E71049086801F08AFE20B1F5
:1032C0004FF4827001F06EFD0090009860B14FF4F1
:1032D000827208490098FCF793FF074900235A1EA1
:1032E0000868694602F096FD00200090CCE70000D7
:1032F0001C000020080400202C00002070B50446AB
:103300000D46012211020848FDF714FE4FF0FF336D
:103310002A4621460548FEF777FE00224FF48071C9
:103320000148FDF707FE70BD00080140B80100200C
:1033300010B50649064800F045F80648006800F058
:10334000B3F90348FEF706FC10BD00000C05002091
:10335000B80100202000002008B50020009000BF28
:103360004FF0FF311348006800F0C6F912480078AA
:1033700000F0010010B100200F4908700F490868E3
:1033800001F027FE20B14FF4827001F00BFD009098
:10339000009860B14FF4827207490098FCF730FF43
:1033A000064900235A1E0868694602F033FD0020D2
:1033B0000090D5E7200000200C0500202800002008
:1033C00000BFFEE7F8B504460D4620680068C0F36C
:1033D0000010D0B100BF002000902068006800906D
:1033E00020684068009000BF00BF2046FEF77DFBCC
:1033F000606B00684668C6F58070688001202870A0
:103400000202291D2046FEF79BFDF8BD10B5114CA8
:1034100003202061606110A0A0611249E161402198
:1034200021620021A1626162E1620BA020660E4967
:1034300061661021A16600212167E16661670BA129
:10344000E01DFCF701FF0AA12046FCF7FDFE20204D
:10345000A07110BDCC7100205465726D696E616CF5
:103460000000000074720020B47200205254540016
:10347000534547474552000000BFFEE710B50146DF
:103480000A69CB689A4204D88C68641EE41AA018B2
:1034900001E0D41A601E10BD2DE9F04704468946AC
:1034A00017464FF0000AE56800BFD4F81080A84521
:1034B00003D9A8EB0500461E04E0A5EB0800401C5C
:1034C000A1680E1AA068401BB04201D9304601E045
:1034D000A068401B0646BE4201D2304600E0384696
:1034E00006466168481932464946FCF789FEB244EF
:1034F000B144BF1B3544A068A84200D10025E56057
:10350000002FD2D15046BDE8F0872DE9F0470446A0
:1035100089461546E668A068871BAF4208D96168EE
:1035200088192A464946FCF76BFE7019E06010E0E6
:10353000B8466168881942464946FCF761FEA5EB2A
:10354000070809EB070142466068FCF759FEC4F81A
:103550000C80BDE8F087EFF31080704702E008C8E8
:10356000121F08C1002AFAD170477047002001E0FD
:1035700001C1121F002AFBD1704780F310887047E9
:1035800030B502460B464FF6FF70002110E0545C48
:103590006040002409E000F0010525B140104AF226
:1035A0000105684000E04010641C082CF3DB491C56
:1035B0009942ECDB30BD00BFEFF3058008B101207C
:1035C00070470020FCE70000FDF7CCFCFFF7E0FAB5
:1035D000FEF74AFEFEF786FDFEF79AFEFEF7BEFEF8
:1035E000FEF7E4FE4FF4807218491948FEF7A8FC74
:1035F00017480068C06840F0100015490968C860A5
:103600004FF4807213491448FEF79AFC1248006880
:10361000C06840F0100010490968C8604FF480721B
:103620000E490F48FEF78CFC0D480068C06840F05A
:1036300010000B490968C860002002F045F8FEF749
:103640007BFD00F016F800BFFEE700000803002035
:10365000380100200C040020780100201005002013
:10366000B801002001460020842901D0CA1C104462
:10367000704710B501F074FF002010BD70B506460C
:103680000D46012D0ED103220021012002F02CF95C
:1036900004462CB100231A461946204602F0BAFB14
:1036A000204670BD0020FCE738B504460025002008
:1036B0000090FFF780FF90B16946204602F00EFEB1
:1036C000012801D0FF2038BD009888B14FF080500C
:1036D00008490860BFF34F8FBFF36F8F08E00023E6
:1036E0001A461946204602F095FB012800D0FF2516
:1036F0002846E8E704ED00E0F8B506460C46002051
:1037000000900EB98020F8BD0025601C08B96D1E20
:1037100003E014B1254605B90125FFF74CFF98B128
:103720006A460021304602F0E3FD012801D0FF2067
:10373000E9E7009890B14FF0805009490860BFF365
:103740004F8FBFF36F8F09E000232A46194630469A
:1037500002F0F6F8012801D0FF20D4E70020D2E7DC
:1037600004ED00E010B502F0E3FE012801D002F004
:10377000A1F810BDFEB504460D46B4F90800FFF7E8
:1037800071FF064602A8CDE90060238A9AB22B4653
:10379000D4E9001002F096FE012801D00020FEBD01
:1037A0000298FCE7F8B504460D46164620680090DE
:1037B000012D01D1012000E0002002463346012105
:1037C00001A003F007F9F8BD000000002DE9FC415D
:1037D00006460C46002700200190254605B9012524
:1037E000FFF7E9FEB0B1002001AB2A4609210090A5
:1037F000304603F031F9012801D0FF2715E0019888
:1038000098B14FF080500A490860BFF34F8FBFF363
:103810006F8F0AE0002003462A46042100903046BC
:1038200003F01AF9012800D0FF273846BDE8FC81D3
:1038300004ED00E02DE9F04105460E461C480768FE
:103840001C480068001D01F0ADFB50B91948006824
:1038500090F82C10012088401749096881431648C8
:103860000160681C38B936B112480168091D134857
:1038700001F0F8FB1AE07C190E4800684460BC4275
:1038800007D20C480168091D0D48006801F0D0FB03
:103890000CE008480168091D0A48006801F0C8FBEF
:1038A00009480068844201D207480460BDE8F081FD
:1038B00078000020640000207C0000207857002061
:1038C0006C000020680000209400002070B50446C1
:1038D00001F0D4FB3F480068401C3E4908603E4868
:1038E000006840B93C4804600846006801280DD1D2
:1038F00000F0D2FA0AE03948006838B93648006862
:10390000C06AE16A884201D83348046034480068DC
:10391000401C334908600846006860644CB304F1F9
:103920003401204600F038FE2046E16A00F0F0FD48
:10393000234604F134020321012001F0CBF8294889
:103940000188204600F092FE00F096FD054600F04A
:10395000A7FD25490988084058B1204600F0A0FD80
:1039600021490988084020B121461020E26A00F070
:1039700023FF204600F094FD1B490988084018B138
:103980002146302000F0DCFE94F82C100120884005
:1039900016490968084315490860E16A01EB81018D
:1039A000134A02EB8100211D01F05CFB01F090FB4A
:1039B0000A48006868B108480068C06AE16A88423D
:1039C00007D24FF080500B490860BFF34F8FBFF311
:1039D0006F8F70BD74000020640000208000002004
:1039E0009000002026010020240100207C000020FF
:1039F0009C56002004ED00E010B501F03FFB10489C
:103A00000068D0B90F4801F003FB0F4801F000FB3C
:103A10000C480E4908600C480D49086000220C2132
:103A20000A2001F061FF064908600846006820B1DD
:103A300008A10348006801F01BFC01F049FB10BD20
:103A4000A80000208C570020A0570020A0000020D4
:103A5000A4000020546D72510000000010B52148F0
:103A6000006821490968884209D91E48006810B1D8
:103A7000652001F04BF91B4800681B4908601B4892
:103A800000681B490968884209D91848006810B1C4
:103A9000672001F03BF91548006815490860154892
:103AA00000681549096888420AD91248006819282F
:103AB00002D9662001F02AF90E4800680E49086014
:103AC0000E4800680E490968884209D90B48006809
:103AD00010B1682001F01AF9084800680849086028
:103AE00010BD000014010020BC00002018010020BF
:103AF000C00000201C010020C40000202001002084
:103B0000C800002070B523E001F074FD1348006880
:103B100008B9012000E00020054602F0CBFEBDB947
:103B200001F0ACFA0D48C068C468201D01F03AFAF3
:103B30000B480068401E0A4908600A480068401E99
:103B40000849086001F0C4FA204600F060F800BFA0
:103B5000044800680028D7D170BD000064570020D9
:103B6000740000207000002070B504460D46206CE3
:103B700070B1216CE0680844E0606168E0688842E8
:103B800001D32068E0602846226CE168FCF738FB2E
:103B900070BD2DE9F04104460F4615464FF0000870
:103BA000A66B206C40B9206860BB606802F09EFD87
:103BB00080460020606025E07DB93946226CA0680F
:103BC000FCF71EFB216CA0680844A060D4E901103A
:103BD000884217D32068A06014E03946226CE06860
:103BE000FCF70EFB216CE068401AE0602168E06899
:103BF000884203D2216C6068401AE060022D01D136
:103C000006B1761E701CA0634046BDE8F08110B579
:103C10000446206B01F07AFA204601F077FA10BDD5
:103C20000146084A126812680AB9012200E000221F
:103C30000A600A6822B9034A1268D268106800E074
:103C400000207047A0000020014840687047000035
:103C5000001000E030B54FF4A043174800F007040F
:103C60002CB1C01D20F00700134C041B1B1B024687
:103C7000124C22600024114D6C60D018083820F0DE
:103C800007000F4C206000240D4D2D686C600C4D1A
:103C90002D682C601146441A4C60094C24680C6055
:103CA000084D4C682C60084D4C682C604FF0004467
:103CB000064D2C6030BD00005A0600204000002058
:103CC00048000020500000204C000020540000203C
:103CD00000BFFFF717FF064800680128F9D94FF029
:103CE000805004490860BFF34F8FBFF36F8FF0E738
:103CF0009C56002004ED00E02DE9F04705460E46F5
:103D000017469846089C0EB9246000E02760E563DA
:103D100026640121204602F031F884F84C801B48CB
:103D20000188204600F094FC00F0A6FB814600F0DC
:103D3000B7FB17490988084030B3204600F0A6FBBE
:103D4000134909880840F8B194F84C0030B10128B3
:103D50000FD0032808D0042815D10FE02A462146A9
:103D6000112000F029FD0EE02146122000F0E8FCB1
:103D700009E02146132000F0E3FC04E0214617206F
:103D800000F0DEFC00BF00BFBDE8F0872601002088
:103D9000240100202DE9F05F82460F4690469B46A5
:103DA0000A9E0C9C4FEA8801A522206BFCF73AFA88
:103DB000A8F10100216B01EB800929F0070909F046
:103DC000070008B9012000E0002050B900BF5020D2
:103DD00080F31188BFF34F8FBFF36F8F00BF00BF19
:103DE000FEE7002507E0795D04F134004155785D78
:103DF00000B902E06D1C102DF5D300BF0021432057
:103E00000155072E00D30626E662E66400202065F1
:103E1000201D01F00AF904F1180001F006F92461EF
:103E2000C6F10700A06164620020606584F8580054
:103E30005A465146484601F083F820600B9808B175
:103E40000B980460BDE8F09F2DE9F04706460D464B
:103E500017469846DDE908940DB1012000E00020E6
:103E600050B900BF502080F31188BFF34F8FBFF3CC
:103E70006F8F00BF00BFFEE75CB1FFF7BDFD26609E
:103E8000A561E761C4F82080C4F82490201D01F0EA
:103E9000CCF8BDE8F087000010B5002407E004EB83
:103EA00084010F4A02EB810001F0B2F8641C072C78
:103EB000F5D30C4801F0ACF80B4801F0A9F80B4819
:103EC00001F0A6F80A4801F0A3F80A4801F0A0F8AA
:103ED00004480949086004480849086010BD00000A
:103EE0009C560020285700203C57002050570020A7
:103EF0006457002078570020680000206C000020E4
:103F000010B50146164800E0006803688B42FBD3F9
:103F10000246436813448B4204D143684C682344EF
:103F2000436001460A464B6813440468A34211D11A
:103F30000C4C03682468A34208D04B68046864688A
:103F400023444B6003681B680B6005E0054B1B684E
:103F50000B6001E003680B60884200D0016010BD77
:103F600040000020480000202DE9F04104460D46A5
:103F700016461F464FF0000865602461B5420CD814
:103F8000F01BA169884202D34FF0010811E0211D06
:103F90000948006801F04CF80BE0BE4204D2BD4273
:103FA00002D34FF0010804E0211D0448006801F02D
:103FB0003FF84046BDE8F081A4000020A0000020AA
:103FC000014605480068884203D00348016001208B
:103FD00070470020FCE70000B400002070B50546E3
:103FE00001F04CF8A86B08B9012400E0002401F0AE
:103FF0006FF8204670BD70B5054601F03FF8A86B1C
:10400000E96B884201D1012400E0002401F060F84E
:10401000204670BD014608784B7818448B781844C8
:10402000CB7818440B7918444B7918444FF6FF733A
:104030001A1AC879B0EB222F01D000207047887976
:10404000D3B2984201D00020F8E70878012801DDBA
:104050000020F3E70120F1E710B50446207801289D
:1040600003D1607800F01CF900E000BF00BF10BD74
:10407000F8B505460F4616480068C068C468201D9C
:1040800000F090FFE06901281DD1A06941192B467D
:104090003A462046FFF768FFA8B1002003462A46AB
:1040A00001460090204602F0D7FC064656B900BFF4
:1040B000502080F31188BFF34F8FBFF36F8F00BF85
:1040C00000BFFEE700BF2046616A8847F8BD0000D8
:1040D000A000002070B586B06AE00398002867DB76
:1040E000059C606908B9012000E0002010B9201D7E
:1040F00000F058FF02A800F0BDF8054603980A2812
:1041000054D2DFE800F009050731334F0608323496
:1041100000BF00BF00BF00BF0498A269811803461A
:104120002A462046FFF720FFE8B12046616A88470B
:10413000E069012817D1002000900498A169421875
:1041400000231946204602F087FC064656B900BFF8
:10415000502080F31188BFF34F8FBFF36F8F00BFE4
:1041600000BFFEE700BF22E000BF20E000BF0498D0
:10417000A061A06908B1012000E0002050B900BF93
:10418000502080F31188BFF34F8FBFF36F8F00BFB4
:1041900000BFFEE7A06941192B462A462046FFF7DB
:1041A000E3FE04E0204600F0B1FF00E000BF00BFE6
:1041B00000231A4603A90448006801F0C1FB002847
:1041C0008BD106B070BD0000A8000020F8B50546F0
:1041D0000C4601F00FFA684600F04CF806460098CD
:1041E00020BB44B9B54206D802F064FB31462846EC
:1041F000FFF73EFF1CE03CB10E480068006808B9BC
:10420000012000E000200446A91B22460A4800685D
:1042100001F052F802F04EFB50B94FF080500749C0
:104220000860BFF34F8FBFF36F8F01E002F042FBD6
:10423000F8BD0000A4000020A800002004ED00E06C
:104240000A490968096809B9012100E0002121B182
:104250004FF0FF31064A116006E004490968C96859
:10426000C868034A41681160704700006800002078
:104270009400002070B5044602F06AF9054607482C
:104280000068854204D200F051F80120206001E06E
:104290000020206001480560284670BDB000002065
:1042A00070B505461B480068A84200D170BD1A4889
:1042B000006808B9022402E000F0DEF80446FFF7C7
:1042C0004AF906460120FFF758F9124805600068D0
:1042D000D8B1002011490860FF201149087000F092
:1042E000EFFA00F0AFFC00F02BFB0E48036800680B
:1042F000401C0C4A106022460B480168012000F067
:104300009BFA00F0D5FC00F0EDFC3046FFF735F9E4
:1043100000BFCBE7E800002028010020F4000020C7
:10432000DC000020E4000020FC0000202DE9F84320
:1043300032E024480068C068056822480068C06808
:10434000C468201D00F02EFE2046616A8847E0699F
:10435000012821D1A0694619AE4207D966602461BF
:10436000211D1848006800F063FE15E00020034698
:104370002A4601460090204602F06EFB074657B9D8
:1043800000BF502080F31188BFF34F8FBFF36F8FB2
:1043900000BF00BFFEE700BF0A480068006808B918
:1043A000012000E000200028C3D00648D0F800809B
:1043B00005480068034908600348C0F80080BDE86C
:1043C000F8830000A0000020A40000200E48006830
:1043D000401C08B9012000E0002050B900BF502067
:1043E00080F31188BFF34F8FBFF36F8F00BF00BF03
:1043F000FEE700BF502080F31188BFF34F8FBFF35B
:104400006F8F00BF00BFFEE75800002008B500BF57
:104410006846FFF705FC044620460099FFF7D6FEE4
:10442000FFF758FEF4E7000010B50446074800689F
:1044300058B90648046000F055FC05A10D48006815
:1044400001F0CAF90020FFF72BFF10BDE0000020AB
:104450005265636F726465722073746F7070656407
:1044600020696E2070727654726163654572726F56
:1044700072282900CC00002010B502F053F810BDBE
:1044800010B50446204600F0A1FD10BD10B504464D
:104490002046FFF7F5FF4FF6FF7101EA104010BD0F
:1044A00010B50446204600F0ACFD4FF6FF7101EA5E
:1044B000104010BD10B5124812490860124800683B
:1044C00040F080701049086000BF0846006818B9C5
:1044D0000320FFF7A9FF11E00C48006800F000700E
:1044E00018B10420FFF7A0FF08E00020074948604A
:1044F0000846006840F00100086000BF00BF10BD22
:1045000055CEACC5B01F00E0FCED00E0001000E0AF
:104510002DE9F04706460F46FFF71DF881460120BA
:10452000FFF72BF81948056800240AE0A00818498D
:1045300001EB8008D8F80000B04201D1254604E024
:104540000834124800688442F0D300BFB5F5A07F5C
:1045500012D2A8080E4941F82060012000EB950016
:1045600041F820700948006885420AD10748006870
:1045700008300649086004E006480068401C054908
:1045800008604846FEF7F9FFBDE8F087D800002034
:104590005C700020180100202DE9F04707460D4609
:1045A000FEF7D9FF82460120FEF7E7FF24480668A0
:1045B00000240AE0A008234901EB8009D9F8000093
:1045C000B84201D1264604E020341D4800688442E8
:1045D000F0D300BFB6F5A06F28D2B008194941F852
:1045E0002070301D01EB0008002406E0285D08F86B
:1045F0000400285D00B902E0641C192CF6D300BF4A
:1046000000E0641C285D08B1802CFAD30E480068D5
:10461000844201D90C4804600948006886420AD1E6
:104620000748006820300649086004E00748006831
:10463000401C064908605046FEF79FFFBDE8F08722
:10464000D40000205C6B00201C010020140100201D
:1046500070B505460C462846FFF712FF64F31F406D
:1046600006463146284600F025FE70BD70B5054669
:104670000C46284600F0C5FC64F31F400646314650
:10468000284600F051FF70BD0FB42DE9F04194B001
:104690000546BDF86C00B0F5805F07DB0120FFF731
:1046A000C3FE14B0BDE8F0015DF814FBFEF753FF44
:1046B00080460120FEF761FF1F480068002835D0C2
:1046C000082000EB85071D480068401C1B49086056
:1046D00002AC54B305F00F00BDF86C1041EA003095
:1046E0002080164800886080FFF7AEFA60601CA842
:1046F000139000260AE004F1080101EB86001399EB
:10470000096801601399091D1391761CAE42F2DB12
:1047100000201390019001AA3946204601F064F868
:1047200010B16A2000F0F2FA00BF00BF4046FEF769
:1047300024FF00BFB5E70000E8000020F4000020DF
:104740002DE9FF4105460E46B5F5805F04DB0120EB
:10475000FFF76AFEBDE8FF81FEF7FDFE0746012078
:10476000FEF70BFF12480068E8B112480068401CD1
:104770001049086001ACACB145F480502080084677
:1047800000886080FFF760FA6060A66000200090FB
:104790006A460C21204601F027F810B16A2000F08B
:1047A000B5FA00BF00BF3846FEF7E7FE00BFD1E70D
:1047B000E8000020F40000202DE9F04186B0054615
:1047C0000E461746B5F5805F05DB0120FFF72CFE8E
:1047D00006B0BDE8F081FEF7BEFE80460120FEF780
:1047E000CCFE13480068F0B112480068401C114923
:1047F000086002ACB4B145F400502080084600883F
:104800006080FFF721FA6060A660E76000200190F9
:1048100001AA1021204600F0E7FF10B16A2000F045
:1048200075FA00BF00BF4046FEF7A7FE00BFCFE706
:10483000E8000020F40000202DE9F04387B0054691
:104840000E4617469846B5F5805F05DB0120FFF759
:10485000EBFD07B0BDE8F083FEF77DFE8146012049
:10486000FEF78BFE1448006800B314480068401C33
:104870001249086002ACC4B145F44050208008469B
:1048800000886080FFF7E0F96060A660E760C4F828
:1048900010800020019001AA1421204600F0A4FFFE
:1048A00010B16A2000F032FA00BF00BF4846FEF7A0
:1048B00064FE00BFCDE70000E8000020F400002007
:1048C00030B587B0FEF747FE05460120FEF755FEDE
:1048D0001748006830B301AC1CB31648006820606C
:1048E00015480088A08041F6A120E0800020A0604B
:1048F00012480068E060A068A06020202082282084
:1049000060820820A0822820E082002000906A4671
:104910001821204600F068FF10B16A2000F0F6F977
:1049200000BF00BF2846FEF728FE07B030BD0000DC
:10493000E8000020EC000020F0000020D000002063
:10494000FEB500250024FEF706FE07460120FEF70F
:1049500014FE12480068E8B100BF19E001AEB6B11C
:10496000002406E028190E4951F8200046F82400DA
:10497000641C022CF6D3002000906A4608213046C1
:1049800000F032FF10B16A2000F0C0F900BFAD1C8A
:10499000502DE3D33846FEF7F0FDFEBDE8000020C1
:1049A0005C7000202DE9F04F99B080468A464FF0A8
:1049B000000BD946902017901798B0F5805F05DB63
:1049C0000120FFF731FD19B0BDE8F08F002400E0B1
:1049D000641C1AF8040008B1342CF9DB201DC1173F
:1049E00000EB917189101891B8F1000F05D00BF10F
:1049F000010B1798401C80B217904FEA8B0918984A
:104A000000EB0B060F2E0CDDA6F10F0188002E49DE
:104A10000968884201D92C4908600F26C9F13C0475
:104A200000BFFEF798FD16900120FEF7A6FD27486F
:104A30000068002843D0082000EB86001590244829
:104A40000068401C2249086004ADBDB306F00F01A8
:104A5000179840EA013028801D4800886880FFF7D9
:104A6000F3F8686005F108000390B8F1000F02D078
:104A70000398C0F8008005F108000290002706E0C6
:104A80001AF8071009EB0702029881547F1CA7420D
:104A9000F6DBC9F13C00A04204DD002109EB040271
:104AA000029881540020019001AA2846159900F02F
:104AB0009BFE10B16A2000F029F900BF00BF1698D4
:104AC000FEF75BFD00BF7EE720010020E80000202C
:104AD000F40000200FB4FEB505460E46002400E0A9
:104AE000641C0A98005D08B1342CF9DB0BA8029015
:104AF00002A80A9923460022CDE900103146284633
:104B000000F006F800200290FEBC5DF814FB0000E7
:104B10002DE9F04F97B007468B46914698464FF0E7
:104B2000000ABBF5805F05DB0120FFF77DFC17B0B5
:104B3000BDE8F08F08F10400C11700EB91718910F6
:104B40001691B9F1000F00D07F1C4FEA870A169822
:104B5000C6190F2E0CDDA6F10F0188003649096831
:104B6000884201D9344908600F26CAF13C0800BFC9
:104B7000FEF7F1FC15900120FEF7FFFC2F480068BE
:104B8000002853D0082000EB860014902C480068C1
:104B9000401C2B49086003AD002D46D006F00F00E5
:104BA0004BEA00302880084600886880FFF74CF800
:104BB000686005F108000290002411E0B9F1000FCF
:104BC00004D01CB9029840F8249008E021980268AB
:104BD000101D219908601168029840F82410641C87
:104BE000BC42EBDB05F108000190002406E02098B0
:104BF000015D0AEB040201988154641C4445F6DB14
:104C0000CAF13C00404504DD00210AEB080201988E
:104C10008154002000906A462846149900F0E4FD73
:104C200010B16A2000F072F800BF00BF1598FEF7BF
:104C3000A4FC00BF7BE7000020010020E80000206A
:104C4000F4000020F0B589B000250024FEF783FCB5
:104C500007460120FEF791FC13480068F0B100BF41
:104C600019E001AEB6B1002406E028190F4951F849
:104C7000200046F82400641C082CF6D30020009085
:104C80006A462021304600F0AFFD10B16A2000F0E6
:104C90003DF800BF0835B5F5A07FE2D33846FEF7F2
:104CA0006CFC09B0F0BD0000E80000205C6B002047
:104CB0001CB50A48006818B9094800680749086027
:104CC000002001214FF47A73CDE90010034802213E
:104CD00002680420FFF7D8FC1CBD00000001002082
:104CE0003C00002010B50748006848B101F0F6FE0E
:104CF000044624B121460448006800F06DFD00BF61
:104D000010BD0000E8000020CC00002010B50446D3
:104D10000348006818B902480460FFF7E3FF10BDBC
:104D2000E000002070B5044600F0A8F994F9455061
:104D300010E0606A08B9012000E0002038B904F1F1
:104D4000240001F05DFD18B100F018FB00E003E065
:104D5000681E45B2002DECDC00BFFF2084F8450042
:104D600000F0B6F900F08AF994F9445010E0206997
:104D700008B9012000E0002048B904F1100001F05A
:104D80003FFD08B100F0FAFA681E45B200E001E00C
:104D9000002DECDC00BFFF2084F8440000F098F9FF
:104DA00070BD00002DE9F0470446002600F022FC0B
:104DB0005448006808B9FEF74DFF5348006820408A
:104DC00000286DD1D4B1083404F00700B0B104F06C
:104DD0000700C0F10800044404F0070008B90120EE
:104DE00000E0002050B900BF502080F31188BFF3CD
:104DF0004F8FBFF36F8F00BF00BFFEE7002C4FD077
:104E00004248006884424BD8414F3846056801E06B
:104E10002F462D686868A04202D228680028F7D182
:104E20003848006885423BD0386800F10806286899
:104E300038606868001B10281BD905EB040808F0CF
:104E4000070008B9012000E0002050B900BF502041
:104E500080F31188BFF34F8FBFF36F8F00BF00BF88
:104E6000FEE76868001BC8F804006C604046FFF766
:104E700047F8264968680968081A244908600846FE
:104E8000006824490968884203D220480068214903
:104E900008601D4968680968084368600020286048
:104EA00026B11D48006820441B490860FFF7E4FA5A
:104EB0008146FFF7F5FA19490988084058B12EB123
:104EC000224631463820FFF777FC04E0224631467F
:104ED000E920FFF771FC01F0EDFC06F0070008B9CE
:104EE000012000E0002050B900BF502080F311885D
:104EF000BFF34F8FBFF36F8F00BF00BFFEE7304699
:104F0000BDE8F08748000020540000204C0000203D
:104F10004000002050000020D0000020240100208C
:104F20000648006830B10549096801F15000096D73
:104F3000491C0160014800687047000064000020BF
:104F4000001F4FF080730360001F21F00103036016
:104F5000001F034B036014380260203870470000C4
:104F6000CD4300082DE9F04106460C4615460027C2
:104F70000B48D0F88410D0F88800081A0DD02246CB
:104F800031460120FDF732FD074605B12F60A742EB
:104F900003D04FF0FF30BDE8F0810020FBE70000B8
:104FA000CC71002001460A69D1E901309860D1E94D
:104FB000010358605068884201D188685060002021
:104FC00008611068401E1060106870470146886CC8
:104FD000704770B50446254655B900BF502080F390
:104FE0001188BFF34F8FBFF36F8F00BF00BFFEE785
:104FF00000F044F8D5E90E10461A00F069F8304682
:1050000070BD014611B10A46906C00E00020704767
:1050100000F1080141604FF0FF31816000F10801AB
:10502000C16001610021016070470021016170478A
:1050300010B502460B685C1C0CB9106907E002F160
:10504000080000E04068446824689C42FAD944683B
:105050004C604C68A160886041600A611468641CFF
:10506000146010BD42684A6093688B609368596011
:105070009160086103685B1C0360704700BF5020AB
:1050800080F31188BFF34F8FBFF36F8F00BF0E48BF
:105090000068401C0C49086008460068012812D1CD
:1050A0000A480068C0B208B9012000E0002050B9E9
:1050B00000BF502080F31188BFF34F8FBFF36F8F75
:1050C00000BF00BFFEE770475800002004ED00E07D
:1050D0000D48006850B900BF502080F31188BFF31D
:1050E0004F8FBFF36F8F00BF00BFFEE70648006819
:1050F000401E054908600846006820B9002080F37A
:10510000118800BF00BF7047580000202DE9F04112
:1051100005462E46002D54D0083E34462A49606884
:105120000968084008B1012000E0002050B900BF24
:10513000502080F31188BFF34F8FBFF36F8F00BFF4
:1051400000BFFEE7206808B9012000E0002050B948
:1051500000BF502080F31188BFF34F8FBFF36F8FD4
:1051600000BF00BFFEE7184960680968084040B307
:10517000206830BB1449606809688843606000F0AB
:1051800039FA1249606809680844104908601049F2
:1051900060680968081A0E490860FFF76DF907464C
:1051A000FFF77EF90B490988084028B16068424240
:1051B00029463920FFF700FB2046FEF7A1FE01F04B
:1051C00079FBBDE8F0810000540000204C00002075
:1051D000D000002024010020064800684FF47A71B6
:1051E000B0FBF1F0401E4FF0E0214861072008615C
:1051F000704700003C00002070B5FAF7EBFF044652
:10520000102C16D304F1E02090F8F05315480078E4
:10521000854201DB012000E0002050B900BF502092
:1052200080F31188BFF34F8FBFF36F8F00BF00BFB4
:10523000FEE70D48006800F4E0600C490968884208
:1052400001D8012000E0002050B900BF502080F3B9
:105250001188BFF34F8FBFF36F8F00BF00BFFEE712
:1052600070BD00005C0000200CED00E0600000203C
:1052700070B505460E46002415E00D4850F8340080
:1052800080B90B4840F8346000EBC40045603146FB
:105290002846FFF781F92B46324603210120FFF70C
:1052A00019FC02E0641C082CE7D300BF70BD0000AD
:1052B0005C560020816470472DE9F04105460E469A
:1052C00017462C46FFF7DAFE94F94400401C10B94B
:1052D000002084F8440094F94500401C10B90020D7
:1052E00084F84500FFF7F4FEA06B28B93A46314632
:1052F00004F1240000F064F82046FFF713FDBDE838
:10530000F081000070B5044600253CB318480068E1
:1053100008B9012000E0002050B900BF502080F300
:105320001188BFF34F8FBFF36F8F00BF00BFFEE741
:1053300000F060F9FFF7A0F80646FFF7B1F80D4955
:105340000988084018B121467A20FFF7F9F90021B1
:105350002046FEF76FFA01F0ADFA05463DB94FF071
:10536000805005490860BFF34F8FBFF36F8F70BD4A
:105370009C0000202401002004ED00E001200149F0
:10538000086070478800002070B504460D4654B987
:1053900000BF502080F31188BFF34F8FBFF36F8F92
:1053A00000BF00BFFEE70548016818312046FFF73F
:1053B0003FFE01212846FEF73DFA70BD6400002043
:1053C0002DE9F04106460C46154656B900BF50205F
:1053D00080F31188BFF34F8FBFF36F8F00BF00BF03
:1053E000FEE70F48016818313046FFF73BFE0DB16C
:1053F0004FF0FF34FFF740F80746FFF751F809492F
:105400000988084028B10848006801197920FFF789
:1054100097F929462046FEF70DFABDE8F081000015
:1054200064000020240100207800002070B50546AB
:105430002C46002D6ED03849E06A0968C96A884256
:1054400068D2A06900F0004028B933480068C06AFB
:10545000C0F10700A061E16A01EB81012F4A02EB74
:1054600081016069884201D1012000E00020A8B3D9
:10547000201DFFF797FD78B9E06A00EB800027490F
:1054800051F8200040B994F82C100120884024499C
:1054900009688143224801601F480068C06AE062D1
:1054A0002046FEF7FDFF1F490988084018B1214634
:1054B0003020FFF745F994F82C1001208840184956
:1054C0000968084316490860E16A01EB8101134A43
:1054D00002EB8100211DFFF7C5FD04E0FFE70E4848
:1054E0000068C06AE062FEF7C7FF0646FEF7D8FF15
:1054F0000C490988084068B12046FEF7D1FF0949E8
:105500000988084030B1044800682146C26A052075
:10551000FFF752F970BD0000640000209C56002087
:105520007C0000202401002008B1024691647047ED
:1055300050B900BF502181F31188BFF34F8FBFF3E3
:105540006F8F00BF00BFFEE7034909680160034990
:1055500009684160704700008C000020780000203E
:105560001CB51D4800210B468022CDE900101BA16F
:105570001C4800F0A7FF0446012C02D101F042FABA
:105580000446012C15D100BF502080F31188BFF3D1
:105590004F8FBFF36F8F00BF4FF0FF30124908608D
:1055A00001201249086000201149086000F032F91A
:1055B00010E0601C08B1012000E0002050B900BFDD
:1055C000502080F31188BFF34F8FBFF36F8F00BF60
:1055D00000BFFEE71CBD00009800002049444C4578
:1055E00000000000D13C0008940000208000002052
:1055F0007800002002480068401C0149086070479C
:105600009C00002010B52948006818B101202849E5
:1056100008604AE000202649086026480068B0FA81
:1056200080F0C0F11F0101EB8100234A52F82000F5
:1056300008B1012000E0002050B900BF502080F3E5
:105640001188BFF34F8FBFF36F8F00BF00BFFEE71E
:1056500001EB8102184B03EB820042685268426002
:1056600000F108024368934202D1426852684260E6
:105670004268D268114B1A60012011490860FEF798
:10568000FBFE0446FEF70CFF0E490988084060B196
:105690000A480068FEF794FC38B108480068C26AFE
:1056A000064801683720FFF787F810BD9C000020EE
:1056B000880000207C0000209C5600206400002010
:1056C000280100202401002030B585B005460020C7
:1056D000049031480068002824D141F288332F4AD1
:1056E0002FA100900120FDF72DF9002020232E4A44
:1056F0002EA100900120FDF7D1F82EA001F02EFB85
:10570000324908602448012100230A02CDE9001033
:1057100026A12F4800F0D6FE1F48006810B90520CA
:10572000FEF782FE022D26D100BF0020049004AABD
:10573000082102A8FFF716FC044614B16920FFF700
:10574000E5FA9CB90498082810D102A8FEF762FC7B
:1057500060B19DF80800012805D19DF809000128D5
:1057600001D1FEF7A7FE02A8FEF776FC19480068F3
:105770000028DAD00EE0012D0AD1FEF79BFE0120B1
:105780008DF808008DF8090002A8FEF765FC01E01D
:10579000FEF790FE05B030BDB8000020B4570020E1
:1057A000547A4461746100003C6B0020547A437465
:1057B000726C00005761726E696E67732066726F5B
:1057C0006D205265636F726465720000CC0000202A
:1057D000352D0008E800002070B504460D46294626
:1057E0002046FFF7DFF870BD2DE9F04106460C4674
:1057F0001546224631460120FDF760F9074605B1FE
:105800002F60A74203D04FF0FF30BDE8F0810020A9
:10581000FBE700001CB52248014609780191FF21F1
:10582000024611700146097800919DF8001001F0C0
:1058300050011C4A117007211B4A116009E01A49E6
:105840000968491E184A11609DF800104906090EA2
:1058500000919DF8001001F080018029EFD01249DD
:1058600009680902104A11601146098801F4E061D3
:1058700011600B4A019911700C48006840F47000E7
:105880000A4908600846006840F070400860FFF769
:10589000A3FC002006490860FAF766FC00201CBD46
:1058A00000E400E05C0000206000002020ED00E04B
:1058B0005800002010B500BF502080F31188BFF3BE
:1058C0004F8FBFF36F8F00BF00F048FE18B14FF04D
:1058D00080500449086000BF002080F3118800BF99
:1058E00010BD000004ED00E02DE9F84305460E462A
:1058F00090460DB1012000E0002050B900BF5020BB
:1059000080F31188BFF34F8FBFF36F8F00BF00BFCD
:10591000FEE70EB9002701E005FB06F707F150008E
:10592000FFF740FA044644B104F1500943464A46A1
:10593000314628460094FEF7DFF92046BDE8F8839B
:105940002DE9FF4F83B006460F461D464FF0000A73
:10595000344654B900BF502080F31188BFF34F8FF5
:10596000BFF36F8F00BF00BFFEE70FB9206C08B90F
:10597000012000E0002050B900BF502080F31188C2
:10598000BFF34F8FBFF36F8F00BF00BFFEE700F084
:10599000CFFD08B9059808B9012000E0002050B9F2
:1059A00000BF502080F31188BFF34F8FBFF36F8F7C
:1059B00000BF00BFFEE700BFFFF760FBD4F83890E0
:1059C000B9F1000F71D0D4F80C8039462046FEF7AB
:1059D000CBF8002D6BD1FEF74FFD8346FEF760FD3F
:1059E000E44909880840002842D02046FEF74EFDD1
:1059F000E0490988084098B394F84C00052836D24D
:105A0000DFE800F00326151427003DB1A06B431E0C
:105A100021467020059AFEF70FFF06E0A06B431E9B
:105A200021466020059AFEF707FF20E000BF3DB148
:105A3000A06B431E21467120059AFEF7FDFE06E08D
:105A4000A06B431E21466120059AFEF7F5FE0EE08D
:105A500000BF35B121467220059AFEF7ADFE05E084
:105A600006E021466220059AFEF7A6FE00BF00BFB1
:105A7000A9F10100A063206810B9FFF751FA606036
:105A8000206908B9012000E00020002854D104F169
:105A9000100000F0B5FE90B34FF08050B64908609A
:105AA000BFF34F8FBFF36F8F46E04BE0FFE7FEF78A
:105AB000E3FC8346FEF7F4FCAE490988084030B3A6
:105AC0002046FEF7E3FCAB4909880840F8B194F89A
:105AD0004C0005281AD2DFE800F003130B0A14006B
