:020000040800F2
:10000000A85D0020DD01000881210008211F0008F3
:100010007D21000849020008F928000800000000BE
:100020000000000000000000000000004501000882
:10003000A90200080000000089010008E52100086D
:10004000F7010008F7010008F7010008F7010008B0
:10005000F7010008F7010008F7010008F7010008A0
:10006000F7010008F7010008F7010008F701000890
:10007000F70100084D020008F70100085D020008C2
:100080006D020008F7010008F7010008F7010008F9
:10009000F7010008F7010008F7010008F701000860
:1000A000F7010008F7010008F7010008F701000850
:1000B000F7010008F7010008F7010008F701000840
:1000C000F7010008F7010008F7010008F701000830
:1000D000F7010008CD27000821280008752800082E
:1000E000F7010008F7010008F7010008F701000810
:1000F000D5220008F7010008F7010008F701000801
:10010000F7010008F7010008F7010008F7010008EF
:10011000F7010008F7010008F7010008F7010008DF
:10012000F7010008F7010008F7010008F7010008CF
:10013000DFF80CD000F076F800480047AD29000841
:10014000A85D0020224B19680868B0E8F00F80F322
:100150000988BFF36F8F4FF0000080F311884EF0D5
:100160000D0E70470000000006480068006880F32C
:10017000088862B661B6BFF34F8FBFF36F8F00DFA1
:1001800000BF00BF08ED00E0EFF30980BFF36F8F01
:100190000F4B1A6820E9F00F106008B54FF05000BF
:1001A00080F31188BFF34F8FBFF36F8F03F09AFA7C
:1001B0004FF0000080F31188BDE808401968086816
:1001C000B0E8F00F80F30988BFF36F8F704700BF6E
:1001D00054000020EFF30580704700000648804778
:1001E00006480047FEE7FEE7FEE7FEE7FEE7FEE71C
:1001F000FEE7FEE7FEE7FEE77D220008310100088A
:1002000040EA01039B0703D009E008C9121F08C098
:10021000042AFAD203E011F8013B00F8013B521E18
:10022000F9D27047064C074D06E0E06840F0010344
:1002300094E8070098471034AC42F6D3FFF77CFFF0
:10024000A8430008C843000800BFFEE710B50248F5
:1002500000F092F910BD0000D801002010B502484E
:1002600000F08AF910BD00005001002010B50248CE
:1002700000F082F910BD00009401002030B590F824
:1002800040500124AC40C56B6C60046863604468F6
:10029000102C04D10468A2600468E16003E00468E3
:1002A000A1600468E26030BD704700001CB500200A
:1002B0000190002400260027002532A0006800904D
:1002C00000BF314900235A1E086801A903F0E6FA6D
:1002D00001980079552851D101984079AA284DD12B
:1002E00001988079022849D10198817BC07B01EB7C
:1002F000002084B20198001D04F10C01425C0198B9
:10030000001D491C405C02EB002086B2C91E01980A
:10031000801D02F028FBB04230D1601EC11700EBF7
:100320009171C1F3870700201FE081000D31019A10
:10033000121D535C81000E31019A121D515C03EBBA
:1003400001218DB20A2D0EDC81000F31019A121DA0
:10035000535C81001031019A121D515C03EB0121A5
:100360000A4A22F81510411CC8B2B842DDDB4FF032
:10037000FF3302226946064801F066FD019803F04A
:100380003DF89EE780020000280000206808002059
:1003900010010020014600200A68126822F00E02B7
:1003A0000B681A600A68126822F001020B681A6072
:1003B00091F8403001229A40CB6B5A60012281F8BB
:1003C000212000BF002281F8202000BF70470000DC
:1003D00070B50446002594F82100022803D00420BB
:1003E000A0630125C1E02068006820F00E002168AC
:1003F00008602068006820F00100216808605C49FE
:100400002068884252D95A4978392068884201D1F7
:10041000012047E0564964392068884201D1102004
:1004200040E0534950392068884201D1801539E0B5
:100430004F493C392068884201D1801432E04C4950
:1004400028392068884202D14FF480302AE0484998
:1004500014392068884202D14FF4801022E04449C8
:100460002068884201D140041CE04249206888424B
:1004700001D1012016E03F4914312068884201D1A2
:1004800010200FE03B4928312068884201D18015B7
:1004900008E038493C312068884201D1801401E0ED
:1004A0004FF480303349091F086051E030497839F2
:1004B0002068884201D1012047E02D496439206835
:1004C000884201D1102040E02949503920688842F3
:1004D00001D1801539E026493C392068884201D194
:1004E000801432E0224928392068884202D14FF432
:1004F00080302AE01E4914392068884202D14FF426
:10050000801022E01A492068884201D140041CE092
:1005100018492068884201D1012016E0154914319C
:100520002068884201D110200FE01249283120684C
:10053000884201D1801508E00E493C31206888428C
:1005400001D1801401E04FF48030094980394860BE
:10055000012084F8210000BF002084F8200000BFA3
:10056000606B10B12046616B8847284670BD000063
:10057000800002400804024070B50446E06B056844
:100580002068066894F8401004208840284000281D
:1005900075D006F004000028FAD02068006800F04A
:1005A000200028B92068006820F004002168086055
:1005B000D5492068884254D9D3497839206888427F
:1005C00001D1042049E0D04964392068884201D132
:1005D000402042E0CC4950392068884201D10015C2
:1005E0003BE0C9493C392068884202D14FF4804041
:1005F00033E0C54928392068884202D14FF4802071
:100600002BE0C14914392068884202D14FF48000A0
:1006100023E0BD492068884201D1C0041DE0BB49E8
:100620002068884201D1042017E0B84914312068BD
:10063000884201D1402010E0B44928312068884226
:1006400001D1001509E0B1493C312068884202D14E
:100650004FF4804001E04FF48020AC49091F08604E
:1006600054E0A94978392068884201D104204AE041
:10067000A54964392068884202D1402043E04CE01B
:10068000A14950392068884201D100153BE09E49BC
:100690003C392068884202D14FF4804033E09A49C7
:1006A00028392068884202D14FF480202BE09649F7
:1006B00014392068884202D14FF4800023E0924927
:1006C0002068884201D1C0041DE09049206888421A
:1006D00001D1042017E08D4914312068884201D1EE
:1006E000402010E0894928312068884201D1001556
:1006F00009E086493C312068884202D14FF48040AD
:1007000001E04FF48020804980394860E06A002889
:1007100002D02046E16A8847F4E094F840100220B5
:1007200088402840002871D006F002000028FAD046
:100730002068006800F0200040B92068006820F0C0
:100740000A0021680860012084F821006E492068B1
:10075000884254D96C4978392068884201D10220F6
:1007600049E0694964392068884201D1202042E08B
:10077000654950392068884201D140153BE0624903
:100780003C392068884202D14FF4005033E05E4982
:1007900028392068884202D14FF400302BE05A49B2
:1007A00014392068884202D14FF4001023E05649E2
:1007B0002068884201D180041DE0544920688842A5
:1007C00001D1022017E0514914312068884201D13B
:1007D000202010E04D4928312068884201D1401581
:1007E00009E04A493C312068884202D14FF4005068
:1007F00001E04FF400304549091F086054E04249C8
:1008000078392068884202D102204AE057E03E4908
:1008100064392068884201D1202042E03A495039A9
:100820002068884201D140153BE037493C392068B7
:10083000884202D14FF4005033E033492839206810
:10084000884202D14FF400302BE02F491439206840
:10085000884202D14FF4001023E02B4920688842DF
:1008600001D180041DE029492068884201D102207D
:1008700017E0264914312068884201D1202010E079
:10088000224928312068884201D1401509E01F49DA
:100890003C312068884202D14FF4005001E04FF40F
:1008A000003019498039486000BF002084F82000DA
:1008B00000BFA06A30B32046A16A884722E094F8BE
:1008C0004010082088402840E0B106F00800C8B178
:1008D0002068006820F00E002168086094F840103D
:1008E00001208840E16B48600120A06384F821006A
:1008F00000BF002084F8200000BF206B10B120460C
:10090000216B884770BD000080000240080402404F
:100910000146002209B901207047204B086898421F
:100920000BD21F4B0868C01A1423B0FBF3F08000F1
:1009300008641B480838C8630AE0184B0868C01AE6
:100940001423B0FBF3F08000086414480838C8632F
:10095000022081F821000868026843F6F0708243A3
:10096000D1E901031843CB6818430B6918434B695D
:1009700018438B691843CB69184302430868026027
:1009800000208862C862086348638863012081F898
:100990002100002081F8200000BFBDE708040240CC
:1009A000080002402DE9F04104460D4616461F4658
:1009B0004FF0000800BF94F82000012802D1022067
:1009C000BDE8F081012084F8200000BF94F82100E8
:1009D00001282CD1022084F821000020A063206887
:1009E000006820F00100216808603B463246294635
:1009F0002046FFF743FCE06A30B12068006840F011
:100A00000E00216808600BE02068006820F00400F8
:100A1000216808602068006840F00A0021680860CA
:100A20002068006840F001002168086006E000BF0F
:100A3000002084F8200000BF4FF002084046BFE7C6
:100A40002DE9F847024600240020002584460027AF
:100A500000237BE14FF0010808FA03F4D1F800808D
:100A600008EA0400A0427DD1DFF8ECA2D1F80480AE
:100A7000A8EB0A09D0453AD014DCB8F1030F50D0E6
:100A800009DCB8F1000F31D0B8F1010F1CD0B8F17A
:100A9000020F49D120E0B8F1110F18D0B8F1120FB0
:100AA00042D11EE0B9F5881F25D006DCB9F5803F9C
:100AB00020D0B9F5801F37D11AE0B9F5001F18D042
:100AC000B9F5041F30D117E0D1F80CC02DE0D1F8F2
:100AD0000C8008F1040C28E0D1F80C8008F1080C17
:100AE00023E0D1F80C8008F10C0C1EE000BF00BF21
:100AF00000BF00BF00BF00BFD1F80880B8F1000FF1
:100B000002D14FF0040C0BE0D1F80880B8F1010FCE
:100B100003D14FF0080C146102E04FF0080C54614F
:100B200003E04FF0000C00E000BF00BFFF2801D839
:100B3000904601E002F104084646FF2802D84FEA39
:100B4000830803E0A3F108084FEA88084746D6F86F
:100B500000804FF00F0909FA07F928EA09080CFA92
:100B600007F900E07AE048EA0908C6F80080D1F801
:100B7000048008F08058B8F1805F6FD100BFDFF8C3
:100B8000DC81D8F8188048F00108DFF8D091C9F866
:100B90001880C846D8F8188008F00108CDF8008001
:100BA00000BF00BF4FEAB9384FEA930958F82950FF
:100BB0004FEA83784FEA18794FF00F0808FA09F8DE
:100BC00025EA0805DFF89881424502D14FF0000878
:100BD00024E0DFF89081424502D14FF001081DE08A
:100BE000DFF88481424502D14FF0020816E0DFF8B9
:100BF0007C81424502D14FF003080FE0DFF870819D
:100C0000424502D14FF0040808E0DFF86881424510
:100C100002D14FF0050801E04FF006084FEA837952
:100C20004FEA197908FA09F848EA0505DFF848811A
:100C30004FEA930948F82950D1F8048008F4803825
:100C4000B8F5803F0BD1DFF83481D8F8008048EA4E
:100C50000008DFF82891C9F800800AE075E0DFF8A5
:100C60001C81D8F8008028EA0008DFF81091C9F844
:100C70000080D1F8048008F40038B8F5003F0ED1A8
:100C8000DFF8F88008F10408D8F8008048EA000886
:100C9000DFF8E89009F10409C9F800800DE0DFF8F9
:100CA000DC8008F10408D8F8008028EA0008DFF8A2
:100CB000CC9009F10409C9F80080D1F8048008F447
:100CC0008018B8F5801F0ED1DFF8B08008F1080851
:100CD000D8F8008048EA0008DFF8A09009F1080978
:100CE000C9F800800DE0DFF8948008F10808D8F812
:100CF000008028EA0008DFF8849009F10809C9F8A3
:100D00000080D1F8048008F40018B8F5001F0ED157
:100D1000DFF8688008F10C08D8F8008048EA00087D
:100D2000DFF8589009F10C09C9F800800DE0DFF8F0
:100D30004C8008F10C08D8F8008028EA0008DFF899
:100D40003C9009F10C09C9F800805B1C102BFFF4E2
:100D500081AEBDE8F88700000000111000100240CD
:100D600000080140000C0140001001400014014047
:100D700000180140001C014008000140000401402F
:100D80000148006870470000000000200348006828
:100D900003490978084401490860704700000020B1
:100DA0000800002010B50848006840F0100006490F
:100DB0000860032000F0ECF8002000F007F800F0D5
:100DC00049F8002010BD00000020024070B588B036
:100DD000044600250026002221462C2000F099F828
:100DE0002C2000F089F800BF1648806940F40050BC
:100DF000144988610846806900F40050019000BFE2
:100E000000BF02A903A800F0A9F900F0DFF9054628
:100E10000D48B5FBF0F0461E0C480D49086040F245
:100E2000E7310B48C160466000210161816000F03C
:100E300077FC20B9064800F08EFC08B070BD012098
:100E4000FBE700000010024040420F000034014068
:100E50001C02002008B500BF2548806940F0010051
:100E6000234988610846806900F00100009000BFB6
:100E700000BF00BF0846C06940F08050C861084606
:100E8000C06900F08050009000BF00BF032000F058
:100E90007FF8002211466FF00B0000F03AF80022B4
:100EA00011466FF00A0000F034F8002211466FF08E
:100EB000090000F02EF800221146501F00F029F81A
:100EC00000221146101F00F024F800220F21901E6E
:100ED00000F01FF800220F21501E00F01AF800BF8A
:100EE0000449486820F0E06000BF486000BF08BDCA
:100EF000001002400000014000BF00F01F0201216D
:100F000091404209920002F1E022C2F8001100BFB4
:100F100070472DE9F05F80460D461646002701F028
:100F200031F9074639462A46334601F00700C0F139
:100F3000070ABAF1040F02D94FF0040A01E0C0F128
:100F4000070AD14600F1040ABAF1070F02D24FF0A6
:100F5000000A01E0A0F1030AD4464FF0010A0AFAA0
:100F600009FAAAF1010A0AEA020A0AFA0CFA4FF08F
:100F7000010B0BFA0CFBABF1010B0BEA030B4AEA7A
:100F80000B042146404601F005F9BDE8F09F000042
:100F900000BF00F00702064B19684FF6FF03194027
:100FA000044B0B4343EA0221014B196000BF704719
:100FB0000CED00E00000FA0570B504460D46002671
:100FC0006248006800F00700A8420ED25F4800683F
:100FD00020F0070028435D4908600846006800F0DB
:100FE0000700A84201D0012070BD207800F0020067
:100FF000022807D15648406820F0F000A168084355
:1010000053494860207800F0010000285DD06068F6
:10101000012806D14E48006800F4003090B9012044
:10102000E2E76068022806D14948006800F00070D5
:1010300040B90120D8E74648006800F0020008B92E
:101040000120D1E74248406820F00300616808436E
:101050003F494860FFF794FE06466068012810D1BA
:1010600008E0FFF78DFE801B41F28831884201D9EC
:101070000320B9E73648406800F00C000428F0D19E
:1010800023E06068022810D108E0FFF779FE801B9A
:1010900041F28831884201D90320A5E72C484068F5
:1010A00000F00C000828F0D10FE008E0FFF768FE20
:1010B000801B41F28831884201D9032094E72448FB
:1010C000406800F00C000028F0D12048006800F0D3
:1010D0000700A8420ED91D48006820F007002843E9
:1010E0001A4908600846006800F00700A84201D0CD
:1010F000012079E7207800F00400042807D1144883
:10110000406820F4E060E1680843114948602078B5
:1011100000F00800082808D10D48406820F460500D
:10112000216940EAC1000A49486000F05FF80849B7
:101130004968C1F30311074A515CC8400649086079
:101140000020FFF743FE00204EE700000020024091
:1011500000100240544300082C0000200F220260BF
:101160000D4A526802F0030242600B4A526802F0D4
:10117000F0028260084A526802F4E062C260064AE5
:10118000526802F46052D2080261044A126802F006
:1011900007020A6070470000001002400020024071
:1011A00001480068704700002C00002000B5FFF7E0
:1011B000F7FF04494968C1F30221034A515CC84062
:1011C00000BD0000001002406443000800B5FFF7B6
:1011D000E7FF04494968C1F3C221034A515CC84092
:1011E00000BD00000010024064430008F0B585B067
:1011F0000FF26C0C9CE8E01001A8A0E8E0101CA520
:101200002D68009500210022002300240020194DA4
:10121000696801F00C05F5B1042D02D0082D19D133
:1012200001E0154819E001ADC1F38346AC5D01F45E
:10123000803555B10F4D6D68C5F340451DF805204B
:101240000D4D6543B5FBF2F302E00C4D04FB05F3D5
:10125000184602E000BF084800BF00BF05B0F0BD5F
:1012600002030405060708090A0B0C0D0E0F1010E7
:10127000010200000010024000127A0000093D0047
:10128000F8B504460025207800F00100002878D049
:10129000F848406800F00C0004280CD0F54840687D
:1012A00000F00C00082811D1F248406800F48030AA
:1012B000B0F5803F0AD1EF48006800F40030002804
:1012C0005FD0606800285CD10120F8BD00BF606875
:1012D000B0F5803F06D1E748006840F48030E5492A
:1012E000086028E0606858B9E248006820F480305F
:1012F000E04908600846006820F4802008601AE091
:101300006068B0F5A02F0BD1DA48006840F4802067
:10131000D84908600846006840F4803008600AE058
:10132000D448006820F48030D2490860084600683C
:1013300020F48020086000BF606888B1FFF720FDBE
:10134000054606E0FFF71CFD401B642801D9032079
:10135000BBE7C848006800F400300028F2D010E075
:10136000FFF70EFD054606E0FFF70AFD401B642867
:1013700001D90320A9E7BF48006800F40030002825
:10138000F2D1207800F00200022857D1B948406815
:1013900000F00C0050B1B748406800F00C0008287D
:1013A00018D1B448406800F4803098B9B14800685A
:1013B00000F0020020B12069012801D0012084E75B
:1013C000AC48006820F0F800616940EAC100A94912
:1013D000086033E02069E8B10120A7490860FFF701
:1013E000CFFC054606E0FFF7CBFC401B022801D9E5
:1013F00003206AE79F48006800F002000028F2D04E
:101400009C48006820F0F800616940EAC1009949F1
:10141000086013E0002098490860FFF7B1FC05461A
:1014200006E0FFF7ADFC401B022801D903204CE782
:101430009048006800F002000028F2D1207800F007
:10144000080008282DD1A069B8B101208B49086097
:10145000FFF796FC054606E0FFF792FC401B0228CA
:1014600001D9032031E78348406A00F002000028D8
:10147000F2D0012000F0A2FE13E000207F490860B6
:10148000FFF77EFC054606E0FFF77AFC401B0228CA
:1014900001D9032019E77748406A00F002000028CC
:1014A000F2D1207800F00400042873D1002671489E
:1014B000C06900F0805070B900BF6E48C06940F04C
:1014C00080506C49C8610846C06900F080500090A7
:1014D00000BF00BF01266A48006800F48070B0B900
:1014E0006748006840F4807065490860FFF748FC71
:1014F000054606E0FFF744FC401B642801D90320A1
:10150000E3E65F48006800F480700028F2D000BF76
:10151000E068012806D15748006A40F001005549AB
:10152000086227E0E06858B95248006A20F00100DC
:10153000504908620846006A20F00400086219E079
:10154000E06805280BD14B48006A40F00400494987
:1015500008620846006A40F0010008620AE0454857
:10156000006A20F00100434908620846006A20F042
:101570000400086200BFE068A0B1FFF701FC054667
:1015800009E0FFF7FDFB401B41F28831884202D998
:1015900003209AE622E03748006A00F002000028A3
:1015A000EFD012E0FFF7ECFB054608E0FFF7E8FBA1
:1015B000401B41F28831884201D9032085E62D483D
:1015C000006A00F002000028F0D1012E05D1294860
:1015D000C06920F080502749C86100BFE069C8B3E6
:1015E0002448406800F00C00082860D0E069022818
:1015F00048D1002020490866FFF7C2FB054606E0F7
:10160000FFF7BEFB401B022801D903205DE6194805
:10161000006800F000700028F2D1206AB0F5803F29
:1016200007D11448406820F40030A16808431149EC
:101630004860D4E9080108430E49496821F474114F
:1016400008430C49486001200B490866FFF798FBE6
:10165000054607E02DE0FFF793FB401B022801D968
:10166000032032E60348006800F000700028F2D042
:101670001FE000000010024000004242800442428D
:101680000070004000200C490866FFF779FB054612
:1016900006E0FFF775FB401B022801D9032014E682
:1016A0000648006800F000700028F2D101E0012037
:1016B0000BE6002009E60000000042420010024054
:1016C000042808D14FF0E021096941F004014FF0EE
:1016D000E022116107E04FF0E021096921F00401E7
:1016E0004FF0E0221161704770B504462546681E30
:1016F000B0F1807F01D301200FE0681E4FF0E021A0
:1017000048610F214FF0FF3000F044FD00204FF002
:10171000E021886107200861002070BD7047704794
:1017200010B504460CB9012010BD94F83D0028B94D
:10173000002084F83C00204600F00CF8022084F8D9
:101740003D00211D206800F0CDFD012084F83D0002
:101750000020E9E7704701460868C06840F00100D2
:101760000A68D0600868006840F001000A681060EC
:1017700000207047704710B5044620680069C0F328
:101780004000D8B12068C068C0F34000B0B16FF02D
:10179000020021680861012020772068806900F03C
:1017A000030018B12046FFF7E5FF05E0204600F0F2
:1017B000ADF8204600F0ABF80020207720680069E3
:1017C000C0F38000D8B12068C068C0F38000B0B119
:1017D0006FF004002168086102202077206880698A
:1017E00000F4407018B12046FFF7C4FF05E0204622
:1017F00000F08CF8204600F08AF80020207720685E
:101800000069C0F3C000D8B12068C068C0F3C00050
:10181000B0B16FF0080021680861042020772068CB
:10182000C06900F0030018B12046FFF7A3FF05E0F0
:10183000204600F06BF8204600F069F80020207781
:1018400020680069C0F30010D8B12068C068C0F3F8
:101850000010B0B16FF010002168086108202077F7
:101860002068C06900F4407018B12046FFF782FF7D
:1018700005E0204600F04AF8204600F048F8002035
:1018800020772068006900F0010058B12068C06826
:1018900000F0010030B16FF00100216808612046BE
:1018A00000F036F820680069C0F3C01058B1206815
:1018B000C068C0F3C01030B16FF0800021680861CB
:1018C0002046FFF72BFF20680069C0F3801058B155
:1018D0002068C068C0F3801030B16FF0400021680C
:1018E0000861204600F020F820680069C0F340102D
:1018F00058B12068C068C0F3401030B16FF02000CC
:10190000216808612046FFF70AFF10BD7047704745
:1019100010B5044603492068884201D1FFF736FA22
:1019200010BD000000340140704770B5044600252A
:1019300020684069C0F3C01594F8390021280ED101
:101940006DB12068406920F0800021684861206BFB
:1019500010B1206BFEF71EFD204600F08BFD2068C5
:101960004069C0F3801594F83A0022280ED16DB179
:101970002068406920F0400021684861606B10B128
:10198000606BFEF707FD204600F054FD002070BD9F
:10199000704700002DE9F04704462068056820687C
:1019A000C668206847694FF00008C14605F00F0877
:1019B000B8F1000F0AD105F0200038B106F0200080
:1019C00020B1204600F060FDBDE8F087B8F1000FBF
:1019D0006DD007F0010018B906F49070002866D0A9
:1019E00005F0010030B106F4807018B1E06B40F0F2
:1019F0000100E06305F0040030B107F0010018B108
:101A0000E06B40F00200E06305F0020030B107F047
:101A1000010018B1E06B40F00400E06305F008003D
:101A200030B107F0010018B1E06B40F00800E0634E
:101A3000E06B68B305F0200028B106F0200010B17B
:101A4000204600F021FD20684069C0F38019E06B5A
:101A500000F0080010B9B9F1000F22D0204600F0C4
:101A6000E9FC2068406900F04000B0B1206840699E
:101A700020F0400021684861606B50B11748616BED
:101A80004863606BFEF7A4FC10B1606B416B884744
:101A90000CE02046FFF77CFF08E02046FFF778FFC8
:101AA00004E02046FFF774FF0020E0638CE705F0B8
:101AB000800030B106F0800018B1204600F01CFE16
:101AC00082E705F0400030B106F0400018B1204632
:101AD00000F0C0FC78E700BF76E700007D23000837
:101AE00010B504460CB9012010BDA06900B100E09A
:101AF00000BF94F8390028B9002084F83800204647
:101B000000F028F8242084F839002068C06820F408
:101B100000502168C860204600F00AFD2068006976
:101B200020F49040216808612068406920F02A0074
:101B3000216848612068C06840F400502168C8608E
:101B40000020E063202084F8390084F83A00002067
:101B5000CAE7000010B586B004467A49206888427A
:101B600045D100BF7848806940F48040764988615B
:101B70000846806900F48040019000BF00BF48150E
:101B80000290022003900320059002A96F48FEF7FF
:101B900057FF4FF48060029000200390049002A948
:101BA0006A48FEF74DFF6A486A49086000204860AD
:101BB0000021684881608021C1600021016141618C
:101BC0008161C161FEF7A4FE18B1A32162A000F0FB
:101BD000B9FE00BF5F486063446200BF0022052178
:101BE0002520FFF796F92520FFF786F9A8E05E4942
:101BF000206888424ED100BF5348C06940F400308D
:101C00005149C8610846C06900F40030019000BF26
:101C100000BF20200290022003900320059002A91B
:101C20005248FEF70DFF40200290002003900490E0
:101C300002A94E48FEF704FF00BF4D49486840F036
:101C4000E06040F00800486000BF41481430494956
:101C50000860002048600021464881608021C16002
:101C60000021016141618161C161FEF751FE18B13E
:101C7000D32139A000F066FE00BF3E486063446295
:101C800000BF002205212620FFF743F92620FFF799
:101C900033F955E038492068884251D100BF2A48BD
:101CA000C06940F480202849C8610846C06900F432
:101CB0008020019000BF00BF881502900220039091
:101CC0000320059002A92948FEF7BAFE4FF40070E0
:101CD000029000200390049002A92448FEF7B0FE71
:101CE00000BF2349486820F0300040F0E06040F039
:101CF0003000486000BF164828382049086000209E
:101D0000486000211D4881608021C160002101617F
:101D100041618161C161FEF7FBFD20B140F2031119
:101D20000DA000F00FFE00BF14486063446200BFC6
:101D3000002205212720FFF7ECF82720FFF7DCF829
:101D400006B010BD003801400010024000080140FC
:101D500058000240500100202E2E2F5372632F7521
:101D6000736172742E63000000440040001401404F
:101D7000000001409401002000480040D8010020EC
:101D800077B581B00446154694F83A00202850D122
:101D9000029800B115B9012004B070BD00BF94F8DD
:101DA0003800012801D10220F6E7012084F838002C
:101DB00000BF0298A062A5850020E063222084F87D
:101DC0003A001D48616B88621C48616BC8621C4800
:101DD000616B08630020616B486302AE3268236860
:101DE000191D2B46606BFEF7DDFD00BF0020009043
:101DF00020680068009020684068009000BF00BF25
:101E000000BF002084F8380000BF2068C06840F49C
:101E100080702168C8602068406940F00100216836
:101E200048612068406940F0400021684861002016
:101E3000B2E70220B0E70000E123000827240008F1
:101E400091230008704770472DE9F84304460D467A
:101E500016461F464FF0000994F8390020285CD13F
:101E600005B116B90120BDE8F88300BF94F8380029
:101E7000012801D10220F6E7012084F8380000BFD4
:101E80000020E063212084F83900FEF779FF8146C5
:101E9000A684E6842BE0E08C401EE084A068B0F5C8
:101EA000805F16D14B46002280212046009700F02B
:101EB00057FC08B10320D6E7A846B8F80000C0F3E5
:101EC000080021684860206908B9AD1C0FE06D1C4E
:101ED0000DE04B46002280212046009700F040FC98
:101EE00008B10320BFE715F8010B21684860E08CBA
:101EF0000028D0D14B46002240212046009700F018
:101F00002FFC08B10320AEE7202084F8390000BF81
:101F1000002084F8380000BFA5E70220A3E770473F
:101F200000BFFEE708B500BF1248406940F001005D
:101F3000104948610846406900F00100009000BF68
:101F400000BF002205210D20FEF7E3FF0D20FEF764
:101F5000D3FF002205210F20FEF7DBFF0F20FEF745
:101F6000CBFF002205211020FEF7D3FF1020FEF743
:101F7000C3FF08BD0010024000B597B000201690C6
:101F8000012116A800F068FD244908600020159082
:101F9000012115A800F060FD21490860002014907F
:101FA000012114A800F058FD1E49086014221E49A2
:101FB0000FA8FEF725F900210FA800F0C9FD1B4965
:101FC00008601422184914310AA8FEF719F90021F3
:101FD0000AA800F0BDFD16490860142212492831F4
:101FE00005A8FEF70DF9002105A800F0B1FD114983
:101FF000086014220C493C316846FEF701F90021C3
:10200000684600F0A5FD0C49086000220421052067
:1020100001F018FC0949086017B000BD1C00002041
:102020002000002024000020044300080C000020B1
:1020300010000020140000201800002028000020BC
:1020400008B500BF1348806940F02000114988613D
:102050000846806900F02000009000BF00BF00BF6C
:102060000846806940F0040088610846806900F0F5
:102070000400009000BF00BF00BF0846806940F028
:10208000080088610846806900F00800009000BFE1
:1020900000BF08BD0010024010B50C480C49086094
:1020A0004FF4E1304860002109488160C16001615E
:1020B0000C21416100218161C161FFF711FD18B15F
:1020C000522104A000F03EFC10BD00000038014089
:1020D000900000202E2E2F5372632F75736172743F
:1020E0002E63000010B50C480C4908604FF4E13035
:1020F0004860002109488160C16001610C21416193
:1021000000218161C161FFF7EBFC18B1652104A0DA
:1021100000F018FC10BD000000440040D00000207A
:102120002E2E2F5372632F75736172742E6300000D
:1021300010B50C480C4908604FF4E13048600021AC
:1021400009488160C16001610C2141610021816108
:10215000C161FFF7C5FC18B1782104A000F0F2FBC3
:1021600010BD000000480040100100202E2E2F530B
:1021700072632F75736172742E63000000BFFEE7F7
:102180007047000002480068C0F30220704700005A
:102190000CED00E010B5002807DA0A07140E054A16
:1021A00000F00F031B1FD45403E00A07130E024A6A
:1021B000135410BD18ED00E000E400E008B5084934
:1021C0000968C9084FF47A72B1FBF2F141430091FA
:1021D00000BF00BF00994A1E00920029F9D108BD36
:1021E0002C00002010B500F0ABFC10BD10B590B075
:1021F00001200690000407900020089001200A901A
:1022000002200D90C1030E914FF4E0110F9106A82A
:10221000FFF736F818B1A62114A000F093FB0F20A9
:10222000019002200290002003904FF480600490FF
:1022300000200590022101A8FEF7BEFE18B1B421CE
:102240000AA000F07FFBFEF7ABFF4FF47A71B0FB02
:10225000F1F42046FFF748FA0420FFF731FA002294
:102260000F21501EFEF755FE10B010BD2E2E2F531D
:1022700072632F6D61696E2E630000001148006863
:1022800040F001000F490860084640680E490840C8
:102290000C494860084600680C4908400949086034
:1022A0000846006820F4802008600846406820F452
:1022B000FE0048604FF41F008860C80304490860AE
:1022C00070470000001002400000FFF8FFFFF6FE1C
:1022D00008ED00E010B50248FFF74DFA10BD000010
:1022E0001C020020002202681F4B98420ED01F4B98
:1022F00098420BD0B0F1804F08D01D4B984205D0CA
:102300001C4B984202D01C4B984203D122F0700221
:102310004B681A43144B98420ED0144B98420BD082
:10232000B0F1804F08D0124B984205D0114B984223
:1023300002D0114B984203D122F44072CB681A4369
:1023400022F080024B691A4302608B68C3620B68FB
:102350008362054B984202D0044B984201D10B692D
:102360000363012343617047002C014000340140A6
:102370000004004000080040000C004070B5054615
:102380006C6A0020E085E0842046FFF701FB70BD09
:1023900070B506460025746A20684069C0F3C01510
:1023A00094F83900212805D125B10020E084204689
:1023B00000F060F820684069C0F3801594F83A0096
:1023C000222805D125B10020E085204600F032F812
:1023D000E06B40F01000E0632046FFF7D9FA70BDD3
:1023E00070B505466C6A2868006800F02000B0B936
:1023F0000020E0852068C06820F480702168C860F3
:102400002068406920F00100216848612068406927
:1024100020F0400021684861202084F83A002046DE
:10242000FFF710FD70BD70B50446656A2846FFF7DA
:102430000AFD70BD0168C96821F490710268D1601D
:102440000168496921F0010102685161202180F889
:102450003A10704710B504462068C06820F040006C
:102460002168C860202084F839002046FFF757FD16
:10247000002010BD0168C96821F0C0010268D16068
:10248000202180F83910704770B5044694F83A005E
:1024900022284AD1A068B0F5805F13D1A56A2069CF
:1024A00040B920684068C0F308002880A06A801CFA
:1024B000A06219E020684068C0B22880A06A401C71
:1024C000A06211E0206938B920684068C1B2A26AF0
:1024D000501CA062117007E02068406800F07F0186
:1024E000A26A501CA0621170E08D401E80B2E0858F
:1024F000C8B92068C06820F020002168C860206842
:10250000C06820F480702168C8602068406920F0AD
:10251000010021684861202084F83A002046FFF736
:1025200091FC002070BD0020FCE70220FAE70000CB
:102530002DE9F041044600252068006920F4405050
:10254000E1680843216808612169A068084361695E
:10255000084305432068C06841F20C618843284362
:102560002168C8602068406920F44070A169084370
:10257000216848615F49206888425CD1FEF726FEE9
:1025800000EBC00101EB001061688900B0FBF1F6BF
:10259000FEF71CFE00EBC00101EB00106168890032
:1025A000B0FBF1F06421B0FBF1F000EBC00101EBF6
:1025B0000010A6EB8000322101EB00106421B0FB7B
:1025C000F1F000F0F006FEF701FE00EBC00101EBB8
:1025D000001061688900B0FBF1F06421B0FBF1F0FC
:1025E00006EB0016FEF7F2FD00EBC00101EB001058
:1025F00061688900B0FBF1F7FEF7E8FD00EBC00170
:1026000001EB001061688900B0FBF1F06421B0FBC0
:10261000F1F000EBC00101EB0010A7EB80003221CC
:1026200001EB00106421B0FBF1F000F00F0030442A
:10263000216888605BE0FEF7B9FD00EBC00101EBAB
:10264000001061688900B0FBF1F6FEF7AFFD00EB0A
:10265000C00101EB001061688900B0FBF1F064215A
:10266000B0FBF1F000EBC00101EB0010A6EB800025
:10267000322101EB00106421B0FBF1F000F0F00614
:10268000FEF794FD00EBC00101EB001061688900CA
:10269000B0FBF1F06421B0FBF1F006EB0016FEF7A1
:1026A00085FD00EBC00101EB001061688900B0FB03
:1026B000F1F7FEF77BFD00EBC00101EB0010616854
:1026C0008900B0FBF1F06421B0FBF1F000EBC00138
:1026D00001EB0010A7EB8000322101EB0010642118
:1026E000B0FBF1F000F00F00304421688860BDE8D5
:1026F000F081000000380140014691F8390021289E
:102700002CD18868B0F5805F0FD10A6A1088C0F3B9
:1027100008000B685860086918B9086A801C0862CC
:1027200009E0086A401C086205E00B6A581C086250
:1027300018780B685860C88C401E80B2C88458B99D
:102740000868C06820F080000B68D8600868C0681E
:1027500040F040000B68D860002070470220FCE782
:102760002DE9F04104460D4617469846069E21E0A5
:10277000701CF8B12EB1FEF703FBA0EB0800B042CD
:1027800018D92068C06820F4D0702168C86020681B
:10279000406920F0010021684861202084F8390058
:1027A00084F83A0000BF002084F8380000BF0320FE
:1027B000BDE8F081206800682840A84201D10120CE
:1027C00000E00020B842D3D00020F1E710B5064960
:1027D000064800F093F80648006800F053F90348F3
:1027E000FFF7D8F810BD00005C0200209000002028
:1027F0001C00002000BF4FF0FF310748006800F0C8
:1028000069F90648007800F001000028F3D00020A4
:1028100002490870EFE700001C0000205C02002065
:1028200010B50649064800F069F80648006800F04F
:1028300029F90348FFF7AEF810BD0000600400203E
:10284000D00000202000002000BF4FF0FF310748DB
:10285000006800F03FF90648007800F00100002809
:10286000F3D0002002490870EFE7000020000020AC
:102870006004002010B50649064800F03FF80648FD
:10288000006800F0FFF80348FFF784F810BD00006F
:1028900064060020100100202400002008B500205C
:1028A000009000BF4FF0FF311048006800F012F9AF
:1028B0000F48007800F0010010B100200C490870AA
:1028C0004FF4017000F048FC009000980028E9D017
:1028D0004FF4017206490098FDF792FC0549002368
:1028E0005A1E0868694601F007F9DBE7240000205A
:1028F000640600202800002000BFFEE7F8B504466B
:102900000D4620680068C0F30010D0B100BF002061
:10291000009020680068009020684068009000BF28
:1029200000BF2046FFF701F8606B00684668C6F5F7
:1029300000706880012028704202291D2046FFF7A0
:102940001FFAF8BD00BFFEE702E008C8121F08C169
:10295000002AFAD170477047002001E001C1121F20
:10296000002AFBD1704730B502460B464FF6FF7088
:10297000002110E0545C6040002409E000F00105F3
:1029800025B140104AF20105684000E04010641C87
:10299000082CF3DB491C9942ECDB30BD00BFEFF3A0
:1029A000058008B1012070470020FCE7FEF7FAF926
:1029B000FFF71CFCFFF744FBFFF7B4FAFFF76CFBD3
:1029C000FFF790FBFFF7B4FB4FF40072164917486E
:1029D000FFF7D6F915480068C06840F010001349A9
:1029E0000968C8604FF4007211491248FFF7C8F92E
:1029F00010480068C06840F010000E490968C860BF
:102A00004FF400720C490D48FFF7BAF90B48006803
:102A1000C06840F0100009490968C860FFF7ACFAC7
:102A200000F015F800BFFEE76002002090000020D3
:102A300064040020D000002068060020100100205F
:102A400001460020842901D0CA1C1044704710B5EB
:102A500000F0FCFD002010BD70B506460D46012DAE
:102A60000ED103220021012000F0ECFE04462CB11F
:102A700000231A461946204601F03EF8204670BD54
:102A80000020FCE738B50446002500200090FFF741
:102A900085FF90B16946204601F002F9012801D076
:102AA000FF2038BD009888B14FF080500849086079
:102AB000BFF34F8FBFF36F8F08E000231A4619460C
:102AC000204601F019F8012800D0FF252846E8E744
:102AD00004ED00E0F8B506460C46002000900EB963
:102AE0008020F8BD0025601C08B96D1E03E014B1FC
:102AF000254605B90125FFF751FF98B16A46002127
:102B0000304601F03DF9012801D0FF20E9E70098A7
:102B100090B14FF0805009490860BFF34F8FBFF369
:102B20006F8F09E000232A461946304600F0B6FEB2
:102B3000012801D0FF20D4E70020D2E704ED00E017
:102B400010B501F0F9F9012801D000F061FE10BDC7
:102B5000FEB504460D46B4F90800FFF771FF0646BE
:102B600002A8CDE90060238A9AB22B46D4E900106E
:102B700001F0B2F9012801D00020FEBD0298FCE767
:102B80002DE9F04105460E461C4807681C480068C0
:102B9000001D00F0A1FB50B91948006890F82C10F6
:102BA0000120884017490968814316480160681C64
:102BB00038B936B112480168091D134800F0CAFB44
:102BC0001AE07C190E4800684460BC4207D20C48E9
:102BD0000168091D0D48006800F0A2FB0CE00848E0
:102BE0000168091D0A48006800F09AFB094800685E
:102BF000844201D207480460BDE8F08168000020EB
:102C0000540000206C000020905900205C0000203F
:102C1000580000208400002010B5044600F0A6FBF8
:102C200023480068401C224908602248006840B9D7
:102C3000204804600846006801280DD100F08EF994
:102C40000AE01D48006838B91A480068C06AE16A9D
:102C5000884201D81748046018480068401C17498A
:102C6000086094F82C100120884015490968084331
:102C700013490860E16A01EB8101124A02EB81000D
:102C8000211D00F067FB00F09BFB0B48006868B15A
:102C900008480068C06AE16A884207D24FF0805055
:102CA00009490860BFF34F8FBFF36F8F10BD00005D
:102CB00064000020540000207000002080000020EC
:102CC0006C000020B458002004ED00E070B523E053
:102CD00000F000FD1348006808B9012000E0002062
:102CE000054601F08DFABDB900F040FB0D48C06803
:102CF000C468201D00F0F0FA0B480068401E0A4925
:102D000008600A480068401E0849086000F058FB47
:102D1000204600F060F800BF044800680028D7D1C2
:102D200070BD00007C59002064000020600000207D
:102D300070B504460D46206C70B1216CE068084403
:102D4000E0606168E068884201D32068E06028465E
:102D5000226CE168FDF754FA70BD2DE9F04104469C
:102D60000F4615464FF00008A66B206C40B920684E
:102D700060BB606801F094F980460020606025E047
:102D80007DB93946226CA068FDF73AFA216CA0683B
:102D90000844A060D4E90110884217D32068A060DD
:102DA00014E03946226CE068FDF72AFA216CE068ED
:102DB000401AE0602168E068884203D2216C6068B4
:102DC000401AE060022D01D106B1761E701CA0638E
:102DD0004046BDE8F08110B50446206B00F00EFBC4
:102DE000204600F00BFB10BD30B54FF4A043174850
:102DF00000F007042CB1C01D20F00700134C041B89
:102E00001B1B0246124C22600024114D6C60D0182E
:102E1000083820F007000F4C206000240D4D2D686D
:102E20006C600C4D2D682C601146441A4C60094CA6
:102E300024680C60084D4C682C60084D4C682C6070
:102E40004FF00044064D2C6030BD0000B208002059
:102E50003000002038000020400000203C0000200E
:102E60004400002000BFFFF731FF0648006801283A
:102E7000F9D94FF0805004490860BFF34F8FBFF37A
:102E80006F8FF0E7B458002004ED00E02DE9F04129
:102E900006460D4617469846069C0DB9246000E08C
:102EA0002760E66325640121204600F0D9FDBDE8D6
:102EB000F0812DE9FF5F81460F469246DDE90E6BFA
:102EC000109CAAF10100216B01EB800828F0070893
:102ED00008F0070008B9012000E0002050B900BF49
:102EE000502080F31188BFF34F8FBFF36F8F00BF67
:102EF00000BFFEE7002507E0795D04F1340041558D
:102F0000785D00B902E06D1C102DF5D300BF0021E3
:102F100043200155072E00D30626E6626664002092
:102F2000A064201D00F0F9F904F1180000F0F5F993
:102F30002461C6F10700A06164620020E06484F8A7
:102F4000500049464046039A00F0B4F92060BBF1B6
:102F5000000F01D0CBF80040BDE8FF9F10B5002462
:102F600007E004EB84010F4A02EB810000F0C8F98E
:102F7000641C072CF5D30C4800F0C2F90B4800F094
:102F8000BFF90B4800F0BCF90A4800F0B9F90A484B
:102F900000F0B6F904480949086004480849086087
:102FA00010BD0000B45800204059002054590020A2
:102FB000685900207C5900209059002058000020BA
:102FC0005C00002010B50146164800E00068036868
:102FD0008B42FBD30246436813448B4204D14368BF
:102FE0004C682344436001460A464B681344046816
:102FF000A34211D10C4C03682468A34208D04B684B
:103000000468646823444B6003681B680B6005E038
:10301000054B1B680B6001E003680B60884200D021
:10302000016010BD300000203800002070B505465A
:1030300000F09CF9A86B08B9012400E0002400F01E
:10304000BFF9204670BD70B5054600F08FF9A86B3A
:10305000E96B884201D1012400E0002400F0B0F9BE
:10306000204670BD0A490968096809B9012100E0D4
:10307000002121B14FF0FF31064A116006E00449FA
:103080000968C968C868034A416811607047000050
:1030900058000020840000200E480068401C08B939
:1030A000012000E0002050B900BF502080F31188BB
:1030B000BFF34F8FBFF36F8F00BF00BFFEE700BFAE
:1030C000502080F31188BFF34F8FBFF36F8F00BF85
:1030D00000BFFEE74800002070B5044600F046F946
:1030E00094F9455010E0606A08B9012000E0002022
:1030F00038B904F1240001F037F818B100F014FADF
:1031000000E003E0681E45B2002DECDC00BFFF20AC
:1031100084F8450000F054F900F028F994F944507F
:1031200010E0206908B9012000E0002048B904F14E
:10313000100001F019F808B100F0F6F9681E45B268
:1031400000E001E0002DECDC00BFFF2084F844002B
:1031500000F036F970BD00002DE9F04104464FF053
:10316000000800F0B7FA4648006808B9FFF73CFECF
:1031700044480068204000286BD1D4B1083404F0E2
:103180000700B0B104F00700C0F10800044404F0E7
:10319000070008B9012000E0002050B900BF50200E
:1031A00080F31188BFF34F8FBFF36F8F00BF00BF55
:1031B000FEE7002C4DD034480068844249D8334E95
:1031C0003046056801E02E462D686868A04202D2AC
:1031D00028680028F7D12A480068854239D030682D
:1031E00000F10808286830606868001B102819D9A9
:1031F0002F1907F0070008B9012000E0002050B99E
:1032000000BF502080F31188BFF34F8FBFF36F8F43
:1032100000BF00BFFEE76868001B78606C6038463E
:10322000FFF7D0FE184968680968081A164908604F
:103230000846006816490968884203D212480068A7
:10324000134908600F4968680968084368600020EE
:10325000286000F0D5FF08F0070008B9012000E061
:10326000002050B900BF502080F31188BFF34F8F6A
:10327000BFF36F8F00BF00BFFEE74046BDE8F0819F
:1032800038000020440000203C00002030000020D6
:10329000400000200648006830B10549096801F186
:1032A0004800896C491C01600148006870470000B3
:1032B00054000020001F4FF080730360001F21F0B6
:1032C00001030360001F034B0360143802602038C1
:1032D000704700009930000801460A69D1E90130C1
:1032E0009860D1E9010358605068884201D188682C
:1032F0005060002008611068401E10601068704720
:1033000000F1080141604FF0FF31816000F10801D8
:10331000C1600161002101607047002101617047B7
:1033200010B502460B685C1C0CB9106907E002F18D
:10333000080000E04068446824689C42FAD9446868
:103340004C604C68A160886041600A611468641C2C
:10335000146010BD42684A6093688B60936859603E
:103360009160086103685B1C0360704700BF5020D8
:1033700080F31188BFF34F8FBFF36F8F00BF0E48EC
:103380000068401C0C49086008460068012812D1FA
:103390000A480068C0B208B9012000E0002050B916
:1033A00000BF502080F31188BFF34F8FBFF36F8FA2
:1033B00000BF00BFFEE770474800002004ED00E0BA
:1033C0000D48006850B900BF502080F31188BFF34A
:1033D0004F8FBFF36F8F00BF00BFFEE70648006846
:1033E000401E054908600846006820B9002080F3A7
:1033F000118800BF00BF70474800002070B5064626
:103400003546002E3FD0083D2C461F4960680968AC
:10341000084008B1012000E0002050B900BF502052
:1034200080F31188BFF34F8FBFF36F8F00BF00BFD2
:10343000FEE7206808B9012000E0002050B900BF75
:10344000502080F31188BFF34F8FBFF36F8F00BF01
:1034500000BFFEE70C4960680968084098B1206821
:1034600088B90949606809688843606000F032F9EA
:103470000649606809680844044908602046FFF767
:10348000A1FD00F0BDFE70BD440000203C00002006
:10349000064800684FF47A71B0FBF1F0401E4FF01F
:1034A000E021486107200861704700002C000020DF
:1034B00070B5FCF78FFE0446102C16D304F1E02003
:1034C00090F8F05315480078854201DB012000E0B8
:1034D000002050B900BF502080F31188BFF34F8FF8
:1034E000BFF36F8F00BF00BFFEE70D48006800F418
:1034F000E0600C490968884201D8012000E0002002
:1035000050B900BF502080F31188BFF34F8FBFF335
:103510006F8F00BF00BFFEE770BD00004C000020B1
:103520000CED00E0500000200120014908607047C8
:103530007800002070B504460D4654B900BF5020F5
:1035400080F31188BFF34F8FBFF36F8F00BF00BFB1
:10355000FEE70548016818312046FFF7E1FE01212A
:103560002846FFF70DFB70BD5400002070B50546DE
:103570002C46002D4BD02649E06A0968C96A88426A
:1035800045D2A06900F0004028B921480068C06A0F
:10359000C0F10700A061E16A01EB81011D4A02EB65
:1035A00081016069884201D1012000E0002050B310
:1035B000201DFFF791FE78B9E06A00EB8000154905
:1035C00051F8200040B994F82C100120884012498D
:1035D00009688143104801600D480068C06AE062D4
:1035E00094F82C10012088400B49096808430A49C7
:1035F0000860E16A01EB8101064A02EB8100211DAE
:10360000FFF7A8FE03E002480068C06AE06270BDF0
:1036100054000020B45800206C00002050B900BFB6
:10362000502181F31188BFF34F8FBFF36F8F00BF1D
:1036300000BFFEE70349096801600349096841606A
:10364000704700007C000020680000201CB51A486C
:1036500000210B468022CDE9001018A1194800F086
:103660003BFC0446012C15D100BF502080F311888B
:10367000BFF34F8FBFF36F8F00BF4FF0FF30124982
:10368000086001201149086000201149086000F01D
:103690006FF810E0601C08B1012000E0002050B974
:1036A00000BF502080F31188BFF34F8FBFF36F8F9F
:1036B00000BF00BFFEE71CBD8800002049444C4508
:1036C00000000000652E000884000020700000202B
:1036D0006800002002480068401C014908607047EB
:1036E0008C0000201D48006818B101201C490860AA
:1036F00032E000201A4908601A480068B0FA80F0E9
:10370000C0F11F0101EB8100174A52F8200008B1F7
:10371000012000E0002050B900BF502080F3118844
:10372000BFF34F8FBFF36F8F00BF00BFFEE701EB0A
:1037300081020D4B03EB820042685268426000F147
:1037400008024368934202D142685268426042686C
:10375000D268064B1A6000BF704700008C00002042
:10376000780000206C000020B45800205400002095
:103770001CB52248014609780191FF2102461170CB
:103780000146097800919DF8001001F050011C4A93
:10379000117007211B4A116009E01A490968491E86
:1037A000184A11609DF800104906090E00919DF815
:1037B000001001F080018029EFD012490968090248
:1037C000104A11601146098801F4E06111600B4A4A
:1037D000019911700C48006840F470000A490860B3
:1037E0000846006840F070400860FFF751FE002076
:1037F00006490860FCF7B8FC00201CBD00E400E0AE
:103800004C0000205000002020ED00E04800002087
:1038100010B500BF502080F31188BFF34F8FBFF366
:103820006F8F00BF00F098FB18B14FF08050044933
:10383000086000BF002080F3118800BF10BD0000A9
:1038400004ED00E02DE9F84305460E4690460DB123
:10385000012000E0002050B900BF502080F3118803
:10386000BFF34F8FBFF36F8F00BF00BFFEE70EB9EE
:10387000002701E005FB06F707F14800FFF76CFCA5
:10388000044644B104F1480943464A4631462846B5
:103890000094FFF7FBFA2046BDE8F8832DE9FF47C7
:1038A00082B005460E461F464FF0000A2C4654B91A
:1038B00000BF502080F31188BFF34F8FBFF36F8F8D
:1038C00000BF00BFFEE70EB9206C08B9012000E080
:1038D000002050B900BF502080F31188BFF34F8FF4
:1038E000BFF36F8F00BF00BFFEE700F025FB08B9F4
:1038F000049808B9012000E0002050B900BF502012
:1039000080F31188BFF34F8FBFF36F8F00BF00BFED
:10391000FEE700BFFFF72AFDD4F83890B9F1000F99
:103920003DD0D4F80C8031462046FFF701FADFB9CC
:10393000A9F10100A063206810B9FFF7ABFC60603B
:10394000206908B9012000E0002010BB04F110003C
:1039500000F00AFCE8B14FF0805040490860BFF326
:103960004F8FBFF36F8F14E0C4F80C80606A08B902
:10397000012000E0002060B904F1240000F0F4FB15
:1039800038B14FF0805035490860BFF34F8FBFF317
:103990006F8FFFF715FD012006B0BDE8F087049892
:1039A00018B9FFF70DFD0020F6E7BAF1000F04D1BA
:1039B0006846FFF733FE4FF0010AFFF701FDFFF7FE
:1039C00089FEFFF7D3FC94F94400401C10B9002095
:1039D00084F8440094F94500401C10B9002084F894
:1039E0004500FFF7EDFC04A9684600F02FFA40BB44
:1039F0002046FFF71BFBF0B1206830B9FFF7B6FC9B
:103A00006068FFF7B3FDFFF7DBFC04F124000499C5
:103A1000FFF790FD2046FFF75FFB00F0F1FB002869
:103A20007FF478AF4FF080500C490860BFF34F8FA0
:103A3000BFF36F8F6EE72046FFF74EFB00F0E0FB11
:103A400068E72046FFF748FB00F0DAFB2046FFF767
:103A5000EDFA0028EED000209EE7000004ED00E023
:103A600070B505460E462C4654B900BF502080F371
:103A70001188BFF34F8FBFF36F8F00BF00BFFEE70A
:103A8000FFF774FCD4E90F12206801FB02006060AC
:103A90000020A0632068A060E06B401E226C2168BB
:103AA00000FB0210E060FF2084F8440084F8450029
:103AB0009EB9206908B9012000E00020A8B904F1EE
:103AC000100000F051FB80B14FF0805009490860B0
:103AD000BFF34F8FBFF36F8F07E004F11000FFF7C4
:103AE0000FFC04F12400FFF70BFCFFF769FC012039
:103AF00070BD000004ED00E02DE9FF4383B00646F1
:103B000088461D464FF00009344654B900BF502086
:103B100080F31188BFF34F8FBFF36F8F00BF00BFDB
:103B2000FEE7B8F1000F01D1206C08B9012000E0D8
:103B3000002050B900BF502080F31188BFF34F8F91
:103B4000BFF36F8F00BF00BFFEE7022D02D1E06B15
:103B5000012801D1012000E0002050B900BF502011
:103B600080F31188BFF34F8FBFF36F8F00BF00BF8B
:103B7000FEE700F0E1F908B9059808B9012000E076
:103B8000002050B900BF502080F31188BFF34F8F41
:103B9000BFF36F8F00BF00BFFEE700BFFFF7E6FB7C
:103BA000A06BE16B884201D3022D28D12A46414601
:103BB0002046FFF7D2F80746606A08B9012000E006
:103BC000002068B904F1240000F0CEFA88B14FF06B
:103BD000805032490860BFF34F8FBFF36F8F08E00A
:103BE0003FB14FF080502D490860BFF34F8FBFF3B6
:103BF0006F8FFFF7E5FB012007B0BDE8F083059864
:103C000018B9FFF7DDFB0020F6E7B9F1000F04D18A
:103C100001A8FFF703FD4FF00109FFF7D1FBFFF704
:103C200059FDFFF7A3FB94F94400401C10B9002094
:103C300084F8440094F94500401C10B9002084F831
:103C40004500FFF7BDFB05A901A800F0FFF8F0B99A
:103C50002046FFF7F8F9A0B104F110000599FFF72D
:103C600069FC2046FFF738FA00F0CAFA002895D11F
:103C70004FF0805009490860BFF34F8FBFF36F8F3B
:103C80008CE72046FFF728FA00F0BAFA86E72046CC
:103C9000FFF722FA00F0B4FA0020ADE704ED00E0EF
:103CA0002DE9F04706460F46344654B900BF502070
:103CB00080F31188BFF34F8FBFF36F8F00BF00BF3A
:103CC000FEE7206C08B9012000E0002050B900BFD9
:103CD000502080F31188BFF34F8FBFF36F8F00BF69
:103CE00000BFFEE7206808B9606808B9012000E05D
:103CF000002050B900BF502080F31188BFF34F8FD0
:103D0000BFF36F8F00BF00BFFEE7FFF7D1FB00BF1F
:103D10005021EFF3118081F31188BFF34F8FBFF370
:103D20006F8F00BF0546D4F83890E06B48451ED928
:103D300094F945A009F10100A0630AF1010070B9EE
:103D4000606A08B9012000E0002068B904F124008D
:103D500000F00AFA40B13FB10120386004E00AF1F6
:103D6000010040B284F845004FF0010801E04FF037
:103D7000000800BF85F3118800BF4046BDE8F0870A
:103D80002DE9F05F064689461746344654B900BF10
:103D9000502080F31188BFF34F8FBFF36F8F00BFA8
:103DA00000BFFEE7B9F1000F01D1206C08B9012076
:103DB00000E0002050B900BF502080F31188BFF30D
:103DC0004F8FBFF36F8F00BF00BFFEE7FFF770FBA1
:103DD00000BF5021EFF3118081F31188BFF34F8FA3
:103DE000BFF36F8F00BF0546D4F838A0BAF1000FBB
:103DF00022D094F944B049462046FEF799FFAAF133
:103E00000100A0630BF1010070B9206908B901201D
:103E100000E0002068B904F1100000F0A5F940B1FD
:103E20003FB10120386004E00BF1010040B284F89A
:103E300044004FF0010801E04FF0000800BF85F397
:103E4000118800BF4046BDE8F09F000070B50446F1
:103E50000D4654B900BF502080F31188BFF34F8F37
:103E6000BFF36F8F00BF00BFFEE755B900BF502002
:103E700080F31188BFF34F8FBFF36F8F00BF00BF78
:103E8000FEE7FFF773FA124803682868401C08B978
:103E9000002619E00F4920680968884204D060684C
:103EA000984201D801260FE06068181A29688842F4
:103EB00009D228686168591A401A28602046FFF71D
:103EC000ADFB002600E00126FFF77AFA304670BD10
:103ED000680000207C0000202DE9FF4F85B080465F
:103EE00089461746DDE912ABB800FFF735F90646FB
:103EF00056B15420FFF730F904460CB1266304E0B4
:103F00003046FFF77BFA00E000247CB10020CDE9C9
:103F100000ABCDE902403A4649464046089BFEF7D1
:103F2000C8FF2046FEF778FE012501E04FF0FF357F
:103F3000284609B0BDE8F08F0549096809B9012094
:103F400005E00449096809B9022000E00020704733
:103F5000700000208C0000202DE9F0414FF0000897
:103F600044480068002877D143480068451C42480F
:103F7000056015BB41480068006808B9012000E0F1
:103F8000002050B900BF502080F31188BFF34F8F3D
:103F9000BFF36F8F00BF00BFFEE73848076838489F
:103FA0000068364908603648076036480068401C9B
:103FB00034490860FFF756F800BF3348006885426F
:103FC0003CD300BF2D480068006808B9012000E01C
:103FD000002020B14FF0FF302B4908602DE027482A
:103FE0000068C068C4686668B54202D226480660A8
:103FF00023E0201DFFF770F9A06A18B104F1180042
:10400000FFF76AF994F82C10012088401F490968CD
:1040100008431E490860E16A01EB81011C4A02EB7A
:104020008100211DFFF796F91A49E06A0968C96AFB
:104030008842C7D34FF00108C4E700BF15480068A5
:10404000C06A00EB8000124951F82000012801D914
:104050004FF0010805E0FFE70F480068401C0E49DB
:1040600008600E48006808B14FF001084046BDE8FE
:10407000F08100008C000020680000205800002023
:104080005C0000207C000020840000206C000020E8
:10409000B458002054000020740000207800002054
:1040A00070B505462C460026002D55D02B480068DB
:1040B000844201D1012000E0002050B900BF50200F
:1040C00080F31188BFF34F8FBFF36F8F00BF00BF26
:1040D000FEE7A06C50B900BF502080F31188BFF3F9
:1040E0004F8FBFF36F8F00BF00BFFEE7A06C401E75
:1040F000A064616CE06A88422ED0A06C60BB201D79
:10410000FFF7EAF878B9E06A00EB8000144951F84B
:10411000200040B994F82C1001208840114909680A
:10412000814310480160606CE062E06AC0F1070002
:10413000A06194F82C10012088400A4909680843BE
:1041400008490860E16A01EB8101054A02EB810040
:10415000211DFFF7FFF80126304670BD54000020F6
:10416000B45800206C00002070B50646F068C468A2
:1041700054B900BF502080F31188BFF34F8FBFF3B5
:104180006F8F00BF00BFFEE704F11800FFF7A4F82F
:1041900015480068A8B9201DFFF79EF894F82C1068
:1041A0000120884011490968084310490860E16A04
:1041B00001EB81010E4A02EB8100211DFFF7CAF8D5
:1041C00004E004F118010B48FFF7C4F80A49E06A5B
:1041D0000968C96A884204D9012501200749086095
:1041E00000E00025284670BD8C0000206C000020F7
:1041F000B4580020685900205400002078000020A6
:1042000070B5002400263648006850B900BF502021
:1042100080F31188BFF34F8FBFF36F8F00BF00BFD4
:10422000FEE7FFF7A3F82E480068401E2C490860FF
:104230000846006800284FD12A48006800284BD063
:1042400024E02948C068C46804F11800FFF744F866
:10425000201DFFF741F894F82C10012088402349D5
:104260000968084321490860E16A01EB8101204A9D
:1042700002EB8100211DFFF76DF81E49E06A096815
:10428000C96A884202D301201B49086016480068A9
:1042900008B9012000E000200028D2D00CB1FEF7C0
:1042A000E1FE1648056865B100BFFFF755FE10B185
:1042B0000120114908606D1E002DF6D100200F4924
:1042C00008600D48006838B1012630070C490860C5
:1042D000BFF34F8FBFF36F8FFFF772F8304670BD9B
:1042E0008C00002064000020685900206C00002031
:1042F000B4580020540000207800002074000020F2
:1043000004ED00E09C430008AD020008000000003E
:1043100000000000800000006C430008F527000842
:104320000300000000000000800000007C43000843
:104330004928000803000000000000008000000081
:104340008C4300089D2800080300000000000000C6
:1043500080000000000000000000000001020304D3
:1043600006070809000000000102030455534152EA
:1043700054315F5365727665000000005553415219
:1043800054325F5365727665000000005553415208
:1043900054335F5365727665000000004661725FBA
:1043A0004D6F646966790000C84300080000002072
:1043B00090000000482900085844000890000020A0
:1043C000185D0000582900080000000010000000DF
:1043D00001000000000000000000000000000000DC
:1043E00000000000000000000000000000000000CD
:1043F0000000000000A24A040000000000000000CD
:1044000000000000000000000000000000000000AC
:10441000AAAAAAAA000000000000000000000000F4
:10442000000000000000000000000000000000008C
:10443000000000000000000000000000000000007C
:10444000000000000000000000000000000000006C
:08445000000000000000000064
:0400000508000131BD
:00000001FF
